{
  "_format": "hh-sol-artifact-1",
  "contractName": "SimpleSwap",
  "sourceName": "contracts/SimpleSwap.sol",
  "abi": [
    {
      "inputs": [
        {
          "internalType": "address",
          "name": "initialOwner",
          "type": "address"
        }
      ],
      "stateMutability": "nonpayable",
      "type": "constructor"
    },
    {
      "inputs": [
        {
          "internalType": "address",
          "name": "spender",
          "type": "address"
        },
        {
          "internalType": "uint256",
          "name": "allowance",
          "type": "uint256"
        },
        {
          "internalType": "uint256",
          "name": "needed",
          "type": "uint256"
        }
      ],
      "name": "ERC20InsufficientAllowance",
      "type": "error"
    },
    {
      "inputs": [
        {
          "internalType": "address",
          "name": "sender",
          "type": "address"
        },
        {
          "internalType": "uint256",
          "name": "balance",
          "type": "uint256"
        },
        {
          "internalType": "uint256",
          "name": "needed",
          "type": "uint256"
        }
      ],
      "name": "ERC20InsufficientBalance",
      "type": "error"
    },
    {
      "inputs": [
        {
          "internalType": "address",
          "name": "approver",
          "type": "address"
        }
      ],
      "name": "ERC20InvalidApprover",
      "type": "error"
    },
    {
      "inputs": [
        {
          "internalType": "address",
          "name": "receiver",
          "type": "address"
        }
      ],
      "name": "ERC20InvalidReceiver",
      "type": "error"
    },
    {
      "inputs": [
        {
          "internalType": "address",
          "name": "sender",
          "type": "address"
        }
      ],
      "name": "ERC20InvalidSender",
      "type": "error"
    },
    {
      "inputs": [
        {
          "internalType": "address",
          "name": "spender",
          "type": "address"
        }
      ],
      "name": "ERC20InvalidSpender",
      "type": "error"
    },
    {
      "inputs": [
        {
          "internalType": "address",
          "name": "owner",
          "type": "address"
        }
      ],
      "name": "OwnableInvalidOwner",
      "type": "error"
    },
    {
      "inputs": [
        {
          "internalType": "address",
          "name": "account",
          "type": "address"
        }
      ],
      "name": "OwnableUnauthorizedAccount",
      "type": "error"
    },
    {
      "anonymous": false,
      "inputs": [
        {
          "indexed": true,
          "internalType": "address",
          "name": "owner",
          "type": "address"
        },
        {
          "indexed": true,
          "internalType": "address",
          "name": "spender",
          "type": "address"
        },
        {
          "indexed": false,
          "internalType": "uint256",
          "name": "value",
          "type": "uint256"
        }
      ],
      "name": "Approval",
      "type": "event"
    },
    {
      "anonymous": false,
      "inputs": [
        {
          "indexed": true,
          "internalType": "address",
          "name": "previousOwner",
          "type": "address"
        },
        {
          "indexed": true,
          "internalType": "address",
          "name": "newOwner",
          "type": "address"
        }
      ],
      "name": "OwnershipTransferred",
      "type": "event"
    },
    {
      "anonymous": false,
      "inputs": [
        {
          "indexed": true,
          "internalType": "address",
          "name": "from",
          "type": "address"
        },
        {
          "indexed": true,
          "internalType": "address",
          "name": "to",
          "type": "address"
        },
        {
          "indexed": false,
          "internalType": "uint256",
          "name": "value",
          "type": "uint256"
        }
      ],
      "name": "Transfer",
      "type": "event"
    },
    {
      "inputs": [
        {
          "internalType": "address",
          "name": "tokenA",
          "type": "address"
        },
        {
          "internalType": "address",
          "name": "tokenB",
          "type": "address"
        },
        {
          "internalType": "uint256",
          "name": "amountADesired",
          "type": "uint256"
        },
        {
          "internalType": "uint256",
          "name": "amountBDesired",
          "type": "uint256"
        },
        {
          "internalType": "uint256",
          "name": "amountAMin",
          "type": "uint256"
        },
        {
          "internalType": "uint256",
          "name": "amountBMin",
          "type": "uint256"
        },
        {
          "internalType": "address",
          "name": "to",
          "type": "address"
        },
        {
          "internalType": "uint256",
          "name": "deadline",
          "type": "uint256"
        }
      ],
      "name": "addLiquidity",
      "outputs": [
        {
          "internalType": "uint256",
          "name": "amountA",
          "type": "uint256"
        },
        {
          "internalType": "uint256",
          "name": "amountB",
          "type": "uint256"
        },
        {
          "internalType": "uint256",
          "name": "liquidity",
          "type": "uint256"
        }
      ],
      "stateMutability": "nonpayable",
      "type": "function"
    },
    {
      "inputs": [
        {
          "internalType": "address",
          "name": "owner",
          "type": "address"
        },
        {
          "internalType": "address",
          "name": "spender",
          "type": "address"
        }
      ],
      "name": "allowance",
      "outputs": [
        {
          "internalType": "uint256",
          "name": "",
          "type": "uint256"
        }
      ],
      "stateMutability": "view",
      "type": "function"
    },
    {
      "inputs": [
        {
          "internalType": "address",
          "name": "spender",
          "type": "address"
        },
        {
          "internalType": "uint256",
          "name": "value",
          "type": "uint256"
        }
      ],
      "name": "approve",
      "outputs": [
        {
          "internalType": "bool",
          "name": "",
          "type": "bool"
        }
      ],
      "stateMutability": "nonpayable",
      "type": "function"
    },
    {
      "inputs": [
        {
          "internalType": "address",
          "name": "account",
          "type": "address"
        }
      ],
      "name": "balanceOf",
      "outputs": [
        {
          "internalType": "uint256",
          "name": "",
          "type": "uint256"
        }
      ],
      "stateMutability": "view",
      "type": "function"
    },
    {
      "inputs": [],
      "name": "decimals",
      "outputs": [
        {
          "internalType": "uint8",
          "name": "",
          "type": "uint8"
        }
      ],
      "stateMutability": "view",
      "type": "function"
    },
    {
      "inputs": [
        {
          "internalType": "uint256",
          "name": "amountIn",
          "type": "uint256"
        },
        {
          "internalType": "uint256",
          "name": "reserveIn",
          "type": "uint256"
        },
        {
          "internalType": "uint256",
          "name": "reserveOut",
          "type": "uint256"
        }
      ],
      "name": "getAmountOut",
      "outputs": [
        {
          "internalType": "uint256",
          "name": "amountOut",
          "type": "uint256"
        }
      ],
      "stateMutability": "pure",
      "type": "function"
    },
    {
      "inputs": [
        {
          "internalType": "address",
          "name": "tokenA",
          "type": "address"
        },
        {
          "internalType": "address",
          "name": "tokenB",
          "type": "address"
        }
      ],
      "name": "getPrice",
      "outputs": [
        {
          "internalType": "uint256",
          "name": "price",
          "type": "uint256"
        }
      ],
      "stateMutability": "view",
      "type": "function"
    },
    {
      "inputs": [
        {
          "internalType": "address",
          "name": "tokenA",
          "type": "address"
        },
        {
          "internalType": "address",
          "name": "tokenB",
          "type": "address"
        }
      ],
      "name": "getReserves",
      "outputs": [
        {
          "internalType": "uint256",
          "name": "reserveA",
          "type": "uint256"
        },
        {
          "internalType": "uint256",
          "name": "reserveB",
          "type": "uint256"
        }
      ],
      "stateMutability": "view",
      "type": "function"
    },
    {
      "inputs": [],
      "name": "name",
      "outputs": [
        {
          "internalType": "string",
          "name": "",
          "type": "string"
        }
      ],
      "stateMutability": "view",
      "type": "function"
    },
    {
      "inputs": [],
      "name": "owner",
      "outputs": [
        {
          "internalType": "address",
          "name": "",
          "type": "address"
        }
      ],
      "stateMutability": "view",
      "type": "function"
    },
    {
      "inputs": [
        {
          "internalType": "address",
          "name": "tokenA",
          "type": "address"
        },
        {
          "internalType": "address",
          "name": "tokenB",
          "type": "address"
        },
        {
          "internalType": "uint256",
          "name": "liquidity",
          "type": "uint256"
        },
        {
          "internalType": "uint256",
          "name": "amountAMin",
          "type": "uint256"
        },
        {
          "internalType": "uint256",
          "name": "amountBMin",
          "type": "uint256"
        },
        {
          "internalType": "address",
          "name": "to",
          "type": "address"
        },
        {
          "internalType": "uint256",
          "name": "deadline",
          "type": "uint256"
        }
      ],
      "name": "removeLiquidity",
      "outputs": [
        {
          "internalType": "uint256",
          "name": "amountA",
          "type": "uint256"
        },
        {
          "internalType": "uint256",
          "name": "amountB",
          "type": "uint256"
        }
      ],
      "stateMutability": "nonpayable",
      "type": "function"
    },
    {
      "inputs": [],
      "name": "renounceOwnership",
      "outputs": [],
      "stateMutability": "nonpayable",
      "type": "function"
    },
    {
      "inputs": [
        {
          "internalType": "uint256",
          "name": "amountIn",
          "type": "uint256"
        },
        {
          "internalType": "uint256",
          "name": "amountOutMin",
          "type": "uint256"
        },
        {
          "internalType": "address[]",
          "name": "path",
          "type": "address[]"
        },
        {
          "internalType": "address",
          "name": "to",
          "type": "address"
        },
        {
          "internalType": "uint256",
          "name": "deadline",
          "type": "uint256"
        }
      ],
      "name": "swapExactTokensForTokens",
      "outputs": [
        {
          "internalType": "uint256[]",
          "name": "amounts",
          "type": "uint256[]"
        }
      ],
      "stateMutability": "nonpayable",
      "type": "function"
    },
    {
      "inputs": [],
      "name": "symbol",
      "outputs": [
        {
          "internalType": "string",
          "name": "",
          "type": "string"
        }
      ],
      "stateMutability": "view",
      "type": "function"
    },
    {
      "inputs": [],
      "name": "totalSupply",
      "outputs": [
        {
          "internalType": "uint256",
          "name": "",
          "type": "uint256"
        }
      ],
      "stateMutability": "view",
      "type": "function"
    },
    {
      "inputs": [
        {
          "internalType": "address",
          "name": "to",
          "type": "address"
        },
        {
          "internalType": "uint256",
          "name": "value",
          "type": "uint256"
        }
      ],
      "name": "transfer",
      "outputs": [
        {
          "internalType": "bool",
          "name": "",
          "type": "bool"
        }
      ],
      "stateMutability": "nonpayable",
      "type": "function"
    },
    {
      "inputs": [
        {
          "internalType": "address",
          "name": "from",
          "type": "address"
        },
        {
          "internalType": "address",
          "name": "to",
          "type": "address"
        },
        {
          "internalType": "uint256",
          "name": "value",
          "type": "uint256"
        }
      ],
      "name": "transferFrom",
      "outputs": [
        {
          "internalType": "bool",
          "name": "",
          "type": "bool"
        }
      ],
      "stateMutability": "nonpayable",
      "type": "function"
    },
    {
      "inputs": [
        {
          "internalType": "address",
          "name": "newOwner",
          "type": "address"
        }
      ],
      "name": "transferOwnership",
      "outputs": [],
      "stateMutability": "nonpayable",
      "type": "function"
    }
  ],
  "bytecode": "0x608060405234801561001057600080fd5b506040516145523803806145528339818101604052810190610032919061028f565b806040518060400160405280600681526020017f546f6b656e4c00000000000000000000000000000000000000000000000000008152506040518060400160405280600381526020017f544b4c000000000000000000000000000000000000000000000000000000000081525081600390816100ae919061050c565b5080600490816100be919061050c565b505050600073ffffffffffffffffffffffffffffffffffffffff168173ffffffffffffffffffffffffffffffffffffffff16036101335760006040517f1e4fbdf700000000000000000000000000000000000000000000000000000000815260040161012a91906105ed565b60405180910390fd5b6101428161016360201b60201c565b5061015d670a52347743bd276660c01b61022960201b60201c565b50610608565b6000600560009054906101000a900473ffffffffffffffffffffffffffffffffffffffff16905081600560006101000a81548173ffffffffffffffffffffffffffffffffffffffff021916908373ffffffffffffffffffffffffffffffffffffffff1602179055508173ffffffffffffffffffffffffffffffffffffffff168173ffffffffffffffffffffffffffffffffffffffff167f8be0079c531659141344cd1fd0a4f28419497f9722a3daafe3b4186f6b6457e060405160405180910390a35050565b50565b600080fd5b600073ffffffffffffffffffffffffffffffffffffffff82169050919050565b600061025c82610231565b9050919050565b61026c81610251565b811461027757600080fd5b50565b60008151905061028981610263565b92915050565b6000602082840312156102a5576102a461022c565b5b60006102b38482850161027a565b91505092915050565b600081519050919050565b7f4e487b7100000000000000000000000000000000000000000000000000000000600052604160045260246000fd5b7f4e487b7100000000000000000000000000000000000000000000000000000000600052602260045260246000fd5b6000600282049050600182168061033d57607f821691505b6020821081036103505761034f6102f6565b5b50919050565b60008190508160005260206000209050919050565b60006020601f8301049050919050565b600082821b905092915050565b6000600883026103b87fffffffffffffffffffffffffffffffffffffffffffffffffffffffffffffffff8261037b565b6103c2868361037b565b95508019841693508086168417925050509392505050565b6000819050919050565b6000819050919050565b60006104096104046103ff846103da565b6103e4565b6103da565b9050919050565b6000819050919050565b610423836103ee565b61043761042f82610410565b848454610388565b825550505050565b600090565b61044c61043f565b61045781848461041a565b505050565b5b8181101561047b57610470600082610444565b60018101905061045d565b5050565b601f8211156104c05761049181610356565b61049a8461036b565b810160208510156104a9578190505b6104bd6104b58561036b565b83018261045c565b50505b505050565b600082821c905092915050565b60006104e3600019846008026104c5565b1980831691505092915050565b60006104fc83836104d2565b9150826002028217905092915050565b610515826102bc565b67ffffffffffffffff81111561052e5761052d6102c7565b5b6105388254610325565b61054382828561047f565b600060209050601f8311600181146105765760008415610564578287015190505b61056e85826104f0565b8655506105d6565b601f19841661058486610356565b60005b828110156105ac57848901518255600182019150602085019450602081019050610587565b868310156105c957848901516105c5601f8916826104d2565b8355505b6001600288020188555050505b505050505050565b6105e781610251565b82525050565b600060208201905061060260008301846105de565b92915050565b613f3b806106176000396000f3fe608060405234801561001057600080fd5b50600436106101165760003560e01c80638da5cb5b116100a2578063baa2abde11610071578063baa2abde1461030b578063d52bb6f41461033c578063dd62ed3e1461036d578063e8e337001461039d578063f2fde38b146103cf57610116565b80638da5cb5b1461026f57806395d89b411461028d578063a9059cbb146102ab578063ac41865a146102db57610116565b806323b872dd116100e957806323b872dd146101b7578063313ce567146101e757806338ed17391461020557806370a0823114610235578063715018a61461026557610116565b8063054d50d41461011b57806306fdde031461014b578063095ea7b31461016957806318160ddd14610199575b600080fd5b61013560048036038101906101309190612f7b565b6103eb565b6040516101429190612fdd565b60405180910390f35b610153610429565b6040516101609190613088565b60405180910390f35b610183600480360381019061017e9190613108565b6104bb565b6040516101909190613163565b60405180910390f35b6101a16104de565b6040516101ae9190612fdd565b60405180910390f35b6101d160048036038101906101cc919061317e565b6104e8565b6040516101de9190613163565b60405180910390f35b6101ef610517565b6040516101fc91906131ed565b60405180910390f35b61021f600480360381019061021a919061326d565b610520565b60405161022c91906133c5565b60405180910390f35b61024f600480360381019061024a91906133e7565b610b46565b60405161025c9190612fdd565b60405180910390f35b61026d610b8e565b005b610277610ba2565b6040516102849190613423565b60405180910390f35b610295610bcc565b6040516102a29190613088565b60405180910390f35b6102c560048036038101906102c09190613108565b610c5e565b6040516102d29190613163565b60405180910390f35b6102f560048036038101906102f0919061343e565b610c81565b6040516103029190612fdd565b60405180910390f35b6103256004803603810190610320919061347e565b610da0565b604051610333929190613520565b60405180910390f35b6103566004803603810190610351919061343e565b611210565b604051610364929190613520565b60405180910390f35b6103876004803603810190610382919061343e565b611254565b6040516103949190612fdd565b60405180910390f35b6103b760048036038101906103b29190613549565b6112db565b6040516103c6939291906135ff565b60405180910390f35b6103e960048036038101906103e491906133e7565b6115ea565b005b6000610401670c9093450d2b0d5260c01b611670565b61041567a0cf65e232fedec960c01b611670565b610420848484611673565b90509392505050565b60606003805461043890613665565b80601f016020809104026020016040519081016040528092919081815260200182805461046490613665565b80156104b15780601f10610486576101008083540402835291602001916104b1565b820191906000526020600020905b81548152906001019060200180831161049457829003601f168201915b5050505050905090565b6000806104c66117fa565b90506104d3818585611802565b600191505092915050565b6000600254905090565b6000806104f36117fa565b9050610500858285611814565b61050b8585856118a9565b60019150509392505050565b60006012905090565b6060610536674ca16099319cb3ab60c01b611670565b61054a6717b1ee6aee6f79b460c01b611670565b61055e67abffa5e74abe543a60c01b611670565b61057267af4a414925b0acea60c01b611670565b814211156105b5576040517f08c379a00000000000000000000000000000000000000000000000000000000081526004016105ac906136e2565b60405180910390fd5b6105c9673c4331c7b7516d9960c01b611670565b6105dd672cfa1ba2227765d760c01b611670565b6105f16735cc557c8841e36860c01b611670565b61060567e924d522820f6b9a60c01b611670565b6002858590501461064b576040517f08c379a00000000000000000000000000000000000000000000000000000000081526004016106429061374e565b60405180910390fd5b61065f671777cabb58d1d20f60c01b611670565b61067367c16f82d4ccc0ea3c60c01b611670565b61068767786779facfba39c660c01b611670565b60008585600081811061069d5761069c61376e565b5b90506020020160208101906106b291906133e7565b90506106c867aefc308c8944016460c01b611670565b6106dc679ba4048c89bdfac460c01b611670565b6000868660018181106106f2576106f161376e565b5b905060200201602081019061070791906133e7565b905061071d67d18c2c4b6de989ca60c01b611670565b61073167eb5b67958e25003e60c01b611670565b60008061073e848461199d565b91509150610756677edf24413eb06db360c01b611670565b61076a67f0894da35f622fa960c01b611670565b61077e6708917496b53e2bf260c01b611670565b60008211801561078e5750600081115b6107cd576040517f08c379a00000000000000000000000000000000000000000000000000000000081526004016107c4906137e9565b60405180910390fd5b6107e167c5b09c2f976cd4cb60c01b611670565b6107f567f51a660f718a803960c01b611670565b6108096736aaf519cfc4a12960c01b611670565b60006108168c8484611673565b905061082c6713d16b97e71f4c6560c01b611670565b61084067a7cc272b907314d760c01b611670565b610854676021435077f3402060c01b611670565b8a811015610897576040517f08c379a000000000000000000000000000000000000000000000000000000000815260040161088e90613855565b60405180910390fd5b6108ab678a09afaa1a55af1b60c01b611670565b6108bf67c4a719d5a98b009160c01b611670565b6108d367dddcf8d74eefcbea60c01b611670565b8473ffffffffffffffffffffffffffffffffffffffff166323b872dd33308f6040518463ffffffff1660e01b815260040161091093929190613875565b6020604051808303816000875af115801561092f573d6000803e3d6000fd5b505050506040513d601f19601f8201168201806040525081019061095391906138d8565b50610968670b3c157f4e37a55860c01b611670565b61097c6733ab110af976721e60c01b611670565b8373ffffffffffffffffffffffffffffffffffffffff1663a9059cbb89836040518363ffffffff1660e01b81526004016109b7929190613905565b6020604051808303816000875af11580156109d6573d6000803e3d6000fd5b505050506040513d601f19601f820116820180604052508101906109fa91906138d8565b50610a0f6790ad27796247f1df60c01b611670565b610a2367759993905f04ef9e60c01b611670565b610a4585858e86610a34919061395d565b8486610a409190613991565b611b5e565b610a5967d381a7964e070f4460c01b611670565b600267ffffffffffffffff811115610a7457610a736139c5565b5b604051908082528060200260200182016040528015610aa25781602001602082028036833780820191505090505b509550610ab9679f2911ad4e2437e860c01b611670565b8b86600081518110610ace57610acd61376e565b5b602002602001018181525050610aee671e3818e84646e8a660c01b611670565b8086600181518110610b0357610b0261376e565b5b602002602001018181525050610b2367d1de7e278450da9a60c01b611670565b610b37670d9a0cc919df487d60c01b611670565b50505050509695505050505050565b60008060008373ffffffffffffffffffffffffffffffffffffffff1673ffffffffffffffffffffffffffffffffffffffff168152602001908152602001600020549050919050565b610b96611e8d565b610ba06000611f14565b565b6000600560009054906101000a900473ffffffffffffffffffffffffffffffffffffffff16905090565b606060048054610bdb90613665565b80601f0160208091040260200160405190810160405280929190818152602001828054610c0790613665565b8015610c545780601f10610c2957610100808354040283529160200191610c54565b820191906000526020600020905b815481529060010190602001808311610c3757829003601f168201915b5050505050905090565b600080610c696117fa565b9050610c768185856118a9565b600191505092915050565b6000610c9767d88fbbbaaba024f560c01b611670565b610cab673fb42aec58bdb8e860c01b611670565b610cbf670b6567c9f8dcb13360c01b611670565b600080610ccc858561199d565b91509150610ce4677da4d3f919bbe3a260c01b611670565b610cf8679820171e454ddc6460c01b611670565b610d0c6732c3a675bf18956760c01b611670565b60008211610d4f576040517f08c379a0000000000000000000000000000000000000000000000000000000008152600401610d4690613a40565b60405180910390fd5b610d63674e9eda429da158e960c01b611670565b610d7767ab8cf7cd311f6cb760c01b611670565b81670de0b6b3a764000082610d8c9190613a60565b610d969190613ad1565b9250505092915050565b600080610db767add03cf678052a0e60c01b611670565b610dcb67ff1abbee0882bdd560c01b611670565b610ddf676fc747dc5e663edc60c01b611670565b610df367d27c4d7e737fbde060c01b611670565b82421115610e36576040517f08c379a0000000000000000000000000000000000000000000000000000000008152600401610e2d906136e2565b60405180910390fd5b610e4a67311393f5876b8d2660c01b611670565b610e5e67b81cf0bf87644a5060c01b611670565b610e72679d27a7c01a6b50cd60c01b611670565b6000610e7c6104de565b9050610e92674d3d6321844a7e3160c01b611670565b610ea66763468648ca9e03c760c01b611670565b600080610eb38c8c61199d565b91509150610ecb67eca1493204d2ff7360c01b611670565b82828b610ed89190613a60565b610ee29190613ad1565b9450610ef867f3f284b4984e4a9860c01b611670565b82818b610f059190613a60565b610f0f9190613ad1565b9350610f2567ef565586b0d3da9560c01b611670565b610f396727fd4b145124a16960c01b611670565b610f4d67f4b8b60d4fac4d6a60c01b611670565b88851015610f90576040517f08c379a0000000000000000000000000000000000000000000000000000000008152600401610f8790613b4e565b60405180910390fd5b610fa467b5e473d50f36127560c01b611670565b610fb867bfc70046e22253e960c01b611670565b610fcc67b6f0d56a5f9234d460c01b611670565b610fe067fc40a74a7d0033e960c01b611670565b87841015611023576040517f08c379a000000000000000000000000000000000000000000000000000000000815260040161101a90613bba565b60405180910390fd5b61103767c48994153aa9951d60c01b611670565b61104b67657bcfc07eca335560c01b611670565b61105f67d622b2ff9cd783fa60c01b611670565b611069338b611fda565b61107d67d455b9c89f03506460c01b611670565b611091671b29aee6ae59e0fd60c01b611670565b8b73ffffffffffffffffffffffffffffffffffffffff1663a9059cbb88876040518363ffffffff1660e01b81526004016110cc929190613905565b6020604051808303816000875af11580156110eb573d6000803e3d6000fd5b505050506040513d601f19601f8201168201806040525081019061110f91906138d8565b5061112467e77dd8c15cbcf54a60c01b611670565b61113867768659b5ff79c85a60c01b611670565b8a73ffffffffffffffffffffffffffffffffffffffff1663a9059cbb88866040518363ffffffff1660e01b8152600401611173929190613905565b6020604051808303816000875af1158015611192573d6000803e3d6000fd5b505050506040513d601f19601f820116820180604052508101906111b691906138d8565b506111cb6785649cea0940f13560c01b611670565b6111df677087b6568e848ccf60c01b611670565b6112018c8c87856111f09190613991565b87856111fc9190613991565b611b5e565b50505097509795505050505050565b600080611227679bb953977a17c69360c01b611670565b61123b672f4a69dcf62783b360c01b611670565b611245848461199d565b80925081935050509250929050565b6000600160008473ffffffffffffffffffffffffffffffffffffffff1673ffffffffffffffffffffffffffffffffffffffff16815260200190815260200160002060008373ffffffffffffffffffffffffffffffffffffffff1673ffffffffffffffffffffffffffffffffffffffff16815260200190815260200160002054905092915050565b60008060006112f4675bbd07102b941c8a60c01b611670565b61130867b5ee6e9fe732003f60c01b611670565b61131c6770fa3f85e2b06dc660c01b611670565b611330678bb2f5effbee921860c01b611670565b83421115611373576040517f08c379a000000000000000000000000000000000000000000000000000000000815260040161136a906136e2565b60405180910390fd5b61138767c169248d6097030060c01b611670565b61139b67c3f8ce2a74a8892f60c01b611670565b6113af67dd131f42ace567ec60c01b611670565b6000806113bc8d8d61199d565b915091506113d467bea7481a52519a0560c01b611670565b6113e282828d8d8d8d61205c565b80955081965050506113fe6726d6322c9ffae04b60c01b611670565b61141267bd7103d4331e748a60c01b611670565b8c73ffffffffffffffffffffffffffffffffffffffff166323b872dd3330886040518463ffffffff1660e01b815260040161144f93929190613875565b6020604051808303816000875af115801561146e573d6000803e3d6000fd5b505050506040513d601f19601f8201168201806040525081019061149291906138d8565b506114a767e81ee442aa8c908460c01b611670565b6114bb6740448dd2d43bf5ac60c01b611670565b8b73ffffffffffffffffffffffffffffffffffffffff166323b872dd3330876040518463ffffffff1660e01b81526004016114f893929190613875565b6020604051808303816000875af1158015611517573d6000803e3d6000fd5b505050506040513d601f19601f8201168201806040525081019061153b91906138d8565b5061155067a1ca42f3b4324d4a60c01b611670565b61155c8585848461237e565b925061157267b1482f3b5f6f9e6a60c01b611670565b611586675616fb73c3e4b7ad60c01b611670565b611590878461266f565b6115a4678a7f2cd7c381ec8460c01b611670565b6115b867fee4561b08b7381c60c01b611670565b6115da8d8d87856115c9919061395d565b87856115d5919061395d565b611b5e565b5050985098509895505050505050565b6115f2611e8d565b600073ffffffffffffffffffffffffffffffffffffffff168173ffffffffffffffffffffffffffffffffffffffff16036116645760006040517f1e4fbdf700000000000000000000000000000000000000000000000000000000815260040161165b9190613423565b60405180910390fd5b61166d81611f14565b50565b50565b600061168967f1570bfd6bb6fa9f60c01b611670565b61169d67e65f1e5a1bb3eed260c01b611670565b6116b1678ceee8d6d24e5f6a60c01b611670565b6116c5679f114b78bcea1c5460c01b611670565b60008411611708576040517f08c379a00000000000000000000000000000000000000000000000000000000081526004016116ff90613c26565b60405180910390fd5b61171c67b030215e6b65cbd060c01b611670565b611730678424b3dfa11f11f560c01b611670565b61174467bbe036f10e60db5760c01b611670565b61175867bd49468d1d93d2b360c01b611670565b6000831180156117685750600082115b6117a7576040517f08c379a000000000000000000000000000000000000000000000000000000000815260040161179e90613c92565b60405180910390fd5b6117bb67da000bee24be68ca60c01b611670565b6117cf6715f04d23eb998c2b60c01b611670565b83836117db919061395d565b82856117e79190613a60565b6117f19190613ad1565b90509392505050565b600033905090565b61180f83838360016126f1565b505050565b60006118208484611254565b90507fffffffffffffffffffffffffffffffffffffffffffffffffffffffffffffffff8110156118a35781811015611893578281836040517ffb8f41b200000000000000000000000000000000000000000000000000000000815260040161188a93929190613cb2565b60405180910390fd5b6118a2848484840360006126f1565b5b50505050565b600073ffffffffffffffffffffffffffffffffffffffff168373ffffffffffffffffffffffffffffffffffffffff160361191b5760006040517f96c6fd1e0000000000000000000000000000000000000000000000000000000081526004016119129190613423565b60405180910390fd5b600073ffffffffffffffffffffffffffffffffffffffff168273ffffffffffffffffffffffffffffffffffffffff160361198d5760006040517fec442f050000000000000000000000000000000000000000000000000000000081526004016119849190613423565b60405180910390fd5b6119988383836128c8565b505050565b6000806119b4674ba760de071f0d4060c01b611670565b6119c867cea83a38baf11a7e60c01b611670565b6119dc6771f013d3976b227960c01b611670565b6000806119e98686612aed565b91509150611a016718751d81856420b460c01b611670565b611a156746a77fe8eb92f68560c01b611670565b6000600660008473ffffffffffffffffffffffffffffffffffffffff1673ffffffffffffffffffffffffffffffffffffffff16815260200190815260200160002060008373ffffffffffffffffffffffffffffffffffffffff1673ffffffffffffffffffffffffffffffffffffffff168152602001908152602001600020604051806040016040529081600082015481526020016001820154815250509050611ac867cbdf660c7bc2c3f060c01b611670565b8273ffffffffffffffffffffffffffffffffffffffff168773ffffffffffffffffffffffffffffffffffffffff161480611b125750611b11679248b4780d26ac3760c01b612d52565b5b8015611b2e5750611b2d67041da01aff9264e060c01b612d59565b5b611b415780602001518160000151611b4c565b806000015181602001515b80955081965050505050509250929050565b611b72677f2cdb76c65e8cc260c01b611670565b611b8667870a3d6d89e0c23c60c01b611670565b611b9a674808fa9a2de20ffb60c01b611670565b600080611ba78686612aed565b91509150611bbf67ef80e240b57be2ae60c01b611670565b611bd36702e7543c99efe0bc60c01b611670565b6000600660008473ffffffffffffffffffffffffffffffffffffffff1673ffffffffffffffffffffffffffffffffffffffff16815260200190815260200160002060008373ffffffffffffffffffffffffffffffffffffffff1673ffffffffffffffffffffffffffffffffffffffff1681526020019081526020016000209050611c676774d1fa9f11873b8b60c01b611670565b611c7b67e07fadd242341abe60c01b611670565b8273ffffffffffffffffffffffffffffffffffffffff168773ffffffffffffffffffffffffffffffffffffffff1603611d9b57611cc267892326cb3846e2e860c01b611670565b611cd667304f927d49a1787460c01b611670565b611cea67787b84b384b2766c60c01b611670565b84816000015414611d1757611d09677fc92963979b197860c01b611670565b848160000181905550611d2c565b611d2b67f68204c965293df960c01b611670565b5b611d4067f2f21f1e8a0cd1cb60c01b611670565b611d54672afb5f224fcc234460c01b611670565b83816001015414611d8157611d7367fb36b127ba4c473160c01b611670565b838160010181905550611d96565b611d95679d5d2beeb530b48c60c01b611670565b5b611e84565b611daf6722098fc09589244660c01b611670565b611dc367a0afb53ba6549c5f60c01b611670565b611dd76770023d4e20d8010960c01b611670565b83816000015414611e0457611df667f1724f6606db4c6460c01b611670565b838160000181905550611e19565b611e1867ecfb05b46c9e441760c01b611670565b5b611e2d678a2c3ff4ed5d66a160c01b611670565b611e416740ae594cb04fd07a60c01b611670565b84816001015414611e6e57611e6067420fb83ed06b000760c01b611670565b848160010181905550611e83565b611e82678a3b24d9df75383c60c01b611670565b5b5b50505050505050565b611e956117fa565b73ffffffffffffffffffffffffffffffffffffffff16611eb3610ba2565b73ffffffffffffffffffffffffffffffffffffffff1614611f1257611ed66117fa565b6040517f118cdaa7000000000000000000000000000000000000000000000000000000008152600401611f099190613423565b60405180910390fd5b565b6000600560009054906101000a900473ffffffffffffffffffffffffffffffffffffffff16905081600560006101000a81548173ffffffffffffffffffffffffffffffffffffffff021916908373ffffffffffffffffffffffffffffffffffffffff1602179055508173ffffffffffffffffffffffffffffffffffffffff168173ffffffffffffffffffffffffffffffffffffffff167f8be0079c531659141344cd1fd0a4f28419497f9722a3daafe3b4186f6b6457e060405160405180910390a35050565b600073ffffffffffffffffffffffffffffffffffffffff168273ffffffffffffffffffffffffffffffffffffffff160361204c5760006040517f96c6fd1e0000000000000000000000000000000000000000000000000000000081526004016120439190613423565b60405180910390fd5b612058826000836128c8565b5050565b60008061207367d749f35b2fec12af60c01b611670565b612087679c36740a954bee6c60c01b611670565b61209b670baa73133cea173360c01b611670565b6000881480156120ab5750600087145b156120f7576120c4670cc8952a2236dc3e60c01b611670565b6120d86723170d4f17bd968860c01b611670565b6120ec677ab294740d5ab5fd60c01b611670565b858591509150612373565b61210b6753a74809daf6127660c01b611670565b61211f670f1994b7df5cac5860c01b611670565b612133675acf2b1c29ac25c260c01b611670565b60008888886121429190613a60565b61214c9190613ad1565b905061216267888b74499b8e821960c01b611670565b61217667bb171acee317e75b60c01b611670565b858111612258576121916729d40913dca2d5e160c01b611670565b6121a567f8f4b4a6c22ed8ef60c01b611670565b6121b967560642260b4d052260c01b611670565b6121cd6719c11993bc3b3ea660c01b611670565b83811015612210576040517f08c379a000000000000000000000000000000000000000000000000000000000815260040161220790613d35565b60405180910390fd5b612224679992c7d61c4ad71860c01b611670565b61223867bc9637686825026460c01b611670565b61224c6756073432a9ef3e5560c01b611670565b86819250925050612373565b61226c67f36ac8ffa69ffbb160c01b611670565b612280675789b8adf13e714960c01b611670565b612294675f41ede06b35169960c01b611670565b6000888a886122a39190613a60565b6122ad9190613ad1565b90506122c367ef3a5325b25f6d8960c01b611670565b6122d767853beb2c6fe49ee860c01b611670565b6122eb67bbfa0b11eb45daaa60c01b611670565b8581101561232e576040517f08c379a000000000000000000000000000000000000000000000000000000000815260040161232590613da1565b60405180910390fd5b612342672012105651ed481960c01b611670565b61235667507c02acc0a2b0e860c01b611670565b61236a67103bc92cb31c6aa360c01b611670565b80879350935050505b965096945050505050565b6000612394673f11aef4d17fdfe560c01b611670565b6123a8679ff201bf5319ffcf60c01b611670565b6123bc67faa769b8c9e227ec60c01b611670565b60006123c66104de565b90506123dc6741ab6919e942562660c01b611670565b6123f0677860bd018b32432760c01b611670565b6000810361243b5761240c67513f2e785dcb9e4a60c01b611670565b61242067d9394fe2d2af3fc460c01b611670565b612434858761242f9190613a60565b612d64565b91506125d3565b61244f67560ee63455522a0b60c01b611670565b612463671beb57307f6d560e60c01b611670565b612477671fc990ba8e0b7ab060c01b611670565b61248b677aa963da995335eb60c01b611670565b60008411801561249b5750600083115b6124da576040517f08c379a00000000000000000000000000000000000000000000000000000000081526004016124d190613c92565b60405180910390fd5b6124ee67fe6bc342232ff51c60c01b611670565b61250267d4525431c5ea0e4060c01b611670565b6125166740750dd72df8eaee60c01b611670565b60008482886125259190613a60565b61252f9190613ad1565b905061254567ae347648082f3d9560c01b611670565b61255967e42842c190b331d560c01b611670565b60008483886125689190613a60565b6125729190613ad1565b905061258867599fcc97ed24d35060c01b611670565b808210806125a657506125a567c47ffda81d9d8e2160c01b612d52565b5b80156125c257506125c16763b394533b1e70e860c01b612d59565b5b6125cc57806125ce565b815b935050505b6125e76726eb697568554d8360c01b611670565b6125fb67af6e65cfade8537960c01b611670565b61260f673c3006dbd69c9edc60c01b611670565b60008211612652576040517f08c379a000000000000000000000000000000000000000000000000000000000815260040161264990613e0d565b60405180910390fd5b6126666760918f7e64834abf60c01b611670565b50949350505050565b600073ffffffffffffffffffffffffffffffffffffffff168273ffffffffffffffffffffffffffffffffffffffff16036126e15760006040517fec442f050000000000000000000000000000000000000000000000000000000081526004016126d89190613423565b60405180910390fd5b6126ed600083836128c8565b5050565b600073ffffffffffffffffffffffffffffffffffffffff168473ffffffffffffffffffffffffffffffffffffffff16036127635760006040517fe602df0500000000000000000000000000000000000000000000000000000000815260040161275a9190613423565b60405180910390fd5b600073ffffffffffffffffffffffffffffffffffffffff168373ffffffffffffffffffffffffffffffffffffffff16036127d55760006040517f94280d620000000000000000000000000000000000000000000000000000000081526004016127cc9190613423565b60405180910390fd5b81600160008673ffffffffffffffffffffffffffffffffffffffff1673ffffffffffffffffffffffffffffffffffffffff16815260200190815260200160002060008573ffffffffffffffffffffffffffffffffffffffff1673ffffffffffffffffffffffffffffffffffffffff1681526020019081526020016000208190555080156128c2578273ffffffffffffffffffffffffffffffffffffffff168473ffffffffffffffffffffffffffffffffffffffff167f8c5be1e5ebec7d5bd14f71427d1e84f3dd0314c0f7b2291e5b200ac8c7c3b925846040516128b99190612fdd565b60405180910390a35b50505050565b600073ffffffffffffffffffffffffffffffffffffffff168373ffffffffffffffffffffffffffffffffffffffff160361291a57806002600082825461290e919061395d565b925050819055506129ed565b60008060008573ffffffffffffffffffffffffffffffffffffffff1673ffffffffffffffffffffffffffffffffffffffff168152602001908152602001600020549050818110156129a6578381836040517fe450d38c00000000000000000000000000000000000000000000000000000000815260040161299d93929190613cb2565b60405180910390fd5b8181036000808673ffffffffffffffffffffffffffffffffffffffff1673ffffffffffffffffffffffffffffffffffffffff16815260200190815260200160002081905550505b600073ffffffffffffffffffffffffffffffffffffffff168273ffffffffffffffffffffffffffffffffffffffff1603612a365780600260008282540392505081905550612a83565b806000808473ffffffffffffffffffffffffffffffffffffffff1673ffffffffffffffffffffffffffffffffffffffff168152602001908152602001600020600082825401925050819055505b8173ffffffffffffffffffffffffffffffffffffffff168373ffffffffffffffffffffffffffffffffffffffff167fddf252ad1be2c89b69c2b068fc378daa952ba7f163c4a11628f55a4df523b3ef83604051612ae09190612fdd565b60405180910390a3505050565b600080612b046798028e1d05f4a22560c01b611670565b612b1867491f9cb31127d7f360c01b611670565b612b2c67a27d89e49575cd3060c01b611670565b612b40670322cda63bdde65760c01b611670565b8273ffffffffffffffffffffffffffffffffffffffff168473ffffffffffffffffffffffffffffffffffffffff1603612bae576040517f08c379a0000000000000000000000000000000000000000000000000000000008152600401612ba590613e79565b60405180910390fd5b612bc2679508c9814a1b679460c01b611670565b612bd667d5fa7946ac43315460c01b611670565b612bea671d73680d7945fb0960c01b611670565b612bfe67b0944a50295e4b8160c01b611670565b600073ffffffffffffffffffffffffffffffffffffffff168473ffffffffffffffffffffffffffffffffffffffff1614158015612c685750600073ffffffffffffffffffffffffffffffffffffffff168373ffffffffffffffffffffffffffffffffffffffff1614155b612ca7576040517f08c379a0000000000000000000000000000000000000000000000000000000008152600401612c9e90613ee5565b60405180910390fd5b612cbb67ffc6c97f54f370a560c01b611670565b612ccf67057212c6f9ae45c060c01b611670565b8273ffffffffffffffffffffffffffffffffffffffff168473ffffffffffffffffffffffffffffffffffffffff161080612d195750612d18670baba433c456a8ef60c01b612d52565b5b8015612d355750612d34674ea8e2ed9c55ad9a60c01b612d59565b5b612d40578284612d43565b83835b80925081935050509250929050565b6000919050565b600060019050919050565b6000612d7a6784fef24dfb92e7d760c01b611670565b612d8e679c823c520de8792660c01b611670565b612da26741ce3a5312e94c4f60c01b611670565b6003821115612ea757612dbf6756953b04f1a8c8c260c01b611670565b612dd367fb95ad0b7d1543d160c01b611670565b819050612dea670fed7c7aea9cc71060c01b611670565b612dfe6743a0dafe8d64a51760c01b611670565b60006001600284612e0f9190613ad1565b612e19919061395d565b9050612e2f67c454eda00dbcd5c860c01b611670565b612e436781f542c0b9f8472460c01b611670565b5b81811015612ea157612e606783d6dc0c4b468eeb60c01b611670565b809150612e776742424d93be50847560c01b611670565b6002818285612e869190613ad1565b612e90919061395d565b612e9a9190613ad1565b9050612e44565b50612f36565b612ebb676ce0d885b338934060c01b611670565b612ecf6734eb2539e16149e160c01b611670565b60008214612f0857612eeb678ec0f184431412ef60c01b611670565b612eff6724e9755dd18d3cef60c01b611670565b60019050612f35565b612f1c67155cfc702403175f60c01b611670565b612f30670ba2b9dbb5c3db4360c01b611670565b600090505b5b919050565b600080fd5b600080fd5b6000819050919050565b612f5881612f45565b8114612f6357600080fd5b50565b600081359050612f7581612f4f565b92915050565b600080600060608486031215612f9457612f93612f3b565b5b6000612fa286828701612f66565b9350506020612fb386828701612f66565b9250506040612fc486828701612f66565b9150509250925092565b612fd781612f45565b82525050565b6000602082019050612ff26000830184612fce565b92915050565b600081519050919050565b600082825260208201905092915050565b60005b83811015613032578082015181840152602081019050613017565b60008484015250505050565b6000601f19601f8301169050919050565b600061305a82612ff8565b6130648185613003565b9350613074818560208601613014565b61307d8161303e565b840191505092915050565b600060208201905081810360008301526130a2818461304f565b905092915050565b600073ffffffffffffffffffffffffffffffffffffffff82169050919050565b60006130d5826130aa565b9050919050565b6130e5816130ca565b81146130f057600080fd5b50565b600081359050613102816130dc565b92915050565b6000806040838503121561311f5761311e612f3b565b5b600061312d858286016130f3565b925050602061313e85828601612f66565b9150509250929050565b60008115159050919050565b61315d81613148565b82525050565b60006020820190506131786000830184613154565b92915050565b60008060006060848603121561319757613196612f3b565b5b60006131a5868287016130f3565b93505060206131b6868287016130f3565b92505060406131c786828701612f66565b9150509250925092565b600060ff82169050919050565b6131e7816131d1565b82525050565b600060208201905061320260008301846131de565b92915050565b600080fd5b600080fd5b600080fd5b60008083601f84011261322d5761322c613208565b5b8235905067ffffffffffffffff81111561324a5761324961320d565b5b60208301915083602082028301111561326657613265613212565b5b9250929050565b60008060008060008060a0878903121561328a57613289612f3b565b5b600061329889828a01612f66565b96505060206132a989828a01612f66565b955050604087013567ffffffffffffffff8111156132ca576132c9612f40565b5b6132d689828a01613217565b945094505060606132e989828a016130f3565b92505060806132fa89828a01612f66565b9150509295509295509295565b600081519050919050565b600082825260208201905092915050565b6000819050602082019050919050565b61333c81612f45565b82525050565b600061334e8383613333565b60208301905092915050565b6000602082019050919050565b600061337282613307565b61337c8185613312565b935061338783613323565b8060005b838110156133b857815161339f8882613342565b97506133aa8361335a565b92505060018101905061338b565b5085935050505092915050565b600060208201905081810360008301526133df8184613367565b905092915050565b6000602082840312156133fd576133fc612f3b565b5b600061340b848285016130f3565b91505092915050565b61341d816130ca565b82525050565b60006020820190506134386000830184613414565b92915050565b6000806040838503121561345557613454612f3b565b5b6000613463858286016130f3565b9250506020613474858286016130f3565b9150509250929050565b600080600080600080600060e0888a03121561349d5761349c612f3b565b5b60006134ab8a828b016130f3565b97505060206134bc8a828b016130f3565b96505060406134cd8a828b01612f66565b95505060606134de8a828b01612f66565b94505060806134ef8a828b01612f66565b93505060a06135008a828b016130f3565b92505060c06135118a828b01612f66565b91505092959891949750929550565b60006040820190506135356000830185612fce565b6135426020830184612fce565b9392505050565b600080600080600080600080610100898b03121561356a57613569612f3b565b5b60006135788b828c016130f3565b98505060206135898b828c016130f3565b975050604061359a8b828c01612f66565b96505060606135ab8b828c01612f66565b95505060806135bc8b828c01612f66565b94505060a06135cd8b828c01612f66565b93505060c06135de8b828c016130f3565b92505060e06135ef8b828c01612f66565b9150509295985092959890939650565b60006060820190506136146000830186612fce565b6136216020830185612fce565b61362e6040830184612fce565b949350505050565b7f4e487b7100000000000000000000000000000000000000000000000000000000600052602260045260246000fd5b6000600282049050600182168061367d57607f821691505b6020821081036136905761368f613636565b5b50919050565b7f446561646c696e65206578706972656400000000000000000000000000000000600082015250565b60006136cc601083613003565b91506136d782613696565b602082019050919050565b600060208201905081810360008301526136fb816136bf565b9050919050565b7f4f6e6c7920312d7374657020737761707320737570706f727465640000000000600082015250565b6000613738601b83613003565b915061374382613702565b602082019050919050565b600060208201905081810360008301526137678161372b565b9050919050565b7f4e487b7100000000000000000000000000000000000000000000000000000000600052603260045260246000fd5b7f4e6f206c69717569646974790000000000000000000000000000000000000000600082015250565b60006137d3600c83613003565b91506137de8261379d565b602082019050919050565b60006020820190508181036000830152613802816137c6565b9050919050565b7f496e73756666696369656e74206f757470757420616d6f756e74000000000000600082015250565b600061383f601a83613003565b915061384a82613809565b602082019050919050565b6000602082019050818103600083015261386e81613832565b9050919050565b600060608201905061388a6000830186613414565b6138976020830185613414565b6138a46040830184612fce565b949350505050565b6138b581613148565b81146138c057600080fd5b50565b6000815190506138d2816138ac565b92915050565b6000602082840312156138ee576138ed612f3b565b5b60006138fc848285016138c3565b91505092915050565b600060408201905061391a6000830185613414565b6139276020830184612fce565b9392505050565b7f4e487b7100000000000000000000000000000000000000000000000000000000600052601160045260246000fd5b600061396882612f45565b915061397383612f45565b925082820190508082111561398b5761398a61392e565b5b92915050565b600061399c82612f45565b91506139a783612f45565b92508282039050818111156139bf576139be61392e565b5b92915050565b7f4e487b7100000000000000000000000000000000000000000000000000000000600052604160045260246000fd5b7f4e6f206c697175696469747920666f7220746f6b656e41000000000000000000600082015250565b6000613a2a601783613003565b9150613a35826139f4565b602082019050919050565b60006020820190508181036000830152613a5981613a1d565b9050919050565b6000613a6b82612f45565b9150613a7683612f45565b9250828202613a8481612f45565b91508282048414831517613a9b57613a9a61392e565b5b5092915050565b7f4e487b7100000000000000000000000000000000000000000000000000000000600052601260045260246000fd5b6000613adc82612f45565b9150613ae783612f45565b925082613af757613af6613aa2565b5b828204905092915050565b7f4d696e204120616d6f756e74206e6f74206d6574000000000000000000000000600082015250565b6000613b38601483613003565b9150613b4382613b02565b602082019050919050565b60006020820190508181036000830152613b6781613b2b565b9050919050565b7f4d696e204220616d6f756e74206e6f74206d6574000000000000000000000000600082015250565b6000613ba4601483613003565b9150613baf82613b6e565b602082019050919050565b60006020820190508181036000830152613bd381613b97565b9050919050565b7f416d6f756e74206d757374206265203e20300000000000000000000000000000600082015250565b6000613c10601283613003565b9150613c1b82613bda565b602082019050919050565b60006020820190508181036000830152613c3f81613c03565b9050919050565b7f496e76616c696420726573657276657300000000000000000000000000000000600082015250565b6000613c7c601083613003565b9150613c8782613c46565b602082019050919050565b60006020820190508181036000830152613cab81613c6f565b9050919050565b6000606082019050613cc76000830186613414565b613cd46020830185612fce565b613ce16040830184612fce565b949350505050565b7f496e73756666696369656e7420616d6f756e7442000000000000000000000000600082015250565b6000613d1f601483613003565b9150613d2a82613ce9565b602082019050919050565b60006020820190508181036000830152613d4e81613d12565b9050919050565b7f496e73756666696369656e7420616d6f756e7441000000000000000000000000600082015250565b6000613d8b601483613003565b9150613d9682613d55565b602082019050919050565b60006020820190508181036000830152613dba81613d7e565b9050919050565b7f496e73756666696369656e74206c6971756964697479206d696e746564000000600082015250565b6000613df7601d83613003565b9150613e0282613dc1565b602082019050919050565b60006020820190508181036000830152613e2681613dea565b9050919050565b7f4964656e746963616c20746f6b656e2061646472657373657300000000000000600082015250565b6000613e63601983613003565b9150613e6e82613e2d565b602082019050919050565b60006020820190508181036000830152613e9281613e56565b9050919050565b7f5a65726f2061646472657373206e6f7420616c6c6f7765640000000000000000600082015250565b6000613ecf601883613003565b9150613eda82613e99565b602082019050919050565b60006020820190508181036000830152613efe81613ec2565b905091905056fea264697066735822122073ce9d1edc6d7fb23e308af7db3243072497f3f29665574d6274647d28d134bd64736f6c634300081c0033",
  "linkReferences": {},
  "deployedLinkReferences": {}
}