{"contracts/SimpleSwap.sol":{"SimpleSwap":{"abi":[{"inputs":[{"internalType":"address","name":"initialOwner","type":"address"}],"stateMutability":"nonpayable","type":"constructor"},{"inputs":[{"internalType":"address","name":"spender","type":"address"},{"internalType":"uint256","name":"allowance","type":"uint256"},{"internalType":"uint256","name":"needed","type":"uint256"}],"name":"ERC20InsufficientAllowance","type":"error"},{"inputs":[{"internalType":"address","name":"sender","type":"address"},{"internalType":"uint256","name":"balance","type":"uint256"},{"internalType":"uint256","name":"needed","type":"uint256"}],"name":"ERC20InsufficientBalance","type":"error"},{"inputs":[{"internalType":"address","name":"approver","type":"address"}],"name":"ERC20InvalidApprover","type":"error"},{"inputs":[{"internalType":"address","name":"receiver","type":"address"}],"name":"ERC20InvalidReceiver","type":"error"},{"inputs":[{"internalType":"address","name":"sender","type":"address"}],"name":"ERC20InvalidSender","type":"error"},{"inputs":[{"internalType":"address","name":"spender","type":"address"}],"name":"ERC20InvalidSpender","type":"error"},{"inputs":[{"internalType":"address","name":"owner","type":"address"}],"name":"OwnableInvalidOwner","type":"error"},{"inputs":[{"internalType":"address","name":"account","type":"address"}],"name":"OwnableUnauthorizedAccount","type":"error"},{"anonymous":false,"inputs":[{"indexed":true,"internalType":"address","name":"owner","type":"address"},{"indexed":true,"internalType":"address","name":"spender","type":"address"},{"indexed":false,"internalType":"uint256","name":"value","type":"uint256"}],"name":"Approval","type":"event"},{"anonymous":false,"inputs":[{"indexed":true,"internalType":"address","name":"previousOwner","type":"address"},{"indexed":true,"internalType":"address","name":"newOwner","type":"address"}],"name":"OwnershipTransferred","type":"event"},{"anonymous":false,"inputs":[{"indexed":true,"internalType":"address","name":"from","type":"address"},{"indexed":true,"internalType":"address","name":"to","type":"address"},{"indexed":false,"internalType":"uint256","name":"value","type":"uint256"}],"name":"Transfer","type":"event"},{"inputs":[{"internalType":"address","name":"tokenA","type":"address"},{"internalType":"address","name":"tokenB","type":"address"},{"internalType":"uint256","name":"amountADesired","type":"uint256"},{"internalType":"uint256","name":"amountBDesired","type":"uint256"},{"internalType":"uint256","name":"amountAMin","type":"uint256"},{"internalType":"uint256","name":"amountBMin","type":"uint256"},{"internalType":"address","name":"to","type":"address"},{"internalType":"uint256","name":"deadline","type":"uint256"}],"name":"addLiquidity","outputs":[{"internalType":"uint256","name":"amountA","type":"uint256"},{"internalType":"uint256","name":"amountB","type":"uint256"},{"internalType":"uint256","name":"liquidity","type":"uint256"}],"stateMutability":"nonpayable","type":"function"},{"inputs":[{"internalType":"address","name":"owner","type":"address"},{"internalType":"address","name":"spender","type":"address"}],"name":"allowance","outputs":[{"internalType":"uint256","name":"","type":"uint256"}],"stateMutability":"view","type":"function"},{"inputs":[{"internalType":"address","name":"spender","type":"address"},{"internalType":"uint256","name":"value","type":"uint256"}],"name":"approve","outputs":[{"internalType":"bool","name":"","type":"bool"}],"stateMutability":"nonpayable","type":"function"},{"inputs":[{"internalType":"address","name":"account","type":"address"}],"name":"balanceOf","outputs":[{"internalType":"uint256","name":"","type":"uint256"}],"stateMutability":"view","type":"function"},{"inputs":[],"name":"decimals","outputs":[{"internalType":"uint8","name":"","type":"uint8"}],"stateMutability":"view","type":"function"},{"inputs":[{"internalType":"uint256","name":"amountIn","type":"uint256"},{"internalType":"uint256","name":"reserveIn","type":"uint256"},{"internalType":"uint256","name":"reserveOut","type":"uint256"}],"name":"getAmountOut","outputs":[{"internalType":"uint256","name":"amountOut","type":"uint256"}],"stateMutability":"pure","type":"function"},{"inputs":[{"internalType":"address","name":"tokenA","type":"address"},{"internalType":"address","name":"tokenB","type":"address"}],"name":"getPrice","outputs":[{"internalType":"uint256","name":"price","type":"uint256"}],"stateMutability":"view","type":"function"},{"inputs":[{"internalType":"address","name":"tokenA","type":"address"},{"internalType":"address","name":"tokenB","type":"address"}],"name":"getReserves","outputs":[{"internalType":"uint256","name":"reserveA","type":"uint256"},{"internalType":"uint256","name":"reserveB","type":"uint256"}],"stateMutability":"view","type":"function"},{"inputs":[],"name":"name","outputs":[{"internalType":"string","name":"","type":"string"}],"stateMutability":"view","type":"function"},{"inputs":[],"name":"owner","outputs":[{"internalType":"address","name":"","type":"address"}],"stateMutability":"view","type":"function"},{"inputs":[{"internalType":"address","name":"tokenA","type":"address"},{"internalType":"address","name":"tokenB","type":"address"},{"internalType":"uint256","name":"liquidity","type":"uint256"},{"internalType":"uint256","name":"amountAMin","type":"uint256"},{"internalType":"uint256","name":"amountBMin","type":"uint256"},{"internalType":"address","name":"to","type":"address"},{"internalType":"uint256","name":"deadline","type":"uint256"}],"name":"removeLiquidity","outputs":[{"internalType":"uint256","name":"amountA","type":"uint256"},{"internalType":"uint256","name":"amountB","type":"uint256"}],"stateMutability":"nonpayable","type":"function"},{"inputs":[],"name":"renounceOwnership","outputs":[],"stateMutability":"nonpayable","type":"function"},{"inputs":[{"internalType":"uint256","name":"amountIn","type":"uint256"},{"internalType":"uint256","name":"amountOutMin","type":"uint256"},{"internalType":"address[]","name":"path","type":"address[]"},{"internalType":"address","name":"to","type":"address"},{"internalType":"uint256","name":"deadline","type":"uint256"}],"name":"swapExactTokensForTokens","outputs":[{"internalType":"uint256[]","name":"amounts","type":"uint256[]"}],"stateMutability":"nonpayable","type":"function"},{"inputs":[],"name":"symbol","outputs":[{"internalType":"string","name":"","type":"string"}],"stateMutability":"view","type":"function"},{"inputs":[],"name":"totalSupply","outputs":[{"internalType":"uint256","name":"","type":"uint256"}],"stateMutability":"view","type":"function"},{"inputs":[{"internalType":"address","name":"to","type":"address"},{"internalType":"uint256","name":"value","type":"uint256"}],"name":"transfer","outputs":[{"internalType":"bool","name":"","type":"bool"}],"stateMutability":"nonpayable","type":"function"},{"inputs":[{"internalType":"address","name":"from","type":"address"},{"internalType":"address","name":"to","type":"address"},{"internalType":"uint256","name":"value","type":"uint256"}],"name":"transferFrom","outputs":[{"internalType":"bool","name":"","type":"bool"}],"stateMutability":"nonpayable","type":"function"},{"inputs":[{"internalType":"address","name":"newOwner","type":"address"}],"name":"transferOwnership","outputs":[],"stateMutability":"nonpayable","type":"function"}],"evm":{"bytecode":{"linkReferences":{},"object":"608060405234801561001057600080fd5b506040516145523803806145528339818101604052810190610032919061028f565b806040518060400160405280600681526020017f546f6b656e4c00000000000000000000000000000000000000000000000000008152506040518060400160405280600381526020017f544b4c000000000000000000000000000000000000000000000000000000000081525081600390816100ae919061050c565b5080600490816100be919061050c565b505050600073ffffffffffffffffffffffffffffffffffffffff168173ffffffffffffffffffffffffffffffffffffffff16036101335760006040517f1e4fbdf700000000000000000000000000000000000000000000000000000000815260040161012a91906105ed565b60405180910390fd5b6101428161016360201b60201c565b5061015d670a52347743bd276660c01b61022960201b60201c565b50610608565b6000600560009054906101000a900473ffffffffffffffffffffffffffffffffffffffff16905081600560006101000a81548173ffffffffffffffffffffffffffffffffffffffff021916908373ffffffffffffffffffffffffffffffffffffffff1602179055508173ffffffffffffffffffffffffffffffffffffffff168173ffffffffffffffffffffffffffffffffffffffff167f8be0079c531659141344cd1fd0a4f28419497f9722a3daafe3b4186f6b6457e060405160405180910390a35050565b50565b600080fd5b600073ffffffffffffffffffffffffffffffffffffffff82169050919050565b600061025c82610231565b9050919050565b61026c81610251565b811461027757600080fd5b50565b60008151905061028981610263565b92915050565b6000602082840312156102a5576102a461022c565b5b60006102b38482850161027a565b91505092915050565b600081519050919050565b7f4e487b7100000000000000000000000000000000000000000000000000000000600052604160045260246000fd5b7f4e487b7100000000000000000000000000000000000000000000000000000000600052602260045260246000fd5b6000600282049050600182168061033d57607f821691505b6020821081036103505761034f6102f6565b5b50919050565b60008190508160005260206000209050919050565b60006020601f8301049050919050565b600082821b905092915050565b6000600883026103b87fffffffffffffffffffffffffffffffffffffffffffffffffffffffffffffffff8261037b565b6103c2868361037b565b95508019841693508086168417925050509392505050565b6000819050919050565b6000819050919050565b60006104096104046103ff846103da565b6103e4565b6103da565b9050919050565b6000819050919050565b610423836103ee565b61043761042f82610410565b848454610388565b825550505050565b600090565b61044c61043f565b61045781848461041a565b505050565b5b8181101561047b57610470600082610444565b60018101905061045d565b5050565b601f8211156104c05761049181610356565b61049a8461036b565b810160208510156104a9578190505b6104bd6104b58561036b565b83018261045c565b50505b505050565b600082821c905092915050565b60006104e3600019846008026104c5565b1980831691505092915050565b60006104fc83836104d2565b9150826002028217905092915050565b610515826102bc565b67ffffffffffffffff81111561052e5761052d6102c7565b5b6105388254610325565b61054382828561047f565b600060209050601f8311600181146105765760008415610564578287015190505b61056e85826104f0565b8655506105d6565b601f19841661058486610356565b60005b828110156105ac57848901518255600182019150602085019450602081019050610587565b868310156105c957848901516105c5601f8916826104d2565b8355505b6001600288020188555050505b505050505050565b6105e781610251565b82525050565b600060208201905061060260008301846105de565b92915050565b613f3b806106176000396000f3fe608060405234801561001057600080fd5b50600436106101165760003560e01c80638da5cb5b116100a2578063baa2abde11610071578063baa2abde1461030b578063d52bb6f41461033c578063dd62ed3e1461036d578063e8e337001461039d578063f2fde38b146103cf57610116565b80638da5cb5b1461026f57806395d89b411461028d578063a9059cbb146102ab578063ac41865a146102db57610116565b806323b872dd116100e957806323b872dd146101b7578063313ce567146101e757806338ed17391461020557806370a0823114610235578063715018a61461026557610116565b8063054d50d41461011b57806306fdde031461014b578063095ea7b31461016957806318160ddd14610199575b600080fd5b61013560048036038101906101309190612f7b565b6103eb565b6040516101429190612fdd565b60405180910390f35b610153610429565b6040516101609190613088565b60405180910390f35b610183600480360381019061017e9190613108565b6104bb565b6040516101909190613163565b60405180910390f35b6101a16104de565b6040516101ae9190612fdd565b60405180910390f35b6101d160048036038101906101cc919061317e565b6104e8565b6040516101de9190613163565b60405180910390f35b6101ef610517565b6040516101fc91906131ed565b60405180910390f35b61021f600480360381019061021a919061326d565b610520565b60405161022c91906133c5565b60405180910390f35b61024f600480360381019061024a91906133e7565b610b46565b60405161025c9190612fdd565b60405180910390f35b61026d610b8e565b005b610277610ba2565b6040516102849190613423565b60405180910390f35b610295610bcc565b6040516102a29190613088565b60405180910390f35b6102c560048036038101906102c09190613108565b610c5e565b6040516102d29190613163565b60405180910390f35b6102f560048036038101906102f0919061343e565b610c81565b6040516103029190612fdd565b60405180910390f35b6103256004803603810190610320919061347e565b610da0565b604051610333929190613520565b60405180910390f35b6103566004803603810190610351919061343e565b611210565b604051610364929190613520565b60405180910390f35b6103876004803603810190610382919061343e565b611254565b6040516103949190612fdd565b60405180910390f35b6103b760048036038101906103b29190613549565b6112db565b6040516103c6939291906135ff565b60405180910390f35b6103e960048036038101906103e491906133e7565b6115ea565b005b6000610401670c9093450d2b0d5260c01b611670565b61041567a0cf65e232fedec960c01b611670565b610420848484611673565b90509392505050565b60606003805461043890613665565b80601f016020809104026020016040519081016040528092919081815260200182805461046490613665565b80156104b15780601f10610486576101008083540402835291602001916104b1565b820191906000526020600020905b81548152906001019060200180831161049457829003601f168201915b5050505050905090565b6000806104c66117fa565b90506104d3818585611802565b600191505092915050565b6000600254905090565b6000806104f36117fa565b9050610500858285611814565b61050b8585856118a9565b60019150509392505050565b60006012905090565b6060610536674ca16099319cb3ab60c01b611670565b61054a6717b1ee6aee6f79b460c01b611670565b61055e67abffa5e74abe543a60c01b611670565b61057267af4a414925b0acea60c01b611670565b814211156105b5576040517f08c379a00000000000000000000000000000000000000000000000000000000081526004016105ac906136e2565b60405180910390fd5b6105c9673c4331c7b7516d9960c01b611670565b6105dd672cfa1ba2227765d760c01b611670565b6105f16735cc557c8841e36860c01b611670565b61060567e924d522820f6b9a60c01b611670565b6002858590501461064b576040517f08c379a00000000000000000000000000000000000000000000000000000000081526004016106429061374e565b60405180910390fd5b61065f671777cabb58d1d20f60c01b611670565b61067367c16f82d4ccc0ea3c60c01b611670565b61068767786779facfba39c660c01b611670565b60008585600081811061069d5761069c61376e565b5b90506020020160208101906106b291906133e7565b90506106c867aefc308c8944016460c01b611670565b6106dc679ba4048c89bdfac460c01b611670565b6000868660018181106106f2576106f161376e565b5b905060200201602081019061070791906133e7565b905061071d67d18c2c4b6de989ca60c01b611670565b61073167eb5b67958e25003e60c01b611670565b60008061073e848461199d565b91509150610756677edf24413eb06db360c01b611670565b61076a67f0894da35f622fa960c01b611670565b61077e6708917496b53e2bf260c01b611670565b60008211801561078e5750600081115b6107cd576040517f08c379a00000000000000000000000000000000000000000000000000000000081526004016107c4906137e9565b60405180910390fd5b6107e167c5b09c2f976cd4cb60c01b611670565b6107f567f51a660f718a803960c01b611670565b6108096736aaf519cfc4a12960c01b611670565b60006108168c8484611673565b905061082c6713d16b97e71f4c6560c01b611670565b61084067a7cc272b907314d760c01b611670565b610854676021435077f3402060c01b611670565b8a811015610897576040517f08c379a000000000000000000000000000000000000000000000000000000000815260040161088e90613855565b60405180910390fd5b6108ab678a09afaa1a55af1b60c01b611670565b6108bf67c4a719d5a98b009160c01b611670565b6108d367dddcf8d74eefcbea60c01b611670565b8473ffffffffffffffffffffffffffffffffffffffff166323b872dd33308f6040518463ffffffff1660e01b815260040161091093929190613875565b6020604051808303816000875af115801561092f573d6000803e3d6000fd5b505050506040513d601f19601f8201168201806040525081019061095391906138d8565b50610968670b3c157f4e37a55860c01b611670565b61097c6733ab110af976721e60c01b611670565b8373ffffffffffffffffffffffffffffffffffffffff1663a9059cbb89836040518363ffffffff1660e01b81526004016109b7929190613905565b6020604051808303816000875af11580156109d6573d6000803e3d6000fd5b505050506040513d601f19601f820116820180604052508101906109fa91906138d8565b50610a0f6790ad27796247f1df60c01b611670565b610a2367759993905f04ef9e60c01b611670565b610a4585858e86610a34919061395d565b8486610a409190613991565b611b5e565b610a5967d381a7964e070f4460c01b611670565b600267ffffffffffffffff811115610a7457610a736139c5565b5b604051908082528060200260200182016040528015610aa25781602001602082028036833780820191505090505b509550610ab9679f2911ad4e2437e860c01b611670565b8b86600081518110610ace57610acd61376e565b5b602002602001018181525050610aee671e3818e84646e8a660c01b611670565b8086600181518110610b0357610b0261376e565b5b602002602001018181525050610b2367d1de7e278450da9a60c01b611670565b610b37670d9a0cc919df487d60c01b611670565b50505050509695505050505050565b60008060008373ffffffffffffffffffffffffffffffffffffffff1673ffffffffffffffffffffffffffffffffffffffff168152602001908152602001600020549050919050565b610b96611e8d565b610ba06000611f14565b565b6000600560009054906101000a900473ffffffffffffffffffffffffffffffffffffffff16905090565b606060048054610bdb90613665565b80601f0160208091040260200160405190810160405280929190818152602001828054610c0790613665565b8015610c545780601f10610c2957610100808354040283529160200191610c54565b820191906000526020600020905b815481529060010190602001808311610c3757829003601f168201915b5050505050905090565b600080610c696117fa565b9050610c768185856118a9565b600191505092915050565b6000610c9767d88fbbbaaba024f560c01b611670565b610cab673fb42aec58bdb8e860c01b611670565b610cbf670b6567c9f8dcb13360c01b611670565b600080610ccc858561199d565b91509150610ce4677da4d3f919bbe3a260c01b611670565b610cf8679820171e454ddc6460c01b611670565b610d0c6732c3a675bf18956760c01b611670565b60008211610d4f576040517f08c379a0000000000000000000000000000000000000000000000000000000008152600401610d4690613a40565b60405180910390fd5b610d63674e9eda429da158e960c01b611670565b610d7767ab8cf7cd311f6cb760c01b611670565b81670de0b6b3a764000082610d8c9190613a60565b610d969190613ad1565b9250505092915050565b600080610db767add03cf678052a0e60c01b611670565b610dcb67ff1abbee0882bdd560c01b611670565b610ddf676fc747dc5e663edc60c01b611670565b610df367d27c4d7e737fbde060c01b611670565b82421115610e36576040517f08c379a0000000000000000000000000000000000000000000000000000000008152600401610e2d906136e2565b60405180910390fd5b610e4a67311393f5876b8d2660c01b611670565b610e5e67b81cf0bf87644a5060c01b611670565b610e72679d27a7c01a6b50cd60c01b611670565b6000610e7c6104de565b9050610e92674d3d6321844a7e3160c01b611670565b610ea66763468648ca9e03c760c01b611670565b600080610eb38c8c61199d565b91509150610ecb67eca1493204d2ff7360c01b611670565b82828b610ed89190613a60565b610ee29190613ad1565b9450610ef867f3f284b4984e4a9860c01b611670565b82818b610f059190613a60565b610f0f9190613ad1565b9350610f2567ef565586b0d3da9560c01b611670565b610f396727fd4b145124a16960c01b611670565b610f4d67f4b8b60d4fac4d6a60c01b611670565b88851015610f90576040517f08c379a0000000000000000000000000000000000000000000000000000000008152600401610f8790613b4e565b60405180910390fd5b610fa467b5e473d50f36127560c01b611670565b610fb867bfc70046e22253e960c01b611670565b610fcc67b6f0d56a5f9234d460c01b611670565b610fe067fc40a74a7d0033e960c01b611670565b87841015611023576040517f08c379a000000000000000000000000000000000000000000000000000000000815260040161101a90613bba565b60405180910390fd5b61103767c48994153aa9951d60c01b611670565b61104b67657bcfc07eca335560c01b611670565b61105f67d622b2ff9cd783fa60c01b611670565b611069338b611fda565b61107d67d455b9c89f03506460c01b611670565b611091671b29aee6ae59e0fd60c01b611670565b8b73ffffffffffffffffffffffffffffffffffffffff1663a9059cbb88876040518363ffffffff1660e01b81526004016110cc929190613905565b6020604051808303816000875af11580156110eb573d6000803e3d6000fd5b505050506040513d601f19601f8201168201806040525081019061110f91906138d8565b5061112467e77dd8c15cbcf54a60c01b611670565b61113867768659b5ff79c85a60c01b611670565b8a73ffffffffffffffffffffffffffffffffffffffff1663a9059cbb88866040518363ffffffff1660e01b8152600401611173929190613905565b6020604051808303816000875af1158015611192573d6000803e3d6000fd5b505050506040513d601f19601f820116820180604052508101906111b691906138d8565b506111cb6785649cea0940f13560c01b611670565b6111df677087b6568e848ccf60c01b611670565b6112018c8c87856111f09190613991565b87856111fc9190613991565b611b5e565b50505097509795505050505050565b600080611227679bb953977a17c69360c01b611670565b61123b672f4a69dcf62783b360c01b611670565b611245848461199d565b80925081935050509250929050565b6000600160008473ffffffffffffffffffffffffffffffffffffffff1673ffffffffffffffffffffffffffffffffffffffff16815260200190815260200160002060008373ffffffffffffffffffffffffffffffffffffffff1673ffffffffffffffffffffffffffffffffffffffff16815260200190815260200160002054905092915050565b60008060006112f4675bbd07102b941c8a60c01b611670565b61130867b5ee6e9fe732003f60c01b611670565b61131c6770fa3f85e2b06dc660c01b611670565b611330678bb2f5effbee921860c01b611670565b83421115611373576040517f08c379a000000000000000000000000000000000000000000000000000000000815260040161136a906136e2565b60405180910390fd5b61138767c169248d6097030060c01b611670565b61139b67c3f8ce2a74a8892f60c01b611670565b6113af67dd131f42ace567ec60c01b611670565b6000806113bc8d8d61199d565b915091506113d467bea7481a52519a0560c01b611670565b6113e282828d8d8d8d61205c565b80955081965050506113fe6726d6322c9ffae04b60c01b611670565b61141267bd7103d4331e748a60c01b611670565b8c73ffffffffffffffffffffffffffffffffffffffff166323b872dd3330886040518463ffffffff1660e01b815260040161144f93929190613875565b6020604051808303816000875af115801561146e573d6000803e3d6000fd5b505050506040513d601f19601f8201168201806040525081019061149291906138d8565b506114a767e81ee442aa8c908460c01b611670565b6114bb6740448dd2d43bf5ac60c01b611670565b8b73ffffffffffffffffffffffffffffffffffffffff166323b872dd3330876040518463ffffffff1660e01b81526004016114f893929190613875565b6020604051808303816000875af1158015611517573d6000803e3d6000fd5b505050506040513d601f19601f8201168201806040525081019061153b91906138d8565b5061155067a1ca42f3b4324d4a60c01b611670565b61155c8585848461237e565b925061157267b1482f3b5f6f9e6a60c01b611670565b611586675616fb73c3e4b7ad60c01b611670565b611590878461266f565b6115a4678a7f2cd7c381ec8460c01b611670565b6115b867fee4561b08b7381c60c01b611670565b6115da8d8d87856115c9919061395d565b87856115d5919061395d565b611b5e565b5050985098509895505050505050565b6115f2611e8d565b600073ffffffffffffffffffffffffffffffffffffffff168173ffffffffffffffffffffffffffffffffffffffff16036116645760006040517f1e4fbdf700000000000000000000000000000000000000000000000000000000815260040161165b9190613423565b60405180910390fd5b61166d81611f14565b50565b50565b600061168967f1570bfd6bb6fa9f60c01b611670565b61169d67e65f1e5a1bb3eed260c01b611670565b6116b1678ceee8d6d24e5f6a60c01b611670565b6116c5679f114b78bcea1c5460c01b611670565b60008411611708576040517f08c379a00000000000000000000000000000000000000000000000000000000081526004016116ff90613c26565b60405180910390fd5b61171c67b030215e6b65cbd060c01b611670565b611730678424b3dfa11f11f560c01b611670565b61174467bbe036f10e60db5760c01b611670565b61175867bd49468d1d93d2b360c01b611670565b6000831180156117685750600082115b6117a7576040517f08c379a000000000000000000000000000000000000000000000000000000000815260040161179e90613c92565b60405180910390fd5b6117bb67da000bee24be68ca60c01b611670565b6117cf6715f04d23eb998c2b60c01b611670565b83836117db919061395d565b82856117e79190613a60565b6117f19190613ad1565b90509392505050565b600033905090565b61180f83838360016126f1565b505050565b60006118208484611254565b90507fffffffffffffffffffffffffffffffffffffffffffffffffffffffffffffffff8110156118a35781811015611893578281836040517ffb8f41b200000000000000000000000000000000000000000000000000000000815260040161188a93929190613cb2565b60405180910390fd5b6118a2848484840360006126f1565b5b50505050565b600073ffffffffffffffffffffffffffffffffffffffff168373ffffffffffffffffffffffffffffffffffffffff160361191b5760006040517f96c6fd1e0000000000000000000000000000000000000000000000000000000081526004016119129190613423565b60405180910390fd5b600073ffffffffffffffffffffffffffffffffffffffff168273ffffffffffffffffffffffffffffffffffffffff160361198d5760006040517fec442f050000000000000000000000000000000000000000000000000000000081526004016119849190613423565b60405180910390fd5b6119988383836128c8565b505050565b6000806119b4674ba760de071f0d4060c01b611670565b6119c867cea83a38baf11a7e60c01b611670565b6119dc6771f013d3976b227960c01b611670565b6000806119e98686612aed565b91509150611a016718751d81856420b460c01b611670565b611a156746a77fe8eb92f68560c01b611670565b6000600660008473ffffffffffffffffffffffffffffffffffffffff1673ffffffffffffffffffffffffffffffffffffffff16815260200190815260200160002060008373ffffffffffffffffffffffffffffffffffffffff1673ffffffffffffffffffffffffffffffffffffffff168152602001908152602001600020604051806040016040529081600082015481526020016001820154815250509050611ac867cbdf660c7bc2c3f060c01b611670565b8273ffffffffffffffffffffffffffffffffffffffff168773ffffffffffffffffffffffffffffffffffffffff161480611b125750611b11679248b4780d26ac3760c01b612d52565b5b8015611b2e5750611b2d67041da01aff9264e060c01b612d59565b5b611b415780602001518160000151611b4c565b806000015181602001515b80955081965050505050509250929050565b611b72677f2cdb76c65e8cc260c01b611670565b611b8667870a3d6d89e0c23c60c01b611670565b611b9a674808fa9a2de20ffb60c01b611670565b600080611ba78686612aed565b91509150611bbf67ef80e240b57be2ae60c01b611670565b611bd36702e7543c99efe0bc60c01b611670565b6000600660008473ffffffffffffffffffffffffffffffffffffffff1673ffffffffffffffffffffffffffffffffffffffff16815260200190815260200160002060008373ffffffffffffffffffffffffffffffffffffffff1673ffffffffffffffffffffffffffffffffffffffff1681526020019081526020016000209050611c676774d1fa9f11873b8b60c01b611670565b611c7b67e07fadd242341abe60c01b611670565b8273ffffffffffffffffffffffffffffffffffffffff168773ffffffffffffffffffffffffffffffffffffffff1603611d9b57611cc267892326cb3846e2e860c01b611670565b611cd667304f927d49a1787460c01b611670565b611cea67787b84b384b2766c60c01b611670565b84816000015414611d1757611d09677fc92963979b197860c01b611670565b848160000181905550611d2c565b611d2b67f68204c965293df960c01b611670565b5b611d4067f2f21f1e8a0cd1cb60c01b611670565b611d54672afb5f224fcc234460c01b611670565b83816001015414611d8157611d7367fb36b127ba4c473160c01b611670565b838160010181905550611d96565b611d95679d5d2beeb530b48c60c01b611670565b5b611e84565b611daf6722098fc09589244660c01b611670565b611dc367a0afb53ba6549c5f60c01b611670565b611dd76770023d4e20d8010960c01b611670565b83816000015414611e0457611df667f1724f6606db4c6460c01b611670565b838160000181905550611e19565b611e1867ecfb05b46c9e441760c01b611670565b5b611e2d678a2c3ff4ed5d66a160c01b611670565b611e416740ae594cb04fd07a60c01b611670565b84816001015414611e6e57611e6067420fb83ed06b000760c01b611670565b848160010181905550611e83565b611e82678a3b24d9df75383c60c01b611670565b5b5b50505050505050565b611e956117fa565b73ffffffffffffffffffffffffffffffffffffffff16611eb3610ba2565b73ffffffffffffffffffffffffffffffffffffffff1614611f1257611ed66117fa565b6040517f118cdaa7000000000000000000000000000000000000000000000000000000008152600401611f099190613423565b60405180910390fd5b565b6000600560009054906101000a900473ffffffffffffffffffffffffffffffffffffffff16905081600560006101000a81548173ffffffffffffffffffffffffffffffffffffffff021916908373ffffffffffffffffffffffffffffffffffffffff1602179055508173ffffffffffffffffffffffffffffffffffffffff168173ffffffffffffffffffffffffffffffffffffffff167f8be0079c531659141344cd1fd0a4f28419497f9722a3daafe3b4186f6b6457e060405160405180910390a35050565b600073ffffffffffffffffffffffffffffffffffffffff168273ffffffffffffffffffffffffffffffffffffffff160361204c5760006040517f96c6fd1e0000000000000000000000000000000000000000000000000000000081526004016120439190613423565b60405180910390fd5b612058826000836128c8565b5050565b60008061207367d749f35b2fec12af60c01b611670565b612087679c36740a954bee6c60c01b611670565b61209b670baa73133cea173360c01b611670565b6000881480156120ab5750600087145b156120f7576120c4670cc8952a2236dc3e60c01b611670565b6120d86723170d4f17bd968860c01b611670565b6120ec677ab294740d5ab5fd60c01b611670565b858591509150612373565b61210b6753a74809daf6127660c01b611670565b61211f670f1994b7df5cac5860c01b611670565b612133675acf2b1c29ac25c260c01b611670565b60008888886121429190613a60565b61214c9190613ad1565b905061216267888b74499b8e821960c01b611670565b61217667bb171acee317e75b60c01b611670565b858111612258576121916729d40913dca2d5e160c01b611670565b6121a567f8f4b4a6c22ed8ef60c01b611670565b6121b967560642260b4d052260c01b611670565b6121cd6719c11993bc3b3ea660c01b611670565b83811015612210576040517f08c379a000000000000000000000000000000000000000000000000000000000815260040161220790613d35565b60405180910390fd5b612224679992c7d61c4ad71860c01b611670565b61223867bc9637686825026460c01b611670565b61224c6756073432a9ef3e5560c01b611670565b86819250925050612373565b61226c67f36ac8ffa69ffbb160c01b611670565b612280675789b8adf13e714960c01b611670565b612294675f41ede06b35169960c01b611670565b6000888a886122a39190613a60565b6122ad9190613ad1565b90506122c367ef3a5325b25f6d8960c01b611670565b6122d767853beb2c6fe49ee860c01b611670565b6122eb67bbfa0b11eb45daaa60c01b611670565b8581101561232e576040517f08c379a000000000000000000000000000000000000000000000000000000000815260040161232590613da1565b60405180910390fd5b612342672012105651ed481960c01b611670565b61235667507c02acc0a2b0e860c01b611670565b61236a67103bc92cb31c6aa360c01b611670565b80879350935050505b965096945050505050565b6000612394673f11aef4d17fdfe560c01b611670565b6123a8679ff201bf5319ffcf60c01b611670565b6123bc67faa769b8c9e227ec60c01b611670565b60006123c66104de565b90506123dc6741ab6919e942562660c01b611670565b6123f0677860bd018b32432760c01b611670565b6000810361243b5761240c67513f2e785dcb9e4a60c01b611670565b61242067d9394fe2d2af3fc460c01b611670565b612434858761242f9190613a60565b612d64565b91506125d3565b61244f67560ee63455522a0b60c01b611670565b612463671beb57307f6d560e60c01b611670565b612477671fc990ba8e0b7ab060c01b611670565b61248b677aa963da995335eb60c01b611670565b60008411801561249b5750600083115b6124da576040517f08c379a00000000000000000000000000000000000000000000000000000000081526004016124d190613c92565b60405180910390fd5b6124ee67fe6bc342232ff51c60c01b611670565b61250267d4525431c5ea0e4060c01b611670565b6125166740750dd72df8eaee60c01b611670565b60008482886125259190613a60565b61252f9190613ad1565b905061254567ae347648082f3d9560c01b611670565b61255967e42842c190b331d560c01b611670565b60008483886125689190613a60565b6125729190613ad1565b905061258867599fcc97ed24d35060c01b611670565b808210806125a657506125a567c47ffda81d9d8e2160c01b612d52565b5b80156125c257506125c16763b394533b1e70e860c01b612d59565b5b6125cc57806125ce565b815b935050505b6125e76726eb697568554d8360c01b611670565b6125fb67af6e65cfade8537960c01b611670565b61260f673c3006dbd69c9edc60c01b611670565b60008211612652576040517f08c379a000000000000000000000000000000000000000000000000000000000815260040161264990613e0d565b60405180910390fd5b6126666760918f7e64834abf60c01b611670565b50949350505050565b600073ffffffffffffffffffffffffffffffffffffffff168273ffffffffffffffffffffffffffffffffffffffff16036126e15760006040517fec442f050000000000000000000000000000000000000000000000000000000081526004016126d89190613423565b60405180910390fd5b6126ed600083836128c8565b5050565b600073ffffffffffffffffffffffffffffffffffffffff168473ffffffffffffffffffffffffffffffffffffffff16036127635760006040517fe602df0500000000000000000000000000000000000000000000000000000000815260040161275a9190613423565b60405180910390fd5b600073ffffffffffffffffffffffffffffffffffffffff168373ffffffffffffffffffffffffffffffffffffffff16036127d55760006040517f94280d620000000000000000000000000000000000000000000000000000000081526004016127cc9190613423565b60405180910390fd5b81600160008673ffffffffffffffffffffffffffffffffffffffff1673ffffffffffffffffffffffffffffffffffffffff16815260200190815260200160002060008573ffffffffffffffffffffffffffffffffffffffff1673ffffffffffffffffffffffffffffffffffffffff1681526020019081526020016000208190555080156128c2578273ffffffffffffffffffffffffffffffffffffffff168473ffffffffffffffffffffffffffffffffffffffff167f8c5be1e5ebec7d5bd14f71427d1e84f3dd0314c0f7b2291e5b200ac8c7c3b925846040516128b99190612fdd565b60405180910390a35b50505050565b600073ffffffffffffffffffffffffffffffffffffffff168373ffffffffffffffffffffffffffffffffffffffff160361291a57806002600082825461290e919061395d565b925050819055506129ed565b60008060008573ffffffffffffffffffffffffffffffffffffffff1673ffffffffffffffffffffffffffffffffffffffff168152602001908152602001600020549050818110156129a6578381836040517fe450d38c00000000000000000000000000000000000000000000000000000000815260040161299d93929190613cb2565b60405180910390fd5b8181036000808673ffffffffffffffffffffffffffffffffffffffff1673ffffffffffffffffffffffffffffffffffffffff16815260200190815260200160002081905550505b600073ffffffffffffffffffffffffffffffffffffffff168273ffffffffffffffffffffffffffffffffffffffff1603612a365780600260008282540392505081905550612a83565b806000808473ffffffffffffffffffffffffffffffffffffffff1673ffffffffffffffffffffffffffffffffffffffff168152602001908152602001600020600082825401925050819055505b8173ffffffffffffffffffffffffffffffffffffffff168373ffffffffffffffffffffffffffffffffffffffff167fddf252ad1be2c89b69c2b068fc378daa952ba7f163c4a11628f55a4df523b3ef83604051612ae09190612fdd565b60405180910390a3505050565b600080612b046798028e1d05f4a22560c01b611670565b612b1867491f9cb31127d7f360c01b611670565b612b2c67a27d89e49575cd3060c01b611670565b612b40670322cda63bdde65760c01b611670565b8273ffffffffffffffffffffffffffffffffffffffff168473ffffffffffffffffffffffffffffffffffffffff1603612bae576040517f08c379a0000000000000000000000000000000000000000000000000000000008152600401612ba590613e79565b60405180910390fd5b612bc2679508c9814a1b679460c01b611670565b612bd667d5fa7946ac43315460c01b611670565b612bea671d73680d7945fb0960c01b611670565b612bfe67b0944a50295e4b8160c01b611670565b600073ffffffffffffffffffffffffffffffffffffffff168473ffffffffffffffffffffffffffffffffffffffff1614158015612c685750600073ffffffffffffffffffffffffffffffffffffffff168373ffffffffffffffffffffffffffffffffffffffff1614155b612ca7576040517f08c379a0000000000000000000000000000000000000000000000000000000008152600401612c9e90613ee5565b60405180910390fd5b612cbb67ffc6c97f54f370a560c01b611670565b612ccf67057212c6f9ae45c060c01b611670565b8273ffffffffffffffffffffffffffffffffffffffff168473ffffffffffffffffffffffffffffffffffffffff161080612d195750612d18670baba433c456a8ef60c01b612d52565b5b8015612d355750612d34674ea8e2ed9c55ad9a60c01b612d59565b5b612d40578284612d43565b83835b80925081935050509250929050565b6000919050565b600060019050919050565b6000612d7a6784fef24dfb92e7d760c01b611670565b612d8e679c823c520de8792660c01b611670565b612da26741ce3a5312e94c4f60c01b611670565b6003821115612ea757612dbf6756953b04f1a8c8c260c01b611670565b612dd367fb95ad0b7d1543d160c01b611670565b819050612dea670fed7c7aea9cc71060c01b611670565b612dfe6743a0dafe8d64a51760c01b611670565b60006001600284612e0f9190613ad1565b612e19919061395d565b9050612e2f67c454eda00dbcd5c860c01b611670565b612e436781f542c0b9f8472460c01b611670565b5b81811015612ea157612e606783d6dc0c4b468eeb60c01b611670565b809150612e776742424d93be50847560c01b611670565b6002818285612e869190613ad1565b612e90919061395d565b612e9a9190613ad1565b9050612e44565b50612f36565b612ebb676ce0d885b338934060c01b611670565b612ecf6734eb2539e16149e160c01b611670565b60008214612f0857612eeb678ec0f184431412ef60c01b611670565b612eff6724e9755dd18d3cef60c01b611670565b60019050612f35565b612f1c67155cfc702403175f60c01b611670565b612f30670ba2b9dbb5c3db4360c01b611670565b600090505b5b919050565b600080fd5b600080fd5b6000819050919050565b612f5881612f45565b8114612f6357600080fd5b50565b600081359050612f7581612f4f565b92915050565b600080600060608486031215612f9457612f93612f3b565b5b6000612fa286828701612f66565b9350506020612fb386828701612f66565b9250506040612fc486828701612f66565b9150509250925092565b612fd781612f45565b82525050565b6000602082019050612ff26000830184612fce565b92915050565b600081519050919050565b600082825260208201905092915050565b60005b83811015613032578082015181840152602081019050613017565b60008484015250505050565b6000601f19601f8301169050919050565b600061305a82612ff8565b6130648185613003565b9350613074818560208601613014565b61307d8161303e565b840191505092915050565b600060208201905081810360008301526130a2818461304f565b905092915050565b600073ffffffffffffffffffffffffffffffffffffffff82169050919050565b60006130d5826130aa565b9050919050565b6130e5816130ca565b81146130f057600080fd5b50565b600081359050613102816130dc565b92915050565b6000806040838503121561311f5761311e612f3b565b5b600061312d858286016130f3565b925050602061313e85828601612f66565b9150509250929050565b60008115159050919050565b61315d81613148565b82525050565b60006020820190506131786000830184613154565b92915050565b60008060006060848603121561319757613196612f3b565b5b60006131a5868287016130f3565b93505060206131b6868287016130f3565b92505060406131c786828701612f66565b9150509250925092565b600060ff82169050919050565b6131e7816131d1565b82525050565b600060208201905061320260008301846131de565b92915050565b600080fd5b600080fd5b600080fd5b60008083601f84011261322d5761322c613208565b5b8235905067ffffffffffffffff81111561324a5761324961320d565b5b60208301915083602082028301111561326657613265613212565b5b9250929050565b60008060008060008060a0878903121561328a57613289612f3b565b5b600061329889828a01612f66565b96505060206132a989828a01612f66565b955050604087013567ffffffffffffffff8111156132ca576132c9612f40565b5b6132d689828a01613217565b945094505060606132e989828a016130f3565b92505060806132fa89828a01612f66565b9150509295509295509295565b600081519050919050565b600082825260208201905092915050565b6000819050602082019050919050565b61333c81612f45565b82525050565b600061334e8383613333565b60208301905092915050565b6000602082019050919050565b600061337282613307565b61337c8185613312565b935061338783613323565b8060005b838110156133b857815161339f8882613342565b97506133aa8361335a565b92505060018101905061338b565b5085935050505092915050565b600060208201905081810360008301526133df8184613367565b905092915050565b6000602082840312156133fd576133fc612f3b565b5b600061340b848285016130f3565b91505092915050565b61341d816130ca565b82525050565b60006020820190506134386000830184613414565b92915050565b6000806040838503121561345557613454612f3b565b5b6000613463858286016130f3565b9250506020613474858286016130f3565b9150509250929050565b600080600080600080600060e0888a03121561349d5761349c612f3b565b5b60006134ab8a828b016130f3565b97505060206134bc8a828b016130f3565b96505060406134cd8a828b01612f66565b95505060606134de8a828b01612f66565b94505060806134ef8a828b01612f66565b93505060a06135008a828b016130f3565b92505060c06135118a828b01612f66565b91505092959891949750929550565b60006040820190506135356000830185612fce565b6135426020830184612fce565b9392505050565b600080600080600080600080610100898b03121561356a57613569612f3b565b5b60006135788b828c016130f3565b98505060206135898b828c016130f3565b975050604061359a8b828c01612f66565b96505060606135ab8b828c01612f66565b95505060806135bc8b828c01612f66565b94505060a06135cd8b828c01612f66565b93505060c06135de8b828c016130f3565b92505060e06135ef8b828c01612f66565b9150509295985092959890939650565b60006060820190506136146000830186612fce565b6136216020830185612fce565b61362e6040830184612fce565b949350505050565b7f4e487b7100000000000000000000000000000000000000000000000000000000600052602260045260246000fd5b6000600282049050600182168061367d57607f821691505b6020821081036136905761368f613636565b5b50919050565b7f446561646c696e65206578706972656400000000000000000000000000000000600082015250565b60006136cc601083613003565b91506136d782613696565b602082019050919050565b600060208201905081810360008301526136fb816136bf565b9050919050565b7f4f6e6c7920312d7374657020737761707320737570706f727465640000000000600082015250565b6000613738601b83613003565b915061374382613702565b602082019050919050565b600060208201905081810360008301526137678161372b565b9050919050565b7f4e487b7100000000000000000000000000000000000000000000000000000000600052603260045260246000fd5b7f4e6f206c69717569646974790000000000000000000000000000000000000000600082015250565b60006137d3600c83613003565b91506137de8261379d565b602082019050919050565b60006020820190508181036000830152613802816137c6565b9050919050565b7f496e73756666696369656e74206f757470757420616d6f756e74000000000000600082015250565b600061383f601a83613003565b915061384a82613809565b602082019050919050565b6000602082019050818103600083015261386e81613832565b9050919050565b600060608201905061388a6000830186613414565b6138976020830185613414565b6138a46040830184612fce565b949350505050565b6138b581613148565b81146138c057600080fd5b50565b6000815190506138d2816138ac565b92915050565b6000602082840312156138ee576138ed612f3b565b5b60006138fc848285016138c3565b91505092915050565b600060408201905061391a6000830185613414565b6139276020830184612fce565b9392505050565b7f4e487b7100000000000000000000000000000000000000000000000000000000600052601160045260246000fd5b600061396882612f45565b915061397383612f45565b925082820190508082111561398b5761398a61392e565b5b92915050565b600061399c82612f45565b91506139a783612f45565b92508282039050818111156139bf576139be61392e565b5b92915050565b7f4e487b7100000000000000000000000000000000000000000000000000000000600052604160045260246000fd5b7f4e6f206c697175696469747920666f7220746f6b656e41000000000000000000600082015250565b6000613a2a601783613003565b9150613a35826139f4565b602082019050919050565b60006020820190508181036000830152613a5981613a1d565b9050919050565b6000613a6b82612f45565b9150613a7683612f45565b9250828202613a8481612f45565b91508282048414831517613a9b57613a9a61392e565b5b5092915050565b7f4e487b7100000000000000000000000000000000000000000000000000000000600052601260045260246000fd5b6000613adc82612f45565b9150613ae783612f45565b925082613af757613af6613aa2565b5b828204905092915050565b7f4d696e204120616d6f756e74206e6f74206d6574000000000000000000000000600082015250565b6000613b38601483613003565b9150613b4382613b02565b602082019050919050565b60006020820190508181036000830152613b6781613b2b565b9050919050565b7f4d696e204220616d6f756e74206e6f74206d6574000000000000000000000000600082015250565b6000613ba4601483613003565b9150613baf82613b6e565b602082019050919050565b60006020820190508181036000830152613bd381613b97565b9050919050565b7f416d6f756e74206d757374206265203e20300000000000000000000000000000600082015250565b6000613c10601283613003565b9150613c1b82613bda565b602082019050919050565b60006020820190508181036000830152613c3f81613c03565b9050919050565b7f496e76616c696420726573657276657300000000000000000000000000000000600082015250565b6000613c7c601083613003565b9150613c8782613c46565b602082019050919050565b60006020820190508181036000830152613cab81613c6f565b9050919050565b6000606082019050613cc76000830186613414565b613cd46020830185612fce565b613ce16040830184612fce565b949350505050565b7f496e73756666696369656e7420616d6f756e7442000000000000000000000000600082015250565b6000613d1f601483613003565b9150613d2a82613ce9565b602082019050919050565b60006020820190508181036000830152613d4e81613d12565b9050919050565b7f496e73756666696369656e7420616d6f756e7441000000000000000000000000600082015250565b6000613d8b601483613003565b9150613d9682613d55565b602082019050919050565b60006020820190508181036000830152613dba81613d7e565b9050919050565b7f496e73756666696369656e74206c6971756964697479206d696e746564000000600082015250565b6000613df7601d83613003565b9150613e0282613dc1565b602082019050919050565b60006020820190508181036000830152613e2681613dea565b9050919050565b7f4964656e746963616c20746f6b656e2061646472657373657300000000000000600082015250565b6000613e63601983613003565b9150613e6e82613e2d565b602082019050919050565b60006020820190508181036000830152613e9281613e56565b9050919050565b7f5a65726f2061646472657373206e6f7420616c6c6f7765640000000000000000600082015250565b6000613ecf601883613003565b9150613eda82613e99565b602082019050919050565b60006020820190508181036000830152613efe81613ec2565b905091905056fea264697066735822122073ce9d1edc6d7fb23e308af7db3243072497f3f29665574d6274647d28d134bd64736f6c634300081c0033","opcodes":"PUSH1 0x80 PUSH1 0x40 MSTORE CALLVALUE DUP1 ISZERO PUSH2 0x10 JUMPI PUSH1 0x0 DUP1 REVERT JUMPDEST POP PUSH1 0x40 MLOAD PUSH2 0x4552 CODESIZE SUB DUP1 PUSH2 0x4552 DUP4 CODECOPY DUP2 DUP2 ADD PUSH1 0x40 MSTORE DUP2 ADD SWAP1 PUSH2 0x32 SWAP2 SWAP1 PUSH2 0x28F JUMP JUMPDEST DUP1 PUSH1 0x40 MLOAD DUP1 PUSH1 0x40 ADD PUSH1 0x40 MSTORE DUP1 PUSH1 0x6 DUP2 MSTORE PUSH1 0x20 ADD PUSH32 0x546F6B656E4C0000000000000000000000000000000000000000000000000000 DUP2 MSTORE POP PUSH1 0x40 MLOAD DUP1 PUSH1 0x40 ADD PUSH1 0x40 MSTORE DUP1 PUSH1 0x3 DUP2 MSTORE PUSH1 0x20 ADD PUSH32 0x544B4C0000000000000000000000000000000000000000000000000000000000 DUP2 MSTORE POP DUP2 PUSH1 0x3 SWAP1 DUP2 PUSH2 0xAE SWAP2 SWAP1 PUSH2 0x50C JUMP JUMPDEST POP DUP1 PUSH1 0x4 SWAP1 DUP2 PUSH2 0xBE SWAP2 SWAP1 PUSH2 0x50C JUMP JUMPDEST POP POP POP PUSH1 0x0 PUSH20 0xFFFFFFFFFFFFFFFFFFFFFFFFFFFFFFFFFFFFFFFF AND DUP2 PUSH20 0xFFFFFFFFFFFFFFFFFFFFFFFFFFFFFFFFFFFFFFFF AND SUB PUSH2 0x133 JUMPI PUSH1 0x0 PUSH1 0x40 MLOAD PUSH32 0x1E4FBDF700000000000000000000000000000000000000000000000000000000 DUP2 MSTORE PUSH1 0x4 ADD PUSH2 0x12A SWAP2 SWAP1 PUSH2 0x5ED JUMP JUMPDEST PUSH1 0x40 MLOAD DUP1 SWAP2 SUB SWAP1 REVERT JUMPDEST PUSH2 0x142 DUP2 PUSH2 0x163 PUSH1 0x20 SHL PUSH1 0x20 SHR JUMP JUMPDEST POP PUSH2 0x15D PUSH8 0xA52347743BD2766 PUSH1 0xC0 SHL PUSH2 0x229 PUSH1 0x20 SHL PUSH1 0x20 SHR JUMP JUMPDEST POP PUSH2 0x608 JUMP JUMPDEST PUSH1 0x0 PUSH1 0x5 PUSH1 0x0 SWAP1 SLOAD SWAP1 PUSH2 0x100 EXP SWAP1 DIV PUSH20 0xFFFFFFFFFFFFFFFFFFFFFFFFFFFFFFFFFFFFFFFF AND SWAP1 POP DUP2 PUSH1 0x5 PUSH1 0x0 PUSH2 0x100 EXP DUP2 SLOAD DUP2 PUSH20 0xFFFFFFFFFFFFFFFFFFFFFFFFFFFFFFFFFFFFFFFF MUL NOT AND SWAP1 DUP4 PUSH20 0xFFFFFFFFFFFFFFFFFFFFFFFFFFFFFFFFFFFFFFFF AND MUL OR SWAP1 SSTORE POP DUP2 PUSH20 0xFFFFFFFFFFFFFFFFFFFFFFFFFFFFFFFFFFFFFFFF AND DUP2 PUSH20 0xFFFFFFFFFFFFFFFFFFFFFFFFFFFFFFFFFFFFFFFF AND PUSH32 0x8BE0079C531659141344CD1FD0A4F28419497F9722A3DAAFE3B4186F6B6457E0 PUSH1 0x40 MLOAD PUSH1 0x40 MLOAD DUP1 SWAP2 SUB SWAP1 LOG3 POP POP JUMP JUMPDEST POP JUMP JUMPDEST PUSH1 0x0 DUP1 REVERT JUMPDEST PUSH1 0x0 PUSH20 0xFFFFFFFFFFFFFFFFFFFFFFFFFFFFFFFFFFFFFFFF DUP3 AND SWAP1 POP SWAP2 SWAP1 POP JUMP JUMPDEST PUSH1 0x0 PUSH2 0x25C DUP3 PUSH2 0x231 JUMP JUMPDEST SWAP1 POP SWAP2 SWAP1 POP JUMP JUMPDEST PUSH2 0x26C DUP2 PUSH2 0x251 JUMP JUMPDEST DUP2 EQ PUSH2 0x277 JUMPI PUSH1 0x0 DUP1 REVERT JUMPDEST POP JUMP JUMPDEST PUSH1 0x0 DUP2 MLOAD SWAP1 POP PUSH2 0x289 DUP2 PUSH2 0x263 JUMP JUMPDEST SWAP3 SWAP2 POP POP JUMP JUMPDEST PUSH1 0x0 PUSH1 0x20 DUP3 DUP5 SUB SLT ISZERO PUSH2 0x2A5 JUMPI PUSH2 0x2A4 PUSH2 0x22C JUMP JUMPDEST JUMPDEST PUSH1 0x0 PUSH2 0x2B3 DUP5 DUP3 DUP6 ADD PUSH2 0x27A JUMP JUMPDEST SWAP2 POP POP SWAP3 SWAP2 POP POP JUMP JUMPDEST PUSH1 0x0 DUP2 MLOAD SWAP1 POP SWAP2 SWAP1 POP JUMP JUMPDEST PUSH32 0x4E487B7100000000000000000000000000000000000000000000000000000000 PUSH1 0x0 MSTORE PUSH1 0x41 PUSH1 0x4 MSTORE PUSH1 0x24 PUSH1 0x0 REVERT JUMPDEST PUSH32 0x4E487B7100000000000000000000000000000000000000000000000000000000 PUSH1 0x0 MSTORE PUSH1 0x22 PUSH1 0x4 MSTORE PUSH1 0x24 PUSH1 0x0 REVERT JUMPDEST PUSH1 0x0 PUSH1 0x2 DUP3 DIV SWAP1 POP PUSH1 0x1 DUP3 AND DUP1 PUSH2 0x33D JUMPI PUSH1 0x7F DUP3 AND SWAP2 POP JUMPDEST PUSH1 0x20 DUP3 LT DUP2 SUB PUSH2 0x350 JUMPI PUSH2 0x34F PUSH2 0x2F6 JUMP JUMPDEST JUMPDEST POP SWAP2 SWAP1 POP JUMP JUMPDEST PUSH1 0x0 DUP2 SWAP1 POP DUP2 PUSH1 0x0 MSTORE PUSH1 0x20 PUSH1 0x0 KECCAK256 SWAP1 POP SWAP2 SWAP1 POP JUMP JUMPDEST PUSH1 0x0 PUSH1 0x20 PUSH1 0x1F DUP4 ADD DIV SWAP1 POP SWAP2 SWAP1 POP JUMP JUMPDEST PUSH1 0x0 DUP3 DUP3 SHL SWAP1 POP SWAP3 SWAP2 POP POP JUMP JUMPDEST PUSH1 0x0 PUSH1 0x8 DUP4 MUL PUSH2 0x3B8 PUSH32 0xFFFFFFFFFFFFFFFFFFFFFFFFFFFFFFFFFFFFFFFFFFFFFFFFFFFFFFFFFFFFFFFF DUP3 PUSH2 0x37B JUMP JUMPDEST PUSH2 0x3C2 DUP7 DUP4 PUSH2 0x37B JUMP JUMPDEST SWAP6 POP DUP1 NOT DUP5 AND SWAP4 POP DUP1 DUP7 AND DUP5 OR SWAP3 POP POP POP SWAP4 SWAP3 POP POP POP JUMP JUMPDEST PUSH1 0x0 DUP2 SWAP1 POP SWAP2 SWAP1 POP JUMP JUMPDEST PUSH1 0x0 DUP2 SWAP1 POP SWAP2 SWAP1 POP JUMP JUMPDEST PUSH1 0x0 PUSH2 0x409 PUSH2 0x404 PUSH2 0x3FF DUP5 PUSH2 0x3DA JUMP JUMPDEST PUSH2 0x3E4 JUMP JUMPDEST PUSH2 0x3DA JUMP JUMPDEST SWAP1 POP SWAP2 SWAP1 POP JUMP JUMPDEST PUSH1 0x0 DUP2 SWAP1 POP SWAP2 SWAP1 POP JUMP JUMPDEST PUSH2 0x423 DUP4 PUSH2 0x3EE JUMP JUMPDEST PUSH2 0x437 PUSH2 0x42F DUP3 PUSH2 0x410 JUMP JUMPDEST DUP5 DUP5 SLOAD PUSH2 0x388 JUMP JUMPDEST DUP3 SSTORE POP POP POP POP JUMP JUMPDEST PUSH1 0x0 SWAP1 JUMP JUMPDEST PUSH2 0x44C PUSH2 0x43F JUMP JUMPDEST PUSH2 0x457 DUP2 DUP5 DUP5 PUSH2 0x41A JUMP JUMPDEST POP POP POP JUMP JUMPDEST JUMPDEST DUP2 DUP2 LT ISZERO PUSH2 0x47B JUMPI PUSH2 0x470 PUSH1 0x0 DUP3 PUSH2 0x444 JUMP JUMPDEST PUSH1 0x1 DUP2 ADD SWAP1 POP PUSH2 0x45D JUMP JUMPDEST POP POP JUMP JUMPDEST PUSH1 0x1F DUP3 GT ISZERO PUSH2 0x4C0 JUMPI PUSH2 0x491 DUP2 PUSH2 0x356 JUMP JUMPDEST PUSH2 0x49A DUP5 PUSH2 0x36B JUMP JUMPDEST DUP2 ADD PUSH1 0x20 DUP6 LT ISZERO PUSH2 0x4A9 JUMPI DUP2 SWAP1 POP JUMPDEST PUSH2 0x4BD PUSH2 0x4B5 DUP6 PUSH2 0x36B JUMP JUMPDEST DUP4 ADD DUP3 PUSH2 0x45C JUMP JUMPDEST POP POP JUMPDEST POP POP POP JUMP JUMPDEST PUSH1 0x0 DUP3 DUP3 SHR SWAP1 POP SWAP3 SWAP2 POP POP JUMP JUMPDEST PUSH1 0x0 PUSH2 0x4E3 PUSH1 0x0 NOT DUP5 PUSH1 0x8 MUL PUSH2 0x4C5 JUMP JUMPDEST NOT DUP1 DUP4 AND SWAP2 POP POP SWAP3 SWAP2 POP POP JUMP JUMPDEST PUSH1 0x0 PUSH2 0x4FC DUP4 DUP4 PUSH2 0x4D2 JUMP JUMPDEST SWAP2 POP DUP3 PUSH1 0x2 MUL DUP3 OR SWAP1 POP SWAP3 SWAP2 POP POP JUMP JUMPDEST PUSH2 0x515 DUP3 PUSH2 0x2BC JUMP JUMPDEST PUSH8 0xFFFFFFFFFFFFFFFF DUP2 GT ISZERO PUSH2 0x52E JUMPI PUSH2 0x52D PUSH2 0x2C7 JUMP JUMPDEST JUMPDEST PUSH2 0x538 DUP3 SLOAD PUSH2 0x325 JUMP JUMPDEST PUSH2 0x543 DUP3 DUP3 DUP6 PUSH2 0x47F JUMP JUMPDEST PUSH1 0x0 PUSH1 0x20 SWAP1 POP PUSH1 0x1F DUP4 GT PUSH1 0x1 DUP2 EQ PUSH2 0x576 JUMPI PUSH1 0x0 DUP5 ISZERO PUSH2 0x564 JUMPI DUP3 DUP8 ADD MLOAD SWAP1 POP JUMPDEST PUSH2 0x56E DUP6 DUP3 PUSH2 0x4F0 JUMP JUMPDEST DUP7 SSTORE POP PUSH2 0x5D6 JUMP JUMPDEST PUSH1 0x1F NOT DUP5 AND PUSH2 0x584 DUP7 PUSH2 0x356 JUMP JUMPDEST PUSH1 0x0 JUMPDEST DUP3 DUP2 LT ISZERO PUSH2 0x5AC JUMPI DUP5 DUP10 ADD MLOAD DUP3 SSTORE PUSH1 0x1 DUP3 ADD SWAP2 POP PUSH1 0x20 DUP6 ADD SWAP5 POP PUSH1 0x20 DUP2 ADD SWAP1 POP PUSH2 0x587 JUMP JUMPDEST DUP7 DUP4 LT ISZERO PUSH2 0x5C9 JUMPI DUP5 DUP10 ADD MLOAD PUSH2 0x5C5 PUSH1 0x1F DUP10 AND DUP3 PUSH2 0x4D2 JUMP JUMPDEST DUP4 SSTORE POP JUMPDEST PUSH1 0x1 PUSH1 0x2 DUP9 MUL ADD DUP9 SSTORE POP POP POP JUMPDEST POP POP POP POP POP POP JUMP JUMPDEST PUSH2 0x5E7 DUP2 PUSH2 0x251 JUMP JUMPDEST DUP3 MSTORE POP POP JUMP JUMPDEST PUSH1 0x0 PUSH1 0x20 DUP3 ADD SWAP1 POP PUSH2 0x602 PUSH1 0x0 DUP4 ADD DUP5 PUSH2 0x5DE JUMP JUMPDEST SWAP3 SWAP2 POP POP JUMP JUMPDEST PUSH2 0x3F3B DUP1 PUSH2 0x617 PUSH1 0x0 CODECOPY PUSH1 0x0 RETURN INVALID PUSH1 0x80 PUSH1 0x40 MSTORE CALLVALUE DUP1 ISZERO PUSH2 0x10 JUMPI PUSH1 0x0 DUP1 REVERT JUMPDEST POP PUSH1 0x4 CALLDATASIZE LT PUSH2 0x116 JUMPI PUSH1 0x0 CALLDATALOAD PUSH1 0xE0 SHR DUP1 PUSH4 0x8DA5CB5B GT PUSH2 0xA2 JUMPI DUP1 PUSH4 0xBAA2ABDE GT PUSH2 0x71 JUMPI DUP1 PUSH4 0xBAA2ABDE EQ PUSH2 0x30B JUMPI DUP1 PUSH4 0xD52BB6F4 EQ PUSH2 0x33C JUMPI DUP1 PUSH4 0xDD62ED3E EQ PUSH2 0x36D JUMPI DUP1 PUSH4 0xE8E33700 EQ PUSH2 0x39D JUMPI DUP1 PUSH4 0xF2FDE38B EQ PUSH2 0x3CF JUMPI PUSH2 0x116 JUMP JUMPDEST DUP1 PUSH4 0x8DA5CB5B EQ PUSH2 0x26F JUMPI DUP1 PUSH4 0x95D89B41 EQ PUSH2 0x28D JUMPI DUP1 PUSH4 0xA9059CBB EQ PUSH2 0x2AB JUMPI DUP1 PUSH4 0xAC41865A EQ PUSH2 0x2DB JUMPI PUSH2 0x116 JUMP JUMPDEST DUP1 PUSH4 0x23B872DD GT PUSH2 0xE9 JUMPI DUP1 PUSH4 0x23B872DD EQ PUSH2 0x1B7 JUMPI DUP1 PUSH4 0x313CE567 EQ PUSH2 0x1E7 JUMPI DUP1 PUSH4 0x38ED1739 EQ PUSH2 0x205 JUMPI DUP1 PUSH4 0x70A08231 EQ PUSH2 0x235 JUMPI DUP1 PUSH4 0x715018A6 EQ PUSH2 0x265 JUMPI PUSH2 0x116 JUMP JUMPDEST DUP1 PUSH4 0x54D50D4 EQ PUSH2 0x11B JUMPI DUP1 PUSH4 0x6FDDE03 EQ PUSH2 0x14B JUMPI DUP1 PUSH4 0x95EA7B3 EQ PUSH2 0x169 JUMPI DUP1 PUSH4 0x18160DDD EQ PUSH2 0x199 JUMPI JUMPDEST PUSH1 0x0 DUP1 REVERT JUMPDEST PUSH2 0x135 PUSH1 0x4 DUP1 CALLDATASIZE SUB DUP2 ADD SWAP1 PUSH2 0x130 SWAP2 SWAP1 PUSH2 0x2F7B JUMP JUMPDEST PUSH2 0x3EB JUMP JUMPDEST PUSH1 0x40 MLOAD PUSH2 0x142 SWAP2 SWAP1 PUSH2 0x2FDD JUMP JUMPDEST PUSH1 0x40 MLOAD DUP1 SWAP2 SUB SWAP1 RETURN JUMPDEST PUSH2 0x153 PUSH2 0x429 JUMP JUMPDEST PUSH1 0x40 MLOAD PUSH2 0x160 SWAP2 SWAP1 PUSH2 0x3088 JUMP JUMPDEST PUSH1 0x40 MLOAD DUP1 SWAP2 SUB SWAP1 RETURN JUMPDEST PUSH2 0x183 PUSH1 0x4 DUP1 CALLDATASIZE SUB DUP2 ADD SWAP1 PUSH2 0x17E SWAP2 SWAP1 PUSH2 0x3108 JUMP JUMPDEST PUSH2 0x4BB JUMP JUMPDEST PUSH1 0x40 MLOAD PUSH2 0x190 SWAP2 SWAP1 PUSH2 0x3163 JUMP JUMPDEST PUSH1 0x40 MLOAD DUP1 SWAP2 SUB SWAP1 RETURN JUMPDEST PUSH2 0x1A1 PUSH2 0x4DE JUMP JUMPDEST PUSH1 0x40 MLOAD PUSH2 0x1AE SWAP2 SWAP1 PUSH2 0x2FDD JUMP JUMPDEST PUSH1 0x40 MLOAD DUP1 SWAP2 SUB SWAP1 RETURN JUMPDEST PUSH2 0x1D1 PUSH1 0x4 DUP1 CALLDATASIZE SUB DUP2 ADD SWAP1 PUSH2 0x1CC SWAP2 SWAP1 PUSH2 0x317E JUMP JUMPDEST PUSH2 0x4E8 JUMP JUMPDEST PUSH1 0x40 MLOAD PUSH2 0x1DE SWAP2 SWAP1 PUSH2 0x3163 JUMP JUMPDEST PUSH1 0x40 MLOAD DUP1 SWAP2 SUB SWAP1 RETURN JUMPDEST PUSH2 0x1EF PUSH2 0x517 JUMP JUMPDEST PUSH1 0x40 MLOAD PUSH2 0x1FC SWAP2 SWAP1 PUSH2 0x31ED JUMP JUMPDEST PUSH1 0x40 MLOAD DUP1 SWAP2 SUB SWAP1 RETURN JUMPDEST PUSH2 0x21F PUSH1 0x4 DUP1 CALLDATASIZE SUB DUP2 ADD SWAP1 PUSH2 0x21A SWAP2 SWAP1 PUSH2 0x326D JUMP JUMPDEST PUSH2 0x520 JUMP JUMPDEST PUSH1 0x40 MLOAD PUSH2 0x22C SWAP2 SWAP1 PUSH2 0x33C5 JUMP JUMPDEST PUSH1 0x40 MLOAD DUP1 SWAP2 SUB SWAP1 RETURN JUMPDEST PUSH2 0x24F PUSH1 0x4 DUP1 CALLDATASIZE SUB DUP2 ADD SWAP1 PUSH2 0x24A SWAP2 SWAP1 PUSH2 0x33E7 JUMP JUMPDEST PUSH2 0xB46 JUMP JUMPDEST PUSH1 0x40 MLOAD PUSH2 0x25C SWAP2 SWAP1 PUSH2 0x2FDD JUMP JUMPDEST PUSH1 0x40 MLOAD DUP1 SWAP2 SUB SWAP1 RETURN JUMPDEST PUSH2 0x26D PUSH2 0xB8E JUMP JUMPDEST STOP JUMPDEST PUSH2 0x277 PUSH2 0xBA2 JUMP JUMPDEST PUSH1 0x40 MLOAD PUSH2 0x284 SWAP2 SWAP1 PUSH2 0x3423 JUMP JUMPDEST PUSH1 0x40 MLOAD DUP1 SWAP2 SUB SWAP1 RETURN JUMPDEST PUSH2 0x295 PUSH2 0xBCC JUMP JUMPDEST PUSH1 0x40 MLOAD PUSH2 0x2A2 SWAP2 SWAP1 PUSH2 0x3088 JUMP JUMPDEST PUSH1 0x40 MLOAD DUP1 SWAP2 SUB SWAP1 RETURN JUMPDEST PUSH2 0x2C5 PUSH1 0x4 DUP1 CALLDATASIZE SUB DUP2 ADD SWAP1 PUSH2 0x2C0 SWAP2 SWAP1 PUSH2 0x3108 JUMP JUMPDEST PUSH2 0xC5E JUMP JUMPDEST PUSH1 0x40 MLOAD PUSH2 0x2D2 SWAP2 SWAP1 PUSH2 0x3163 JUMP JUMPDEST PUSH1 0x40 MLOAD DUP1 SWAP2 SUB SWAP1 RETURN JUMPDEST PUSH2 0x2F5 PUSH1 0x4 DUP1 CALLDATASIZE SUB DUP2 ADD SWAP1 PUSH2 0x2F0 SWAP2 SWAP1 PUSH2 0x343E JUMP JUMPDEST PUSH2 0xC81 JUMP JUMPDEST PUSH1 0x40 MLOAD PUSH2 0x302 SWAP2 SWAP1 PUSH2 0x2FDD JUMP JUMPDEST PUSH1 0x40 MLOAD DUP1 SWAP2 SUB SWAP1 RETURN JUMPDEST PUSH2 0x325 PUSH1 0x4 DUP1 CALLDATASIZE SUB DUP2 ADD SWAP1 PUSH2 0x320 SWAP2 SWAP1 PUSH2 0x347E JUMP JUMPDEST PUSH2 0xDA0 JUMP JUMPDEST PUSH1 0x40 MLOAD PUSH2 0x333 SWAP3 SWAP2 SWAP1 PUSH2 0x3520 JUMP JUMPDEST PUSH1 0x40 MLOAD DUP1 SWAP2 SUB SWAP1 RETURN JUMPDEST PUSH2 0x356 PUSH1 0x4 DUP1 CALLDATASIZE SUB DUP2 ADD SWAP1 PUSH2 0x351 SWAP2 SWAP1 PUSH2 0x343E JUMP JUMPDEST PUSH2 0x1210 JUMP JUMPDEST PUSH1 0x40 MLOAD PUSH2 0x364 SWAP3 SWAP2 SWAP1 PUSH2 0x3520 JUMP JUMPDEST PUSH1 0x40 MLOAD DUP1 SWAP2 SUB SWAP1 RETURN JUMPDEST PUSH2 0x387 PUSH1 0x4 DUP1 CALLDATASIZE SUB DUP2 ADD SWAP1 PUSH2 0x382 SWAP2 SWAP1 PUSH2 0x343E JUMP JUMPDEST PUSH2 0x1254 JUMP JUMPDEST PUSH1 0x40 MLOAD PUSH2 0x394 SWAP2 SWAP1 PUSH2 0x2FDD JUMP JUMPDEST PUSH1 0x40 MLOAD DUP1 SWAP2 SUB SWAP1 RETURN JUMPDEST PUSH2 0x3B7 PUSH1 0x4 DUP1 CALLDATASIZE SUB DUP2 ADD SWAP1 PUSH2 0x3B2 SWAP2 SWAP1 PUSH2 0x3549 JUMP JUMPDEST PUSH2 0x12DB JUMP JUMPDEST PUSH1 0x40 MLOAD PUSH2 0x3C6 SWAP4 SWAP3 SWAP2 SWAP1 PUSH2 0x35FF JUMP JUMPDEST PUSH1 0x40 MLOAD DUP1 SWAP2 SUB SWAP1 RETURN JUMPDEST PUSH2 0x3E9 PUSH1 0x4 DUP1 CALLDATASIZE SUB DUP2 ADD SWAP1 PUSH2 0x3E4 SWAP2 SWAP1 PUSH2 0x33E7 JUMP JUMPDEST PUSH2 0x15EA JUMP JUMPDEST STOP JUMPDEST PUSH1 0x0 PUSH2 0x401 PUSH8 0xC9093450D2B0D52 PUSH1 0xC0 SHL PUSH2 0x1670 JUMP JUMPDEST PUSH2 0x415 PUSH8 0xA0CF65E232FEDEC9 PUSH1 0xC0 SHL PUSH2 0x1670 JUMP JUMPDEST PUSH2 0x420 DUP5 DUP5 DUP5 PUSH2 0x1673 JUMP JUMPDEST SWAP1 POP SWAP4 SWAP3 POP POP POP JUMP JUMPDEST PUSH1 0x60 PUSH1 0x3 DUP1 SLOAD PUSH2 0x438 SWAP1 PUSH2 0x3665 JUMP JUMPDEST DUP1 PUSH1 0x1F ADD PUSH1 0x20 DUP1 SWAP2 DIV MUL PUSH1 0x20 ADD PUSH1 0x40 MLOAD SWAP1 DUP2 ADD PUSH1 0x40 MSTORE DUP1 SWAP3 SWAP2 SWAP1 DUP2 DUP2 MSTORE PUSH1 0x20 ADD DUP3 DUP1 SLOAD PUSH2 0x464 SWAP1 PUSH2 0x3665 JUMP JUMPDEST DUP1 ISZERO PUSH2 0x4B1 JUMPI DUP1 PUSH1 0x1F LT PUSH2 0x486 JUMPI PUSH2 0x100 DUP1 DUP4 SLOAD DIV MUL DUP4 MSTORE SWAP2 PUSH1 0x20 ADD SWAP2 PUSH2 0x4B1 JUMP JUMPDEST DUP3 ADD SWAP2 SWAP1 PUSH1 0x0 MSTORE PUSH1 0x20 PUSH1 0x0 KECCAK256 SWAP1 JUMPDEST DUP2 SLOAD DUP2 MSTORE SWAP1 PUSH1 0x1 ADD SWAP1 PUSH1 0x20 ADD DUP1 DUP4 GT PUSH2 0x494 JUMPI DUP3 SWAP1 SUB PUSH1 0x1F AND DUP3 ADD SWAP2 JUMPDEST POP POP POP POP POP SWAP1 POP SWAP1 JUMP JUMPDEST PUSH1 0x0 DUP1 PUSH2 0x4C6 PUSH2 0x17FA JUMP JUMPDEST SWAP1 POP PUSH2 0x4D3 DUP2 DUP6 DUP6 PUSH2 0x1802 JUMP JUMPDEST PUSH1 0x1 SWAP2 POP POP SWAP3 SWAP2 POP POP JUMP JUMPDEST PUSH1 0x0 PUSH1 0x2 SLOAD SWAP1 POP SWAP1 JUMP JUMPDEST PUSH1 0x0 DUP1 PUSH2 0x4F3 PUSH2 0x17FA JUMP JUMPDEST SWAP1 POP PUSH2 0x500 DUP6 DUP3 DUP6 PUSH2 0x1814 JUMP JUMPDEST PUSH2 0x50B DUP6 DUP6 DUP6 PUSH2 0x18A9 JUMP JUMPDEST PUSH1 0x1 SWAP2 POP POP SWAP4 SWAP3 POP POP POP JUMP JUMPDEST PUSH1 0x0 PUSH1 0x12 SWAP1 POP SWAP1 JUMP JUMPDEST PUSH1 0x60 PUSH2 0x536 PUSH8 0x4CA16099319CB3AB PUSH1 0xC0 SHL PUSH2 0x1670 JUMP JUMPDEST PUSH2 0x54A PUSH8 0x17B1EE6AEE6F79B4 PUSH1 0xC0 SHL PUSH2 0x1670 JUMP JUMPDEST PUSH2 0x55E PUSH8 0xABFFA5E74ABE543A PUSH1 0xC0 SHL PUSH2 0x1670 JUMP JUMPDEST PUSH2 0x572 PUSH8 0xAF4A414925B0ACEA PUSH1 0xC0 SHL PUSH2 0x1670 JUMP JUMPDEST DUP2 TIMESTAMP GT ISZERO PUSH2 0x5B5 JUMPI PUSH1 0x40 MLOAD PUSH32 0x8C379A000000000000000000000000000000000000000000000000000000000 DUP2 MSTORE PUSH1 0x4 ADD PUSH2 0x5AC SWAP1 PUSH2 0x36E2 JUMP JUMPDEST PUSH1 0x40 MLOAD DUP1 SWAP2 SUB SWAP1 REVERT JUMPDEST PUSH2 0x5C9 PUSH8 0x3C4331C7B7516D99 PUSH1 0xC0 SHL PUSH2 0x1670 JUMP JUMPDEST PUSH2 0x5DD PUSH8 0x2CFA1BA2227765D7 PUSH1 0xC0 SHL PUSH2 0x1670 JUMP JUMPDEST PUSH2 0x5F1 PUSH8 0x35CC557C8841E368 PUSH1 0xC0 SHL PUSH2 0x1670 JUMP JUMPDEST PUSH2 0x605 PUSH8 0xE924D522820F6B9A PUSH1 0xC0 SHL PUSH2 0x1670 JUMP JUMPDEST PUSH1 0x2 DUP6 DUP6 SWAP1 POP EQ PUSH2 0x64B JUMPI PUSH1 0x40 MLOAD PUSH32 0x8C379A000000000000000000000000000000000000000000000000000000000 DUP2 MSTORE PUSH1 0x4 ADD PUSH2 0x642 SWAP1 PUSH2 0x374E JUMP JUMPDEST PUSH1 0x40 MLOAD DUP1 SWAP2 SUB SWAP1 REVERT JUMPDEST PUSH2 0x65F PUSH8 0x1777CABB58D1D20F PUSH1 0xC0 SHL PUSH2 0x1670 JUMP JUMPDEST PUSH2 0x673 PUSH8 0xC16F82D4CCC0EA3C PUSH1 0xC0 SHL PUSH2 0x1670 JUMP JUMPDEST PUSH2 0x687 PUSH8 0x786779FACFBA39C6 PUSH1 0xC0 SHL PUSH2 0x1670 JUMP JUMPDEST PUSH1 0x0 DUP6 DUP6 PUSH1 0x0 DUP2 DUP2 LT PUSH2 0x69D JUMPI PUSH2 0x69C PUSH2 0x376E JUMP JUMPDEST JUMPDEST SWAP1 POP PUSH1 0x20 MUL ADD PUSH1 0x20 DUP2 ADD SWAP1 PUSH2 0x6B2 SWAP2 SWAP1 PUSH2 0x33E7 JUMP JUMPDEST SWAP1 POP PUSH2 0x6C8 PUSH8 0xAEFC308C89440164 PUSH1 0xC0 SHL PUSH2 0x1670 JUMP JUMPDEST PUSH2 0x6DC PUSH8 0x9BA4048C89BDFAC4 PUSH1 0xC0 SHL PUSH2 0x1670 JUMP JUMPDEST PUSH1 0x0 DUP7 DUP7 PUSH1 0x1 DUP2 DUP2 LT PUSH2 0x6F2 JUMPI PUSH2 0x6F1 PUSH2 0x376E JUMP JUMPDEST JUMPDEST SWAP1 POP PUSH1 0x20 MUL ADD PUSH1 0x20 DUP2 ADD SWAP1 PUSH2 0x707 SWAP2 SWAP1 PUSH2 0x33E7 JUMP JUMPDEST SWAP1 POP PUSH2 0x71D PUSH8 0xD18C2C4B6DE989CA PUSH1 0xC0 SHL PUSH2 0x1670 JUMP JUMPDEST PUSH2 0x731 PUSH8 0xEB5B67958E25003E PUSH1 0xC0 SHL PUSH2 0x1670 JUMP JUMPDEST PUSH1 0x0 DUP1 PUSH2 0x73E DUP5 DUP5 PUSH2 0x199D JUMP JUMPDEST SWAP2 POP SWAP2 POP PUSH2 0x756 PUSH8 0x7EDF24413EB06DB3 PUSH1 0xC0 SHL PUSH2 0x1670 JUMP JUMPDEST PUSH2 0x76A PUSH8 0xF0894DA35F622FA9 PUSH1 0xC0 SHL PUSH2 0x1670 JUMP JUMPDEST PUSH2 0x77E PUSH8 0x8917496B53E2BF2 PUSH1 0xC0 SHL PUSH2 0x1670 JUMP JUMPDEST PUSH1 0x0 DUP3 GT DUP1 ISZERO PUSH2 0x78E JUMPI POP PUSH1 0x0 DUP2 GT JUMPDEST PUSH2 0x7CD JUMPI PUSH1 0x40 MLOAD PUSH32 0x8C379A000000000000000000000000000000000000000000000000000000000 DUP2 MSTORE PUSH1 0x4 ADD PUSH2 0x7C4 SWAP1 PUSH2 0x37E9 JUMP JUMPDEST PUSH1 0x40 MLOAD DUP1 SWAP2 SUB SWAP1 REVERT JUMPDEST PUSH2 0x7E1 PUSH8 0xC5B09C2F976CD4CB PUSH1 0xC0 SHL PUSH2 0x1670 JUMP JUMPDEST PUSH2 0x7F5 PUSH8 0xF51A660F718A8039 PUSH1 0xC0 SHL PUSH2 0x1670 JUMP JUMPDEST PUSH2 0x809 PUSH8 0x36AAF519CFC4A129 PUSH1 0xC0 SHL PUSH2 0x1670 JUMP JUMPDEST PUSH1 0x0 PUSH2 0x816 DUP13 DUP5 DUP5 PUSH2 0x1673 JUMP JUMPDEST SWAP1 POP PUSH2 0x82C PUSH8 0x13D16B97E71F4C65 PUSH1 0xC0 SHL PUSH2 0x1670 JUMP JUMPDEST PUSH2 0x840 PUSH8 0xA7CC272B907314D7 PUSH1 0xC0 SHL PUSH2 0x1670 JUMP JUMPDEST PUSH2 0x854 PUSH8 0x6021435077F34020 PUSH1 0xC0 SHL PUSH2 0x1670 JUMP JUMPDEST DUP11 DUP2 LT ISZERO PUSH2 0x897 JUMPI PUSH1 0x40 MLOAD PUSH32 0x8C379A000000000000000000000000000000000000000000000000000000000 DUP2 MSTORE PUSH1 0x4 ADD PUSH2 0x88E SWAP1 PUSH2 0x3855 JUMP JUMPDEST PUSH1 0x40 MLOAD DUP1 SWAP2 SUB SWAP1 REVERT JUMPDEST PUSH2 0x8AB PUSH8 0x8A09AFAA1A55AF1B PUSH1 0xC0 SHL PUSH2 0x1670 JUMP JUMPDEST PUSH2 0x8BF PUSH8 0xC4A719D5A98B0091 PUSH1 0xC0 SHL PUSH2 0x1670 JUMP JUMPDEST PUSH2 0x8D3 PUSH8 0xDDDCF8D74EEFCBEA PUSH1 0xC0 SHL PUSH2 0x1670 JUMP JUMPDEST DUP5 PUSH20 0xFFFFFFFFFFFFFFFFFFFFFFFFFFFFFFFFFFFFFFFF AND PUSH4 0x23B872DD CALLER ADDRESS DUP16 PUSH1 0x40 MLOAD DUP5 PUSH4 0xFFFFFFFF AND PUSH1 0xE0 SHL DUP2 MSTORE PUSH1 0x4 ADD PUSH2 0x910 SWAP4 SWAP3 SWAP2 SWAP1 PUSH2 0x3875 JUMP JUMPDEST PUSH1 0x20 PUSH1 0x40 MLOAD DUP1 DUP4 SUB DUP2 PUSH1 0x0 DUP8 GAS CALL ISZERO DUP1 ISZERO PUSH2 0x92F JUMPI RETURNDATASIZE PUSH1 0x0 DUP1 RETURNDATACOPY RETURNDATASIZE PUSH1 0x0 REVERT JUMPDEST POP POP POP POP PUSH1 0x40 MLOAD RETURNDATASIZE PUSH1 0x1F NOT PUSH1 0x1F DUP3 ADD AND DUP3 ADD DUP1 PUSH1 0x40 MSTORE POP DUP2 ADD SWAP1 PUSH2 0x953 SWAP2 SWAP1 PUSH2 0x38D8 JUMP JUMPDEST POP PUSH2 0x968 PUSH8 0xB3C157F4E37A558 PUSH1 0xC0 SHL PUSH2 0x1670 JUMP JUMPDEST PUSH2 0x97C PUSH8 0x33AB110AF976721E PUSH1 0xC0 SHL PUSH2 0x1670 JUMP JUMPDEST DUP4 PUSH20 0xFFFFFFFFFFFFFFFFFFFFFFFFFFFFFFFFFFFFFFFF AND PUSH4 0xA9059CBB DUP10 DUP4 PUSH1 0x40 MLOAD DUP4 PUSH4 0xFFFFFFFF AND PUSH1 0xE0 SHL DUP2 MSTORE PUSH1 0x4 ADD PUSH2 0x9B7 SWAP3 SWAP2 SWAP1 PUSH2 0x3905 JUMP JUMPDEST PUSH1 0x20 PUSH1 0x40 MLOAD DUP1 DUP4 SUB DUP2 PUSH1 0x0 DUP8 GAS CALL ISZERO DUP1 ISZERO PUSH2 0x9D6 JUMPI RETURNDATASIZE PUSH1 0x0 DUP1 RETURNDATACOPY RETURNDATASIZE PUSH1 0x0 REVERT JUMPDEST POP POP POP POP PUSH1 0x40 MLOAD RETURNDATASIZE PUSH1 0x1F NOT PUSH1 0x1F DUP3 ADD AND DUP3 ADD DUP1 PUSH1 0x40 MSTORE POP DUP2 ADD SWAP1 PUSH2 0x9FA SWAP2 SWAP1 PUSH2 0x38D8 JUMP JUMPDEST POP PUSH2 0xA0F PUSH8 0x90AD27796247F1DF PUSH1 0xC0 SHL PUSH2 0x1670 JUMP JUMPDEST PUSH2 0xA23 PUSH8 0x759993905F04EF9E PUSH1 0xC0 SHL PUSH2 0x1670 JUMP JUMPDEST PUSH2 0xA45 DUP6 DUP6 DUP15 DUP7 PUSH2 0xA34 SWAP2 SWAP1 PUSH2 0x395D JUMP JUMPDEST DUP5 DUP7 PUSH2 0xA40 SWAP2 SWAP1 PUSH2 0x3991 JUMP JUMPDEST PUSH2 0x1B5E JUMP JUMPDEST PUSH2 0xA59 PUSH8 0xD381A7964E070F44 PUSH1 0xC0 SHL PUSH2 0x1670 JUMP JUMPDEST PUSH1 0x2 PUSH8 0xFFFFFFFFFFFFFFFF DUP2 GT ISZERO PUSH2 0xA74 JUMPI PUSH2 0xA73 PUSH2 0x39C5 JUMP JUMPDEST JUMPDEST PUSH1 0x40 MLOAD SWAP1 DUP1 DUP3 MSTORE DUP1 PUSH1 0x20 MUL PUSH1 0x20 ADD DUP3 ADD PUSH1 0x40 MSTORE DUP1 ISZERO PUSH2 0xAA2 JUMPI DUP2 PUSH1 0x20 ADD PUSH1 0x20 DUP3 MUL DUP1 CALLDATASIZE DUP4 CALLDATACOPY DUP1 DUP3 ADD SWAP2 POP POP SWAP1 POP JUMPDEST POP SWAP6 POP PUSH2 0xAB9 PUSH8 0x9F2911AD4E2437E8 PUSH1 0xC0 SHL PUSH2 0x1670 JUMP JUMPDEST DUP12 DUP7 PUSH1 0x0 DUP2 MLOAD DUP2 LT PUSH2 0xACE JUMPI PUSH2 0xACD PUSH2 0x376E JUMP JUMPDEST JUMPDEST PUSH1 0x20 MUL PUSH1 0x20 ADD ADD DUP2 DUP2 MSTORE POP POP PUSH2 0xAEE PUSH8 0x1E3818E84646E8A6 PUSH1 0xC0 SHL PUSH2 0x1670 JUMP JUMPDEST DUP1 DUP7 PUSH1 0x1 DUP2 MLOAD DUP2 LT PUSH2 0xB03 JUMPI PUSH2 0xB02 PUSH2 0x376E JUMP JUMPDEST JUMPDEST PUSH1 0x20 MUL PUSH1 0x20 ADD ADD DUP2 DUP2 MSTORE POP POP PUSH2 0xB23 PUSH8 0xD1DE7E278450DA9A PUSH1 0xC0 SHL PUSH2 0x1670 JUMP JUMPDEST PUSH2 0xB37 PUSH8 0xD9A0CC919DF487D PUSH1 0xC0 SHL PUSH2 0x1670 JUMP JUMPDEST POP POP POP POP POP SWAP7 SWAP6 POP POP POP POP POP POP JUMP JUMPDEST PUSH1 0x0 DUP1 PUSH1 0x0 DUP4 PUSH20 0xFFFFFFFFFFFFFFFFFFFFFFFFFFFFFFFFFFFFFFFF AND PUSH20 0xFFFFFFFFFFFFFFFFFFFFFFFFFFFFFFFFFFFFFFFF AND DUP2 MSTORE PUSH1 0x20 ADD SWAP1 DUP2 MSTORE PUSH1 0x20 ADD PUSH1 0x0 KECCAK256 SLOAD SWAP1 POP SWAP2 SWAP1 POP JUMP JUMPDEST PUSH2 0xB96 PUSH2 0x1E8D JUMP JUMPDEST PUSH2 0xBA0 PUSH1 0x0 PUSH2 0x1F14 JUMP JUMPDEST JUMP JUMPDEST PUSH1 0x0 PUSH1 0x5 PUSH1 0x0 SWAP1 SLOAD SWAP1 PUSH2 0x100 EXP SWAP1 DIV PUSH20 0xFFFFFFFFFFFFFFFFFFFFFFFFFFFFFFFFFFFFFFFF AND SWAP1 POP SWAP1 JUMP JUMPDEST PUSH1 0x60 PUSH1 0x4 DUP1 SLOAD PUSH2 0xBDB SWAP1 PUSH2 0x3665 JUMP JUMPDEST DUP1 PUSH1 0x1F ADD PUSH1 0x20 DUP1 SWAP2 DIV MUL PUSH1 0x20 ADD PUSH1 0x40 MLOAD SWAP1 DUP2 ADD PUSH1 0x40 MSTORE DUP1 SWAP3 SWAP2 SWAP1 DUP2 DUP2 MSTORE PUSH1 0x20 ADD DUP3 DUP1 SLOAD PUSH2 0xC07 SWAP1 PUSH2 0x3665 JUMP JUMPDEST DUP1 ISZERO PUSH2 0xC54 JUMPI DUP1 PUSH1 0x1F LT PUSH2 0xC29 JUMPI PUSH2 0x100 DUP1 DUP4 SLOAD DIV MUL DUP4 MSTORE SWAP2 PUSH1 0x20 ADD SWAP2 PUSH2 0xC54 JUMP JUMPDEST DUP3 ADD SWAP2 SWAP1 PUSH1 0x0 MSTORE PUSH1 0x20 PUSH1 0x0 KECCAK256 SWAP1 JUMPDEST DUP2 SLOAD DUP2 MSTORE SWAP1 PUSH1 0x1 ADD SWAP1 PUSH1 0x20 ADD DUP1 DUP4 GT PUSH2 0xC37 JUMPI DUP3 SWAP1 SUB PUSH1 0x1F AND DUP3 ADD SWAP2 JUMPDEST POP POP POP POP POP SWAP1 POP SWAP1 JUMP JUMPDEST PUSH1 0x0 DUP1 PUSH2 0xC69 PUSH2 0x17FA JUMP JUMPDEST SWAP1 POP PUSH2 0xC76 DUP2 DUP6 DUP6 PUSH2 0x18A9 JUMP JUMPDEST PUSH1 0x1 SWAP2 POP POP SWAP3 SWAP2 POP POP JUMP JUMPDEST PUSH1 0x0 PUSH2 0xC97 PUSH8 0xD88FBBBAABA024F5 PUSH1 0xC0 SHL PUSH2 0x1670 JUMP JUMPDEST PUSH2 0xCAB PUSH8 0x3FB42AEC58BDB8E8 PUSH1 0xC0 SHL PUSH2 0x1670 JUMP JUMPDEST PUSH2 0xCBF PUSH8 0xB6567C9F8DCB133 PUSH1 0xC0 SHL PUSH2 0x1670 JUMP JUMPDEST PUSH1 0x0 DUP1 PUSH2 0xCCC DUP6 DUP6 PUSH2 0x199D JUMP JUMPDEST SWAP2 POP SWAP2 POP PUSH2 0xCE4 PUSH8 0x7DA4D3F919BBE3A2 PUSH1 0xC0 SHL PUSH2 0x1670 JUMP JUMPDEST PUSH2 0xCF8 PUSH8 0x9820171E454DDC64 PUSH1 0xC0 SHL PUSH2 0x1670 JUMP JUMPDEST PUSH2 0xD0C PUSH8 0x32C3A675BF189567 PUSH1 0xC0 SHL PUSH2 0x1670 JUMP JUMPDEST PUSH1 0x0 DUP3 GT PUSH2 0xD4F JUMPI PUSH1 0x40 MLOAD PUSH32 0x8C379A000000000000000000000000000000000000000000000000000000000 DUP2 MSTORE PUSH1 0x4 ADD PUSH2 0xD46 SWAP1 PUSH2 0x3A40 JUMP JUMPDEST PUSH1 0x40 MLOAD DUP1 SWAP2 SUB SWAP1 REVERT JUMPDEST PUSH2 0xD63 PUSH8 0x4E9EDA429DA158E9 PUSH1 0xC0 SHL PUSH2 0x1670 JUMP JUMPDEST PUSH2 0xD77 PUSH8 0xAB8CF7CD311F6CB7 PUSH1 0xC0 SHL PUSH2 0x1670 JUMP JUMPDEST DUP2 PUSH8 0xDE0B6B3A7640000 DUP3 PUSH2 0xD8C SWAP2 SWAP1 PUSH2 0x3A60 JUMP JUMPDEST PUSH2 0xD96 SWAP2 SWAP1 PUSH2 0x3AD1 JUMP JUMPDEST SWAP3 POP POP POP SWAP3 SWAP2 POP POP JUMP JUMPDEST PUSH1 0x0 DUP1 PUSH2 0xDB7 PUSH8 0xADD03CF678052A0E PUSH1 0xC0 SHL PUSH2 0x1670 JUMP JUMPDEST PUSH2 0xDCB PUSH8 0xFF1ABBEE0882BDD5 PUSH1 0xC0 SHL PUSH2 0x1670 JUMP JUMPDEST PUSH2 0xDDF PUSH8 0x6FC747DC5E663EDC PUSH1 0xC0 SHL PUSH2 0x1670 JUMP JUMPDEST PUSH2 0xDF3 PUSH8 0xD27C4D7E737FBDE0 PUSH1 0xC0 SHL PUSH2 0x1670 JUMP JUMPDEST DUP3 TIMESTAMP GT ISZERO PUSH2 0xE36 JUMPI PUSH1 0x40 MLOAD PUSH32 0x8C379A000000000000000000000000000000000000000000000000000000000 DUP2 MSTORE PUSH1 0x4 ADD PUSH2 0xE2D SWAP1 PUSH2 0x36E2 JUMP JUMPDEST PUSH1 0x40 MLOAD DUP1 SWAP2 SUB SWAP1 REVERT JUMPDEST PUSH2 0xE4A PUSH8 0x311393F5876B8D26 PUSH1 0xC0 SHL PUSH2 0x1670 JUMP JUMPDEST PUSH2 0xE5E PUSH8 0xB81CF0BF87644A50 PUSH1 0xC0 SHL PUSH2 0x1670 JUMP JUMPDEST PUSH2 0xE72 PUSH8 0x9D27A7C01A6B50CD PUSH1 0xC0 SHL PUSH2 0x1670 JUMP JUMPDEST PUSH1 0x0 PUSH2 0xE7C PUSH2 0x4DE JUMP JUMPDEST SWAP1 POP PUSH2 0xE92 PUSH8 0x4D3D6321844A7E31 PUSH1 0xC0 SHL PUSH2 0x1670 JUMP JUMPDEST PUSH2 0xEA6 PUSH8 0x63468648CA9E03C7 PUSH1 0xC0 SHL PUSH2 0x1670 JUMP JUMPDEST PUSH1 0x0 DUP1 PUSH2 0xEB3 DUP13 DUP13 PUSH2 0x199D JUMP JUMPDEST SWAP2 POP SWAP2 POP PUSH2 0xECB PUSH8 0xECA1493204D2FF73 PUSH1 0xC0 SHL PUSH2 0x1670 JUMP JUMPDEST DUP3 DUP3 DUP12 PUSH2 0xED8 SWAP2 SWAP1 PUSH2 0x3A60 JUMP JUMPDEST PUSH2 0xEE2 SWAP2 SWAP1 PUSH2 0x3AD1 JUMP JUMPDEST SWAP5 POP PUSH2 0xEF8 PUSH8 0xF3F284B4984E4A98 PUSH1 0xC0 SHL PUSH2 0x1670 JUMP JUMPDEST DUP3 DUP2 DUP12 PUSH2 0xF05 SWAP2 SWAP1 PUSH2 0x3A60 JUMP JUMPDEST PUSH2 0xF0F SWAP2 SWAP1 PUSH2 0x3AD1 JUMP JUMPDEST SWAP4 POP PUSH2 0xF25 PUSH8 0xEF565586B0D3DA95 PUSH1 0xC0 SHL PUSH2 0x1670 JUMP JUMPDEST PUSH2 0xF39 PUSH8 0x27FD4B145124A169 PUSH1 0xC0 SHL PUSH2 0x1670 JUMP JUMPDEST PUSH2 0xF4D PUSH8 0xF4B8B60D4FAC4D6A PUSH1 0xC0 SHL PUSH2 0x1670 JUMP JUMPDEST DUP9 DUP6 LT ISZERO PUSH2 0xF90 JUMPI PUSH1 0x40 MLOAD PUSH32 0x8C379A000000000000000000000000000000000000000000000000000000000 DUP2 MSTORE PUSH1 0x4 ADD PUSH2 0xF87 SWAP1 PUSH2 0x3B4E JUMP JUMPDEST PUSH1 0x40 MLOAD DUP1 SWAP2 SUB SWAP1 REVERT JUMPDEST PUSH2 0xFA4 PUSH8 0xB5E473D50F361275 PUSH1 0xC0 SHL PUSH2 0x1670 JUMP JUMPDEST PUSH2 0xFB8 PUSH8 0xBFC70046E22253E9 PUSH1 0xC0 SHL PUSH2 0x1670 JUMP JUMPDEST PUSH2 0xFCC PUSH8 0xB6F0D56A5F9234D4 PUSH1 0xC0 SHL PUSH2 0x1670 JUMP JUMPDEST PUSH2 0xFE0 PUSH8 0xFC40A74A7D0033E9 PUSH1 0xC0 SHL PUSH2 0x1670 JUMP JUMPDEST DUP8 DUP5 LT ISZERO PUSH2 0x1023 JUMPI PUSH1 0x40 MLOAD PUSH32 0x8C379A000000000000000000000000000000000000000000000000000000000 DUP2 MSTORE PUSH1 0x4 ADD PUSH2 0x101A SWAP1 PUSH2 0x3BBA JUMP JUMPDEST PUSH1 0x40 MLOAD DUP1 SWAP2 SUB SWAP1 REVERT JUMPDEST PUSH2 0x1037 PUSH8 0xC48994153AA9951D PUSH1 0xC0 SHL PUSH2 0x1670 JUMP JUMPDEST PUSH2 0x104B PUSH8 0x657BCFC07ECA3355 PUSH1 0xC0 SHL PUSH2 0x1670 JUMP JUMPDEST PUSH2 0x105F PUSH8 0xD622B2FF9CD783FA PUSH1 0xC0 SHL PUSH2 0x1670 JUMP JUMPDEST PUSH2 0x1069 CALLER DUP12 PUSH2 0x1FDA JUMP JUMPDEST PUSH2 0x107D PUSH8 0xD455B9C89F035064 PUSH1 0xC0 SHL PUSH2 0x1670 JUMP JUMPDEST PUSH2 0x1091 PUSH8 0x1B29AEE6AE59E0FD PUSH1 0xC0 SHL PUSH2 0x1670 JUMP JUMPDEST DUP12 PUSH20 0xFFFFFFFFFFFFFFFFFFFFFFFFFFFFFFFFFFFFFFFF AND PUSH4 0xA9059CBB DUP9 DUP8 PUSH1 0x40 MLOAD DUP4 PUSH4 0xFFFFFFFF AND PUSH1 0xE0 SHL DUP2 MSTORE PUSH1 0x4 ADD PUSH2 0x10CC SWAP3 SWAP2 SWAP1 PUSH2 0x3905 JUMP JUMPDEST PUSH1 0x20 PUSH1 0x40 MLOAD DUP1 DUP4 SUB DUP2 PUSH1 0x0 DUP8 GAS CALL ISZERO DUP1 ISZERO PUSH2 0x10EB JUMPI RETURNDATASIZE PUSH1 0x0 DUP1 RETURNDATACOPY RETURNDATASIZE PUSH1 0x0 REVERT JUMPDEST POP POP POP POP PUSH1 0x40 MLOAD RETURNDATASIZE PUSH1 0x1F NOT PUSH1 0x1F DUP3 ADD AND DUP3 ADD DUP1 PUSH1 0x40 MSTORE POP DUP2 ADD SWAP1 PUSH2 0x110F SWAP2 SWAP1 PUSH2 0x38D8 JUMP JUMPDEST POP PUSH2 0x1124 PUSH8 0xE77DD8C15CBCF54A PUSH1 0xC0 SHL PUSH2 0x1670 JUMP JUMPDEST PUSH2 0x1138 PUSH8 0x768659B5FF79C85A PUSH1 0xC0 SHL PUSH2 0x1670 JUMP JUMPDEST DUP11 PUSH20 0xFFFFFFFFFFFFFFFFFFFFFFFFFFFFFFFFFFFFFFFF AND PUSH4 0xA9059CBB DUP9 DUP7 PUSH1 0x40 MLOAD DUP4 PUSH4 0xFFFFFFFF AND PUSH1 0xE0 SHL DUP2 MSTORE PUSH1 0x4 ADD PUSH2 0x1173 SWAP3 SWAP2 SWAP1 PUSH2 0x3905 JUMP JUMPDEST PUSH1 0x20 PUSH1 0x40 MLOAD DUP1 DUP4 SUB DUP2 PUSH1 0x0 DUP8 GAS CALL ISZERO DUP1 ISZERO PUSH2 0x1192 JUMPI RETURNDATASIZE PUSH1 0x0 DUP1 RETURNDATACOPY RETURNDATASIZE PUSH1 0x0 REVERT JUMPDEST POP POP POP POP PUSH1 0x40 MLOAD RETURNDATASIZE PUSH1 0x1F NOT PUSH1 0x1F DUP3 ADD AND DUP3 ADD DUP1 PUSH1 0x40 MSTORE POP DUP2 ADD SWAP1 PUSH2 0x11B6 SWAP2 SWAP1 PUSH2 0x38D8 JUMP JUMPDEST POP PUSH2 0x11CB PUSH8 0x85649CEA0940F135 PUSH1 0xC0 SHL PUSH2 0x1670 JUMP JUMPDEST PUSH2 0x11DF PUSH8 0x7087B6568E848CCF PUSH1 0xC0 SHL PUSH2 0x1670 JUMP JUMPDEST PUSH2 0x1201 DUP13 DUP13 DUP8 DUP6 PUSH2 0x11F0 SWAP2 SWAP1 PUSH2 0x3991 JUMP JUMPDEST DUP8 DUP6 PUSH2 0x11FC SWAP2 SWAP1 PUSH2 0x3991 JUMP JUMPDEST PUSH2 0x1B5E JUMP JUMPDEST POP POP POP SWAP8 POP SWAP8 SWAP6 POP POP POP POP POP POP JUMP JUMPDEST PUSH1 0x0 DUP1 PUSH2 0x1227 PUSH8 0x9BB953977A17C693 PUSH1 0xC0 SHL PUSH2 0x1670 JUMP JUMPDEST PUSH2 0x123B PUSH8 0x2F4A69DCF62783B3 PUSH1 0xC0 SHL PUSH2 0x1670 JUMP JUMPDEST PUSH2 0x1245 DUP5 DUP5 PUSH2 0x199D JUMP JUMPDEST DUP1 SWAP3 POP DUP2 SWAP4 POP POP POP SWAP3 POP SWAP3 SWAP1 POP JUMP JUMPDEST PUSH1 0x0 PUSH1 0x1 PUSH1 0x0 DUP5 PUSH20 0xFFFFFFFFFFFFFFFFFFFFFFFFFFFFFFFFFFFFFFFF AND PUSH20 0xFFFFFFFFFFFFFFFFFFFFFFFFFFFFFFFFFFFFFFFF AND DUP2 MSTORE PUSH1 0x20 ADD SWAP1 DUP2 MSTORE PUSH1 0x20 ADD PUSH1 0x0 KECCAK256 PUSH1 0x0 DUP4 PUSH20 0xFFFFFFFFFFFFFFFFFFFFFFFFFFFFFFFFFFFFFFFF AND PUSH20 0xFFFFFFFFFFFFFFFFFFFFFFFFFFFFFFFFFFFFFFFF AND DUP2 MSTORE PUSH1 0x20 ADD SWAP1 DUP2 MSTORE PUSH1 0x20 ADD PUSH1 0x0 KECCAK256 SLOAD SWAP1 POP SWAP3 SWAP2 POP POP JUMP JUMPDEST PUSH1 0x0 DUP1 PUSH1 0x0 PUSH2 0x12F4 PUSH8 0x5BBD07102B941C8A PUSH1 0xC0 SHL PUSH2 0x1670 JUMP JUMPDEST PUSH2 0x1308 PUSH8 0xB5EE6E9FE732003F PUSH1 0xC0 SHL PUSH2 0x1670 JUMP JUMPDEST PUSH2 0x131C PUSH8 0x70FA3F85E2B06DC6 PUSH1 0xC0 SHL PUSH2 0x1670 JUMP JUMPDEST PUSH2 0x1330 PUSH8 0x8BB2F5EFFBEE9218 PUSH1 0xC0 SHL PUSH2 0x1670 JUMP JUMPDEST DUP4 TIMESTAMP GT ISZERO PUSH2 0x1373 JUMPI PUSH1 0x40 MLOAD PUSH32 0x8C379A000000000000000000000000000000000000000000000000000000000 DUP2 MSTORE PUSH1 0x4 ADD PUSH2 0x136A SWAP1 PUSH2 0x36E2 JUMP JUMPDEST PUSH1 0x40 MLOAD DUP1 SWAP2 SUB SWAP1 REVERT JUMPDEST PUSH2 0x1387 PUSH8 0xC169248D60970300 PUSH1 0xC0 SHL PUSH2 0x1670 JUMP JUMPDEST PUSH2 0x139B PUSH8 0xC3F8CE2A74A8892F PUSH1 0xC0 SHL PUSH2 0x1670 JUMP JUMPDEST PUSH2 0x13AF PUSH8 0xDD131F42ACE567EC PUSH1 0xC0 SHL PUSH2 0x1670 JUMP JUMPDEST PUSH1 0x0 DUP1 PUSH2 0x13BC DUP14 DUP14 PUSH2 0x199D JUMP JUMPDEST SWAP2 POP SWAP2 POP PUSH2 0x13D4 PUSH8 0xBEA7481A52519A05 PUSH1 0xC0 SHL PUSH2 0x1670 JUMP JUMPDEST PUSH2 0x13E2 DUP3 DUP3 DUP14 DUP14 DUP14 DUP14 PUSH2 0x205C JUMP JUMPDEST DUP1 SWAP6 POP DUP2 SWAP7 POP POP POP PUSH2 0x13FE PUSH8 0x26D6322C9FFAE04B PUSH1 0xC0 SHL PUSH2 0x1670 JUMP JUMPDEST PUSH2 0x1412 PUSH8 0xBD7103D4331E748A PUSH1 0xC0 SHL PUSH2 0x1670 JUMP JUMPDEST DUP13 PUSH20 0xFFFFFFFFFFFFFFFFFFFFFFFFFFFFFFFFFFFFFFFF AND PUSH4 0x23B872DD CALLER ADDRESS DUP9 PUSH1 0x40 MLOAD DUP5 PUSH4 0xFFFFFFFF AND PUSH1 0xE0 SHL DUP2 MSTORE PUSH1 0x4 ADD PUSH2 0x144F SWAP4 SWAP3 SWAP2 SWAP1 PUSH2 0x3875 JUMP JUMPDEST PUSH1 0x20 PUSH1 0x40 MLOAD DUP1 DUP4 SUB DUP2 PUSH1 0x0 DUP8 GAS CALL ISZERO DUP1 ISZERO PUSH2 0x146E JUMPI RETURNDATASIZE PUSH1 0x0 DUP1 RETURNDATACOPY RETURNDATASIZE PUSH1 0x0 REVERT JUMPDEST POP POP POP POP PUSH1 0x40 MLOAD RETURNDATASIZE PUSH1 0x1F NOT PUSH1 0x1F DUP3 ADD AND DUP3 ADD DUP1 PUSH1 0x40 MSTORE POP DUP2 ADD SWAP1 PUSH2 0x1492 SWAP2 SWAP1 PUSH2 0x38D8 JUMP JUMPDEST POP PUSH2 0x14A7 PUSH8 0xE81EE442AA8C9084 PUSH1 0xC0 SHL PUSH2 0x1670 JUMP JUMPDEST PUSH2 0x14BB PUSH8 0x40448DD2D43BF5AC PUSH1 0xC0 SHL PUSH2 0x1670 JUMP JUMPDEST DUP12 PUSH20 0xFFFFFFFFFFFFFFFFFFFFFFFFFFFFFFFFFFFFFFFF AND PUSH4 0x23B872DD CALLER ADDRESS DUP8 PUSH1 0x40 MLOAD DUP5 PUSH4 0xFFFFFFFF AND PUSH1 0xE0 SHL DUP2 MSTORE PUSH1 0x4 ADD PUSH2 0x14F8 SWAP4 SWAP3 SWAP2 SWAP1 PUSH2 0x3875 JUMP JUMPDEST PUSH1 0x20 PUSH1 0x40 MLOAD DUP1 DUP4 SUB DUP2 PUSH1 0x0 DUP8 GAS CALL ISZERO DUP1 ISZERO PUSH2 0x1517 JUMPI RETURNDATASIZE PUSH1 0x0 DUP1 RETURNDATACOPY RETURNDATASIZE PUSH1 0x0 REVERT JUMPDEST POP POP POP POP PUSH1 0x40 MLOAD RETURNDATASIZE PUSH1 0x1F NOT PUSH1 0x1F DUP3 ADD AND DUP3 ADD DUP1 PUSH1 0x40 MSTORE POP DUP2 ADD SWAP1 PUSH2 0x153B SWAP2 SWAP1 PUSH2 0x38D8 JUMP JUMPDEST POP PUSH2 0x1550 PUSH8 0xA1CA42F3B4324D4A PUSH1 0xC0 SHL PUSH2 0x1670 JUMP JUMPDEST PUSH2 0x155C DUP6 DUP6 DUP5 DUP5 PUSH2 0x237E JUMP JUMPDEST SWAP3 POP PUSH2 0x1572 PUSH8 0xB1482F3B5F6F9E6A PUSH1 0xC0 SHL PUSH2 0x1670 JUMP JUMPDEST PUSH2 0x1586 PUSH8 0x5616FB73C3E4B7AD PUSH1 0xC0 SHL PUSH2 0x1670 JUMP JUMPDEST PUSH2 0x1590 DUP8 DUP5 PUSH2 0x266F JUMP JUMPDEST PUSH2 0x15A4 PUSH8 0x8A7F2CD7C381EC84 PUSH1 0xC0 SHL PUSH2 0x1670 JUMP JUMPDEST PUSH2 0x15B8 PUSH8 0xFEE4561B08B7381C PUSH1 0xC0 SHL PUSH2 0x1670 JUMP JUMPDEST PUSH2 0x15DA DUP14 DUP14 DUP8 DUP6 PUSH2 0x15C9 SWAP2 SWAP1 PUSH2 0x395D JUMP JUMPDEST DUP8 DUP6 PUSH2 0x15D5 SWAP2 SWAP1 PUSH2 0x395D JUMP JUMPDEST PUSH2 0x1B5E JUMP JUMPDEST POP POP SWAP9 POP SWAP9 POP SWAP9 SWAP6 POP POP POP POP POP POP JUMP JUMPDEST PUSH2 0x15F2 PUSH2 0x1E8D JUMP JUMPDEST PUSH1 0x0 PUSH20 0xFFFFFFFFFFFFFFFFFFFFFFFFFFFFFFFFFFFFFFFF AND DUP2 PUSH20 0xFFFFFFFFFFFFFFFFFFFFFFFFFFFFFFFFFFFFFFFF AND SUB PUSH2 0x1664 JUMPI PUSH1 0x0 PUSH1 0x40 MLOAD PUSH32 0x1E4FBDF700000000000000000000000000000000000000000000000000000000 DUP2 MSTORE PUSH1 0x4 ADD PUSH2 0x165B SWAP2 SWAP1 PUSH2 0x3423 JUMP JUMPDEST PUSH1 0x40 MLOAD DUP1 SWAP2 SUB SWAP1 REVERT JUMPDEST PUSH2 0x166D DUP2 PUSH2 0x1F14 JUMP JUMPDEST POP JUMP JUMPDEST POP JUMP JUMPDEST PUSH1 0x0 PUSH2 0x1689 PUSH8 0xF1570BFD6BB6FA9F PUSH1 0xC0 SHL PUSH2 0x1670 JUMP JUMPDEST PUSH2 0x169D PUSH8 0xE65F1E5A1BB3EED2 PUSH1 0xC0 SHL PUSH2 0x1670 JUMP JUMPDEST PUSH2 0x16B1 PUSH8 0x8CEEE8D6D24E5F6A PUSH1 0xC0 SHL PUSH2 0x1670 JUMP JUMPDEST PUSH2 0x16C5 PUSH8 0x9F114B78BCEA1C54 PUSH1 0xC0 SHL PUSH2 0x1670 JUMP JUMPDEST PUSH1 0x0 DUP5 GT PUSH2 0x1708 JUMPI PUSH1 0x40 MLOAD PUSH32 0x8C379A000000000000000000000000000000000000000000000000000000000 DUP2 MSTORE PUSH1 0x4 ADD PUSH2 0x16FF SWAP1 PUSH2 0x3C26 JUMP JUMPDEST PUSH1 0x40 MLOAD DUP1 SWAP2 SUB SWAP1 REVERT JUMPDEST PUSH2 0x171C PUSH8 0xB030215E6B65CBD0 PUSH1 0xC0 SHL PUSH2 0x1670 JUMP JUMPDEST PUSH2 0x1730 PUSH8 0x8424B3DFA11F11F5 PUSH1 0xC0 SHL PUSH2 0x1670 JUMP JUMPDEST PUSH2 0x1744 PUSH8 0xBBE036F10E60DB57 PUSH1 0xC0 SHL PUSH2 0x1670 JUMP JUMPDEST PUSH2 0x1758 PUSH8 0xBD49468D1D93D2B3 PUSH1 0xC0 SHL PUSH2 0x1670 JUMP JUMPDEST PUSH1 0x0 DUP4 GT DUP1 ISZERO PUSH2 0x1768 JUMPI POP PUSH1 0x0 DUP3 GT JUMPDEST PUSH2 0x17A7 JUMPI PUSH1 0x40 MLOAD PUSH32 0x8C379A000000000000000000000000000000000000000000000000000000000 DUP2 MSTORE PUSH1 0x4 ADD PUSH2 0x179E SWAP1 PUSH2 0x3C92 JUMP JUMPDEST PUSH1 0x40 MLOAD DUP1 SWAP2 SUB SWAP1 REVERT JUMPDEST PUSH2 0x17BB PUSH8 0xDA000BEE24BE68CA PUSH1 0xC0 SHL PUSH2 0x1670 JUMP JUMPDEST PUSH2 0x17CF PUSH8 0x15F04D23EB998C2B PUSH1 0xC0 SHL PUSH2 0x1670 JUMP JUMPDEST DUP4 DUP4 PUSH2 0x17DB SWAP2 SWAP1 PUSH2 0x395D JUMP JUMPDEST DUP3 DUP6 PUSH2 0x17E7 SWAP2 SWAP1 PUSH2 0x3A60 JUMP JUMPDEST PUSH2 0x17F1 SWAP2 SWAP1 PUSH2 0x3AD1 JUMP JUMPDEST SWAP1 POP SWAP4 SWAP3 POP POP POP JUMP JUMPDEST PUSH1 0x0 CALLER SWAP1 POP SWAP1 JUMP JUMPDEST PUSH2 0x180F DUP4 DUP4 DUP4 PUSH1 0x1 PUSH2 0x26F1 JUMP JUMPDEST POP POP POP JUMP JUMPDEST PUSH1 0x0 PUSH2 0x1820 DUP5 DUP5 PUSH2 0x1254 JUMP JUMPDEST SWAP1 POP PUSH32 0xFFFFFFFFFFFFFFFFFFFFFFFFFFFFFFFFFFFFFFFFFFFFFFFFFFFFFFFFFFFFFFFF DUP2 LT ISZERO PUSH2 0x18A3 JUMPI DUP2 DUP2 LT ISZERO PUSH2 0x1893 JUMPI DUP3 DUP2 DUP4 PUSH1 0x40 MLOAD PUSH32 0xFB8F41B200000000000000000000000000000000000000000000000000000000 DUP2 MSTORE PUSH1 0x4 ADD PUSH2 0x188A SWAP4 SWAP3 SWAP2 SWAP1 PUSH2 0x3CB2 JUMP JUMPDEST PUSH1 0x40 MLOAD DUP1 SWAP2 SUB SWAP1 REVERT JUMPDEST PUSH2 0x18A2 DUP5 DUP5 DUP5 DUP5 SUB PUSH1 0x0 PUSH2 0x26F1 JUMP JUMPDEST JUMPDEST POP POP POP POP JUMP JUMPDEST PUSH1 0x0 PUSH20 0xFFFFFFFFFFFFFFFFFFFFFFFFFFFFFFFFFFFFFFFF AND DUP4 PUSH20 0xFFFFFFFFFFFFFFFFFFFFFFFFFFFFFFFFFFFFFFFF AND SUB PUSH2 0x191B JUMPI PUSH1 0x0 PUSH1 0x40 MLOAD PUSH32 0x96C6FD1E00000000000000000000000000000000000000000000000000000000 DUP2 MSTORE PUSH1 0x4 ADD PUSH2 0x1912 SWAP2 SWAP1 PUSH2 0x3423 JUMP JUMPDEST PUSH1 0x40 MLOAD DUP1 SWAP2 SUB SWAP1 REVERT JUMPDEST PUSH1 0x0 PUSH20 0xFFFFFFFFFFFFFFFFFFFFFFFFFFFFFFFFFFFFFFFF AND DUP3 PUSH20 0xFFFFFFFFFFFFFFFFFFFFFFFFFFFFFFFFFFFFFFFF AND SUB PUSH2 0x198D JUMPI PUSH1 0x0 PUSH1 0x40 MLOAD PUSH32 0xEC442F0500000000000000000000000000000000000000000000000000000000 DUP2 MSTORE PUSH1 0x4 ADD PUSH2 0x1984 SWAP2 SWAP1 PUSH2 0x3423 JUMP JUMPDEST PUSH1 0x40 MLOAD DUP1 SWAP2 SUB SWAP1 REVERT JUMPDEST PUSH2 0x1998 DUP4 DUP4 DUP4 PUSH2 0x28C8 JUMP JUMPDEST POP POP POP JUMP JUMPDEST PUSH1 0x0 DUP1 PUSH2 0x19B4 PUSH8 0x4BA760DE071F0D40 PUSH1 0xC0 SHL PUSH2 0x1670 JUMP JUMPDEST PUSH2 0x19C8 PUSH8 0xCEA83A38BAF11A7E PUSH1 0xC0 SHL PUSH2 0x1670 JUMP JUMPDEST PUSH2 0x19DC PUSH8 0x71F013D3976B2279 PUSH1 0xC0 SHL PUSH2 0x1670 JUMP JUMPDEST PUSH1 0x0 DUP1 PUSH2 0x19E9 DUP7 DUP7 PUSH2 0x2AED JUMP JUMPDEST SWAP2 POP SWAP2 POP PUSH2 0x1A01 PUSH8 0x18751D81856420B4 PUSH1 0xC0 SHL PUSH2 0x1670 JUMP JUMPDEST PUSH2 0x1A15 PUSH8 0x46A77FE8EB92F685 PUSH1 0xC0 SHL PUSH2 0x1670 JUMP JUMPDEST PUSH1 0x0 PUSH1 0x6 PUSH1 0x0 DUP5 PUSH20 0xFFFFFFFFFFFFFFFFFFFFFFFFFFFFFFFFFFFFFFFF AND PUSH20 0xFFFFFFFFFFFFFFFFFFFFFFFFFFFFFFFFFFFFFFFF AND DUP2 MSTORE PUSH1 0x20 ADD SWAP1 DUP2 MSTORE PUSH1 0x20 ADD PUSH1 0x0 KECCAK256 PUSH1 0x0 DUP4 PUSH20 0xFFFFFFFFFFFFFFFFFFFFFFFFFFFFFFFFFFFFFFFF AND PUSH20 0xFFFFFFFFFFFFFFFFFFFFFFFFFFFFFFFFFFFFFFFF AND DUP2 MSTORE PUSH1 0x20 ADD SWAP1 DUP2 MSTORE PUSH1 0x20 ADD PUSH1 0x0 KECCAK256 PUSH1 0x40 MLOAD DUP1 PUSH1 0x40 ADD PUSH1 0x40 MSTORE SWAP1 DUP2 PUSH1 0x0 DUP3 ADD SLOAD DUP2 MSTORE PUSH1 0x20 ADD PUSH1 0x1 DUP3 ADD SLOAD DUP2 MSTORE POP POP SWAP1 POP PUSH2 0x1AC8 PUSH8 0xCBDF660C7BC2C3F0 PUSH1 0xC0 SHL PUSH2 0x1670 JUMP JUMPDEST DUP3 PUSH20 0xFFFFFFFFFFFFFFFFFFFFFFFFFFFFFFFFFFFFFFFF AND DUP8 PUSH20 0xFFFFFFFFFFFFFFFFFFFFFFFFFFFFFFFFFFFFFFFF AND EQ DUP1 PUSH2 0x1B12 JUMPI POP PUSH2 0x1B11 PUSH8 0x9248B4780D26AC37 PUSH1 0xC0 SHL PUSH2 0x2D52 JUMP JUMPDEST JUMPDEST DUP1 ISZERO PUSH2 0x1B2E JUMPI POP PUSH2 0x1B2D PUSH8 0x41DA01AFF9264E0 PUSH1 0xC0 SHL PUSH2 0x2D59 JUMP JUMPDEST JUMPDEST PUSH2 0x1B41 JUMPI DUP1 PUSH1 0x20 ADD MLOAD DUP2 PUSH1 0x0 ADD MLOAD PUSH2 0x1B4C JUMP JUMPDEST DUP1 PUSH1 0x0 ADD MLOAD DUP2 PUSH1 0x20 ADD MLOAD JUMPDEST DUP1 SWAP6 POP DUP2 SWAP7 POP POP POP POP POP POP SWAP3 POP SWAP3 SWAP1 POP JUMP JUMPDEST PUSH2 0x1B72 PUSH8 0x7F2CDB76C65E8CC2 PUSH1 0xC0 SHL PUSH2 0x1670 JUMP JUMPDEST PUSH2 0x1B86 PUSH8 0x870A3D6D89E0C23C PUSH1 0xC0 SHL PUSH2 0x1670 JUMP JUMPDEST PUSH2 0x1B9A PUSH8 0x4808FA9A2DE20FFB PUSH1 0xC0 SHL PUSH2 0x1670 JUMP JUMPDEST PUSH1 0x0 DUP1 PUSH2 0x1BA7 DUP7 DUP7 PUSH2 0x2AED JUMP JUMPDEST SWAP2 POP SWAP2 POP PUSH2 0x1BBF PUSH8 0xEF80E240B57BE2AE PUSH1 0xC0 SHL PUSH2 0x1670 JUMP JUMPDEST PUSH2 0x1BD3 PUSH8 0x2E7543C99EFE0BC PUSH1 0xC0 SHL PUSH2 0x1670 JUMP JUMPDEST PUSH1 0x0 PUSH1 0x6 PUSH1 0x0 DUP5 PUSH20 0xFFFFFFFFFFFFFFFFFFFFFFFFFFFFFFFFFFFFFFFF AND PUSH20 0xFFFFFFFFFFFFFFFFFFFFFFFFFFFFFFFFFFFFFFFF AND DUP2 MSTORE PUSH1 0x20 ADD SWAP1 DUP2 MSTORE PUSH1 0x20 ADD PUSH1 0x0 KECCAK256 PUSH1 0x0 DUP4 PUSH20 0xFFFFFFFFFFFFFFFFFFFFFFFFFFFFFFFFFFFFFFFF AND PUSH20 0xFFFFFFFFFFFFFFFFFFFFFFFFFFFFFFFFFFFFFFFF AND DUP2 MSTORE PUSH1 0x20 ADD SWAP1 DUP2 MSTORE PUSH1 0x20 ADD PUSH1 0x0 KECCAK256 SWAP1 POP PUSH2 0x1C67 PUSH8 0x74D1FA9F11873B8B PUSH1 0xC0 SHL PUSH2 0x1670 JUMP JUMPDEST PUSH2 0x1C7B PUSH8 0xE07FADD242341ABE PUSH1 0xC0 SHL PUSH2 0x1670 JUMP JUMPDEST DUP3 PUSH20 0xFFFFFFFFFFFFFFFFFFFFFFFFFFFFFFFFFFFFFFFF AND DUP8 PUSH20 0xFFFFFFFFFFFFFFFFFFFFFFFFFFFFFFFFFFFFFFFF AND SUB PUSH2 0x1D9B JUMPI PUSH2 0x1CC2 PUSH8 0x892326CB3846E2E8 PUSH1 0xC0 SHL PUSH2 0x1670 JUMP JUMPDEST PUSH2 0x1CD6 PUSH8 0x304F927D49A17874 PUSH1 0xC0 SHL PUSH2 0x1670 JUMP JUMPDEST PUSH2 0x1CEA PUSH8 0x787B84B384B2766C PUSH1 0xC0 SHL PUSH2 0x1670 JUMP JUMPDEST DUP5 DUP2 PUSH1 0x0 ADD SLOAD EQ PUSH2 0x1D17 JUMPI PUSH2 0x1D09 PUSH8 0x7FC92963979B1978 PUSH1 0xC0 SHL PUSH2 0x1670 JUMP JUMPDEST DUP5 DUP2 PUSH1 0x0 ADD DUP2 SWAP1 SSTORE POP PUSH2 0x1D2C JUMP JUMPDEST PUSH2 0x1D2B PUSH8 0xF68204C965293DF9 PUSH1 0xC0 SHL PUSH2 0x1670 JUMP JUMPDEST JUMPDEST PUSH2 0x1D40 PUSH8 0xF2F21F1E8A0CD1CB PUSH1 0xC0 SHL PUSH2 0x1670 JUMP JUMPDEST PUSH2 0x1D54 PUSH8 0x2AFB5F224FCC2344 PUSH1 0xC0 SHL PUSH2 0x1670 JUMP JUMPDEST DUP4 DUP2 PUSH1 0x1 ADD SLOAD EQ PUSH2 0x1D81 JUMPI PUSH2 0x1D73 PUSH8 0xFB36B127BA4C4731 PUSH1 0xC0 SHL PUSH2 0x1670 JUMP JUMPDEST DUP4 DUP2 PUSH1 0x1 ADD DUP2 SWAP1 SSTORE POP PUSH2 0x1D96 JUMP JUMPDEST PUSH2 0x1D95 PUSH8 0x9D5D2BEEB530B48C PUSH1 0xC0 SHL PUSH2 0x1670 JUMP JUMPDEST JUMPDEST PUSH2 0x1E84 JUMP JUMPDEST PUSH2 0x1DAF PUSH8 0x22098FC095892446 PUSH1 0xC0 SHL PUSH2 0x1670 JUMP JUMPDEST PUSH2 0x1DC3 PUSH8 0xA0AFB53BA6549C5F PUSH1 0xC0 SHL PUSH2 0x1670 JUMP JUMPDEST PUSH2 0x1DD7 PUSH8 0x70023D4E20D80109 PUSH1 0xC0 SHL PUSH2 0x1670 JUMP JUMPDEST DUP4 DUP2 PUSH1 0x0 ADD SLOAD EQ PUSH2 0x1E04 JUMPI PUSH2 0x1DF6 PUSH8 0xF1724F6606DB4C64 PUSH1 0xC0 SHL PUSH2 0x1670 JUMP JUMPDEST DUP4 DUP2 PUSH1 0x0 ADD DUP2 SWAP1 SSTORE POP PUSH2 0x1E19 JUMP JUMPDEST PUSH2 0x1E18 PUSH8 0xECFB05B46C9E4417 PUSH1 0xC0 SHL PUSH2 0x1670 JUMP JUMPDEST JUMPDEST PUSH2 0x1E2D PUSH8 0x8A2C3FF4ED5D66A1 PUSH1 0xC0 SHL PUSH2 0x1670 JUMP JUMPDEST PUSH2 0x1E41 PUSH8 0x40AE594CB04FD07A PUSH1 0xC0 SHL PUSH2 0x1670 JUMP JUMPDEST DUP5 DUP2 PUSH1 0x1 ADD SLOAD EQ PUSH2 0x1E6E JUMPI PUSH2 0x1E60 PUSH8 0x420FB83ED06B0007 PUSH1 0xC0 SHL PUSH2 0x1670 JUMP JUMPDEST DUP5 DUP2 PUSH1 0x1 ADD DUP2 SWAP1 SSTORE POP PUSH2 0x1E83 JUMP JUMPDEST PUSH2 0x1E82 PUSH8 0x8A3B24D9DF75383C PUSH1 0xC0 SHL PUSH2 0x1670 JUMP JUMPDEST JUMPDEST JUMPDEST POP POP POP POP POP POP POP JUMP JUMPDEST PUSH2 0x1E95 PUSH2 0x17FA JUMP JUMPDEST PUSH20 0xFFFFFFFFFFFFFFFFFFFFFFFFFFFFFFFFFFFFFFFF AND PUSH2 0x1EB3 PUSH2 0xBA2 JUMP JUMPDEST PUSH20 0xFFFFFFFFFFFFFFFFFFFFFFFFFFFFFFFFFFFFFFFF AND EQ PUSH2 0x1F12 JUMPI PUSH2 0x1ED6 PUSH2 0x17FA JUMP JUMPDEST PUSH1 0x40 MLOAD PUSH32 0x118CDAA700000000000000000000000000000000000000000000000000000000 DUP2 MSTORE PUSH1 0x4 ADD PUSH2 0x1F09 SWAP2 SWAP1 PUSH2 0x3423 JUMP JUMPDEST PUSH1 0x40 MLOAD DUP1 SWAP2 SUB SWAP1 REVERT JUMPDEST JUMP JUMPDEST PUSH1 0x0 PUSH1 0x5 PUSH1 0x0 SWAP1 SLOAD SWAP1 PUSH2 0x100 EXP SWAP1 DIV PUSH20 0xFFFFFFFFFFFFFFFFFFFFFFFFFFFFFFFFFFFFFFFF AND SWAP1 POP DUP2 PUSH1 0x5 PUSH1 0x0 PUSH2 0x100 EXP DUP2 SLOAD DUP2 PUSH20 0xFFFFFFFFFFFFFFFFFFFFFFFFFFFFFFFFFFFFFFFF MUL NOT AND SWAP1 DUP4 PUSH20 0xFFFFFFFFFFFFFFFFFFFFFFFFFFFFFFFFFFFFFFFF AND MUL OR SWAP1 SSTORE POP DUP2 PUSH20 0xFFFFFFFFFFFFFFFFFFFFFFFFFFFFFFFFFFFFFFFF AND DUP2 PUSH20 0xFFFFFFFFFFFFFFFFFFFFFFFFFFFFFFFFFFFFFFFF AND PUSH32 0x8BE0079C531659141344CD1FD0A4F28419497F9722A3DAAFE3B4186F6B6457E0 PUSH1 0x40 MLOAD PUSH1 0x40 MLOAD DUP1 SWAP2 SUB SWAP1 LOG3 POP POP JUMP JUMPDEST PUSH1 0x0 PUSH20 0xFFFFFFFFFFFFFFFFFFFFFFFFFFFFFFFFFFFFFFFF AND DUP3 PUSH20 0xFFFFFFFFFFFFFFFFFFFFFFFFFFFFFFFFFFFFFFFF AND SUB PUSH2 0x204C JUMPI PUSH1 0x0 PUSH1 0x40 MLOAD PUSH32 0x96C6FD1E00000000000000000000000000000000000000000000000000000000 DUP2 MSTORE PUSH1 0x4 ADD PUSH2 0x2043 SWAP2 SWAP1 PUSH2 0x3423 JUMP JUMPDEST PUSH1 0x40 MLOAD DUP1 SWAP2 SUB SWAP1 REVERT JUMPDEST PUSH2 0x2058 DUP3 PUSH1 0x0 DUP4 PUSH2 0x28C8 JUMP JUMPDEST POP POP JUMP JUMPDEST PUSH1 0x0 DUP1 PUSH2 0x2073 PUSH8 0xD749F35B2FEC12AF PUSH1 0xC0 SHL PUSH2 0x1670 JUMP JUMPDEST PUSH2 0x2087 PUSH8 0x9C36740A954BEE6C PUSH1 0xC0 SHL PUSH2 0x1670 JUMP JUMPDEST PUSH2 0x209B PUSH8 0xBAA73133CEA1733 PUSH1 0xC0 SHL PUSH2 0x1670 JUMP JUMPDEST PUSH1 0x0 DUP9 EQ DUP1 ISZERO PUSH2 0x20AB JUMPI POP PUSH1 0x0 DUP8 EQ JUMPDEST ISZERO PUSH2 0x20F7 JUMPI PUSH2 0x20C4 PUSH8 0xCC8952A2236DC3E PUSH1 0xC0 SHL PUSH2 0x1670 JUMP JUMPDEST PUSH2 0x20D8 PUSH8 0x23170D4F17BD9688 PUSH1 0xC0 SHL PUSH2 0x1670 JUMP JUMPDEST PUSH2 0x20EC PUSH8 0x7AB294740D5AB5FD PUSH1 0xC0 SHL PUSH2 0x1670 JUMP JUMPDEST DUP6 DUP6 SWAP2 POP SWAP2 POP PUSH2 0x2373 JUMP JUMPDEST PUSH2 0x210B PUSH8 0x53A74809DAF61276 PUSH1 0xC0 SHL PUSH2 0x1670 JUMP JUMPDEST PUSH2 0x211F PUSH8 0xF1994B7DF5CAC58 PUSH1 0xC0 SHL PUSH2 0x1670 JUMP JUMPDEST PUSH2 0x2133 PUSH8 0x5ACF2B1C29AC25C2 PUSH1 0xC0 SHL PUSH2 0x1670 JUMP JUMPDEST PUSH1 0x0 DUP9 DUP9 DUP9 PUSH2 0x2142 SWAP2 SWAP1 PUSH2 0x3A60 JUMP JUMPDEST PUSH2 0x214C SWAP2 SWAP1 PUSH2 0x3AD1 JUMP JUMPDEST SWAP1 POP PUSH2 0x2162 PUSH8 0x888B74499B8E8219 PUSH1 0xC0 SHL PUSH2 0x1670 JUMP JUMPDEST PUSH2 0x2176 PUSH8 0xBB171ACEE317E75B PUSH1 0xC0 SHL PUSH2 0x1670 JUMP JUMPDEST DUP6 DUP2 GT PUSH2 0x2258 JUMPI PUSH2 0x2191 PUSH8 0x29D40913DCA2D5E1 PUSH1 0xC0 SHL PUSH2 0x1670 JUMP JUMPDEST PUSH2 0x21A5 PUSH8 0xF8F4B4A6C22ED8EF PUSH1 0xC0 SHL PUSH2 0x1670 JUMP JUMPDEST PUSH2 0x21B9 PUSH8 0x560642260B4D0522 PUSH1 0xC0 SHL PUSH2 0x1670 JUMP JUMPDEST PUSH2 0x21CD PUSH8 0x19C11993BC3B3EA6 PUSH1 0xC0 SHL PUSH2 0x1670 JUMP JUMPDEST DUP4 DUP2 LT ISZERO PUSH2 0x2210 JUMPI PUSH1 0x40 MLOAD PUSH32 0x8C379A000000000000000000000000000000000000000000000000000000000 DUP2 MSTORE PUSH1 0x4 ADD PUSH2 0x2207 SWAP1 PUSH2 0x3D35 JUMP JUMPDEST PUSH1 0x40 MLOAD DUP1 SWAP2 SUB SWAP1 REVERT JUMPDEST PUSH2 0x2224 PUSH8 0x9992C7D61C4AD718 PUSH1 0xC0 SHL PUSH2 0x1670 JUMP JUMPDEST PUSH2 0x2238 PUSH8 0xBC96376868250264 PUSH1 0xC0 SHL PUSH2 0x1670 JUMP JUMPDEST PUSH2 0x224C PUSH8 0x56073432A9EF3E55 PUSH1 0xC0 SHL PUSH2 0x1670 JUMP JUMPDEST DUP7 DUP2 SWAP3 POP SWAP3 POP POP PUSH2 0x2373 JUMP JUMPDEST PUSH2 0x226C PUSH8 0xF36AC8FFA69FFBB1 PUSH1 0xC0 SHL PUSH2 0x1670 JUMP JUMPDEST PUSH2 0x2280 PUSH8 0x5789B8ADF13E7149 PUSH1 0xC0 SHL PUSH2 0x1670 JUMP JUMPDEST PUSH2 0x2294 PUSH8 0x5F41EDE06B351699 PUSH1 0xC0 SHL PUSH2 0x1670 JUMP JUMPDEST PUSH1 0x0 DUP9 DUP11 DUP9 PUSH2 0x22A3 SWAP2 SWAP1 PUSH2 0x3A60 JUMP JUMPDEST PUSH2 0x22AD SWAP2 SWAP1 PUSH2 0x3AD1 JUMP JUMPDEST SWAP1 POP PUSH2 0x22C3 PUSH8 0xEF3A5325B25F6D89 PUSH1 0xC0 SHL PUSH2 0x1670 JUMP JUMPDEST PUSH2 0x22D7 PUSH8 0x853BEB2C6FE49EE8 PUSH1 0xC0 SHL PUSH2 0x1670 JUMP JUMPDEST PUSH2 0x22EB PUSH8 0xBBFA0B11EB45DAAA PUSH1 0xC0 SHL PUSH2 0x1670 JUMP JUMPDEST DUP6 DUP2 LT ISZERO PUSH2 0x232E JUMPI PUSH1 0x40 MLOAD PUSH32 0x8C379A000000000000000000000000000000000000000000000000000000000 DUP2 MSTORE PUSH1 0x4 ADD PUSH2 0x2325 SWAP1 PUSH2 0x3DA1 JUMP JUMPDEST PUSH1 0x40 MLOAD DUP1 SWAP2 SUB SWAP1 REVERT JUMPDEST PUSH2 0x2342 PUSH8 0x2012105651ED4819 PUSH1 0xC0 SHL PUSH2 0x1670 JUMP JUMPDEST PUSH2 0x2356 PUSH8 0x507C02ACC0A2B0E8 PUSH1 0xC0 SHL PUSH2 0x1670 JUMP JUMPDEST PUSH2 0x236A PUSH8 0x103BC92CB31C6AA3 PUSH1 0xC0 SHL PUSH2 0x1670 JUMP JUMPDEST DUP1 DUP8 SWAP4 POP SWAP4 POP POP POP JUMPDEST SWAP7 POP SWAP7 SWAP5 POP POP POP POP POP JUMP JUMPDEST PUSH1 0x0 PUSH2 0x2394 PUSH8 0x3F11AEF4D17FDFE5 PUSH1 0xC0 SHL PUSH2 0x1670 JUMP JUMPDEST PUSH2 0x23A8 PUSH8 0x9FF201BF5319FFCF PUSH1 0xC0 SHL PUSH2 0x1670 JUMP JUMPDEST PUSH2 0x23BC PUSH8 0xFAA769B8C9E227EC PUSH1 0xC0 SHL PUSH2 0x1670 JUMP JUMPDEST PUSH1 0x0 PUSH2 0x23C6 PUSH2 0x4DE JUMP JUMPDEST SWAP1 POP PUSH2 0x23DC PUSH8 0x41AB6919E9425626 PUSH1 0xC0 SHL PUSH2 0x1670 JUMP JUMPDEST PUSH2 0x23F0 PUSH8 0x7860BD018B324327 PUSH1 0xC0 SHL PUSH2 0x1670 JUMP JUMPDEST PUSH1 0x0 DUP2 SUB PUSH2 0x243B JUMPI PUSH2 0x240C PUSH8 0x513F2E785DCB9E4A PUSH1 0xC0 SHL PUSH2 0x1670 JUMP JUMPDEST PUSH2 0x2420 PUSH8 0xD9394FE2D2AF3FC4 PUSH1 0xC0 SHL PUSH2 0x1670 JUMP JUMPDEST PUSH2 0x2434 DUP6 DUP8 PUSH2 0x242F SWAP2 SWAP1 PUSH2 0x3A60 JUMP JUMPDEST PUSH2 0x2D64 JUMP JUMPDEST SWAP2 POP PUSH2 0x25D3 JUMP JUMPDEST PUSH2 0x244F PUSH8 0x560EE63455522A0B PUSH1 0xC0 SHL PUSH2 0x1670 JUMP JUMPDEST PUSH2 0x2463 PUSH8 0x1BEB57307F6D560E PUSH1 0xC0 SHL PUSH2 0x1670 JUMP JUMPDEST PUSH2 0x2477 PUSH8 0x1FC990BA8E0B7AB0 PUSH1 0xC0 SHL PUSH2 0x1670 JUMP JUMPDEST PUSH2 0x248B PUSH8 0x7AA963DA995335EB PUSH1 0xC0 SHL PUSH2 0x1670 JUMP JUMPDEST PUSH1 0x0 DUP5 GT DUP1 ISZERO PUSH2 0x249B JUMPI POP PUSH1 0x0 DUP4 GT JUMPDEST PUSH2 0x24DA JUMPI PUSH1 0x40 MLOAD PUSH32 0x8C379A000000000000000000000000000000000000000000000000000000000 DUP2 MSTORE PUSH1 0x4 ADD PUSH2 0x24D1 SWAP1 PUSH2 0x3C92 JUMP JUMPDEST PUSH1 0x40 MLOAD DUP1 SWAP2 SUB SWAP1 REVERT JUMPDEST PUSH2 0x24EE PUSH8 0xFE6BC342232FF51C PUSH1 0xC0 SHL PUSH2 0x1670 JUMP JUMPDEST PUSH2 0x2502 PUSH8 0xD4525431C5EA0E40 PUSH1 0xC0 SHL PUSH2 0x1670 JUMP JUMPDEST PUSH2 0x2516 PUSH8 0x40750DD72DF8EAEE PUSH1 0xC0 SHL PUSH2 0x1670 JUMP JUMPDEST PUSH1 0x0 DUP5 DUP3 DUP9 PUSH2 0x2525 SWAP2 SWAP1 PUSH2 0x3A60 JUMP JUMPDEST PUSH2 0x252F SWAP2 SWAP1 PUSH2 0x3AD1 JUMP JUMPDEST SWAP1 POP PUSH2 0x2545 PUSH8 0xAE347648082F3D95 PUSH1 0xC0 SHL PUSH2 0x1670 JUMP JUMPDEST PUSH2 0x2559 PUSH8 0xE42842C190B331D5 PUSH1 0xC0 SHL PUSH2 0x1670 JUMP JUMPDEST PUSH1 0x0 DUP5 DUP4 DUP9 PUSH2 0x2568 SWAP2 SWAP1 PUSH2 0x3A60 JUMP JUMPDEST PUSH2 0x2572 SWAP2 SWAP1 PUSH2 0x3AD1 JUMP JUMPDEST SWAP1 POP PUSH2 0x2588 PUSH8 0x599FCC97ED24D350 PUSH1 0xC0 SHL PUSH2 0x1670 JUMP JUMPDEST DUP1 DUP3 LT DUP1 PUSH2 0x25A6 JUMPI POP PUSH2 0x25A5 PUSH8 0xC47FFDA81D9D8E21 PUSH1 0xC0 SHL PUSH2 0x2D52 JUMP JUMPDEST JUMPDEST DUP1 ISZERO PUSH2 0x25C2 JUMPI POP PUSH2 0x25C1 PUSH8 0x63B394533B1E70E8 PUSH1 0xC0 SHL PUSH2 0x2D59 JUMP JUMPDEST JUMPDEST PUSH2 0x25CC JUMPI DUP1 PUSH2 0x25CE JUMP JUMPDEST DUP2 JUMPDEST SWAP4 POP POP POP JUMPDEST PUSH2 0x25E7 PUSH8 0x26EB697568554D83 PUSH1 0xC0 SHL PUSH2 0x1670 JUMP JUMPDEST PUSH2 0x25FB PUSH8 0xAF6E65CFADE85379 PUSH1 0xC0 SHL PUSH2 0x1670 JUMP JUMPDEST PUSH2 0x260F PUSH8 0x3C3006DBD69C9EDC PUSH1 0xC0 SHL PUSH2 0x1670 JUMP JUMPDEST PUSH1 0x0 DUP3 GT PUSH2 0x2652 JUMPI PUSH1 0x40 MLOAD PUSH32 0x8C379A000000000000000000000000000000000000000000000000000000000 DUP2 MSTORE PUSH1 0x4 ADD PUSH2 0x2649 SWAP1 PUSH2 0x3E0D JUMP JUMPDEST PUSH1 0x40 MLOAD DUP1 SWAP2 SUB SWAP1 REVERT JUMPDEST PUSH2 0x2666 PUSH8 0x60918F7E64834ABF PUSH1 0xC0 SHL PUSH2 0x1670 JUMP JUMPDEST POP SWAP5 SWAP4 POP POP POP POP JUMP JUMPDEST PUSH1 0x0 PUSH20 0xFFFFFFFFFFFFFFFFFFFFFFFFFFFFFFFFFFFFFFFF AND DUP3 PUSH20 0xFFFFFFFFFFFFFFFFFFFFFFFFFFFFFFFFFFFFFFFF AND SUB PUSH2 0x26E1 JUMPI PUSH1 0x0 PUSH1 0x40 MLOAD PUSH32 0xEC442F0500000000000000000000000000000000000000000000000000000000 DUP2 MSTORE PUSH1 0x4 ADD PUSH2 0x26D8 SWAP2 SWAP1 PUSH2 0x3423 JUMP JUMPDEST PUSH1 0x40 MLOAD DUP1 SWAP2 SUB SWAP1 REVERT JUMPDEST PUSH2 0x26ED PUSH1 0x0 DUP4 DUP4 PUSH2 0x28C8 JUMP JUMPDEST POP POP JUMP JUMPDEST PUSH1 0x0 PUSH20 0xFFFFFFFFFFFFFFFFFFFFFFFFFFFFFFFFFFFFFFFF AND DUP5 PUSH20 0xFFFFFFFFFFFFFFFFFFFFFFFFFFFFFFFFFFFFFFFF AND SUB PUSH2 0x2763 JUMPI PUSH1 0x0 PUSH1 0x40 MLOAD PUSH32 0xE602DF0500000000000000000000000000000000000000000000000000000000 DUP2 MSTORE PUSH1 0x4 ADD PUSH2 0x275A SWAP2 SWAP1 PUSH2 0x3423 JUMP JUMPDEST PUSH1 0x40 MLOAD DUP1 SWAP2 SUB SWAP1 REVERT JUMPDEST PUSH1 0x0 PUSH20 0xFFFFFFFFFFFFFFFFFFFFFFFFFFFFFFFFFFFFFFFF AND DUP4 PUSH20 0xFFFFFFFFFFFFFFFFFFFFFFFFFFFFFFFFFFFFFFFF AND SUB PUSH2 0x27D5 JUMPI PUSH1 0x0 PUSH1 0x40 MLOAD PUSH32 0x94280D6200000000000000000000000000000000000000000000000000000000 DUP2 MSTORE PUSH1 0x4 ADD PUSH2 0x27CC SWAP2 SWAP1 PUSH2 0x3423 JUMP JUMPDEST PUSH1 0x40 MLOAD DUP1 SWAP2 SUB SWAP1 REVERT JUMPDEST DUP2 PUSH1 0x1 PUSH1 0x0 DUP7 PUSH20 0xFFFFFFFFFFFFFFFFFFFFFFFFFFFFFFFFFFFFFFFF AND PUSH20 0xFFFFFFFFFFFFFFFFFFFFFFFFFFFFFFFFFFFFFFFF AND DUP2 MSTORE PUSH1 0x20 ADD SWAP1 DUP2 MSTORE PUSH1 0x20 ADD PUSH1 0x0 KECCAK256 PUSH1 0x0 DUP6 PUSH20 0xFFFFFFFFFFFFFFFFFFFFFFFFFFFFFFFFFFFFFFFF AND PUSH20 0xFFFFFFFFFFFFFFFFFFFFFFFFFFFFFFFFFFFFFFFF AND DUP2 MSTORE PUSH1 0x20 ADD SWAP1 DUP2 MSTORE PUSH1 0x20 ADD PUSH1 0x0 KECCAK256 DUP2 SWAP1 SSTORE POP DUP1 ISZERO PUSH2 0x28C2 JUMPI DUP3 PUSH20 0xFFFFFFFFFFFFFFFFFFFFFFFFFFFFFFFFFFFFFFFF AND DUP5 PUSH20 0xFFFFFFFFFFFFFFFFFFFFFFFFFFFFFFFFFFFFFFFF AND PUSH32 0x8C5BE1E5EBEC7D5BD14F71427D1E84F3DD0314C0F7B2291E5B200AC8C7C3B925 DUP5 PUSH1 0x40 MLOAD PUSH2 0x28B9 SWAP2 SWAP1 PUSH2 0x2FDD JUMP JUMPDEST PUSH1 0x40 MLOAD DUP1 SWAP2 SUB SWAP1 LOG3 JUMPDEST POP POP POP POP JUMP JUMPDEST PUSH1 0x0 PUSH20 0xFFFFFFFFFFFFFFFFFFFFFFFFFFFFFFFFFFFFFFFF AND DUP4 PUSH20 0xFFFFFFFFFFFFFFFFFFFFFFFFFFFFFFFFFFFFFFFF AND SUB PUSH2 0x291A JUMPI DUP1 PUSH1 0x2 PUSH1 0x0 DUP3 DUP3 SLOAD PUSH2 0x290E SWAP2 SWAP1 PUSH2 0x395D JUMP JUMPDEST SWAP3 POP POP DUP2 SWAP1 SSTORE POP PUSH2 0x29ED JUMP JUMPDEST PUSH1 0x0 DUP1 PUSH1 0x0 DUP6 PUSH20 0xFFFFFFFFFFFFFFFFFFFFFFFFFFFFFFFFFFFFFFFF AND PUSH20 0xFFFFFFFFFFFFFFFFFFFFFFFFFFFFFFFFFFFFFFFF AND DUP2 MSTORE PUSH1 0x20 ADD SWAP1 DUP2 MSTORE PUSH1 0x20 ADD PUSH1 0x0 KECCAK256 SLOAD SWAP1 POP DUP2 DUP2 LT ISZERO PUSH2 0x29A6 JUMPI DUP4 DUP2 DUP4 PUSH1 0x40 MLOAD PUSH32 0xE450D38C00000000000000000000000000000000000000000000000000000000 DUP2 MSTORE PUSH1 0x4 ADD PUSH2 0x299D SWAP4 SWAP3 SWAP2 SWAP1 PUSH2 0x3CB2 JUMP JUMPDEST PUSH1 0x40 MLOAD DUP1 SWAP2 SUB SWAP1 REVERT JUMPDEST DUP2 DUP2 SUB PUSH1 0x0 DUP1 DUP7 PUSH20 0xFFFFFFFFFFFFFFFFFFFFFFFFFFFFFFFFFFFFFFFF AND PUSH20 0xFFFFFFFFFFFFFFFFFFFFFFFFFFFFFFFFFFFFFFFF AND DUP2 MSTORE PUSH1 0x20 ADD SWAP1 DUP2 MSTORE PUSH1 0x20 ADD PUSH1 0x0 KECCAK256 DUP2 SWAP1 SSTORE POP POP JUMPDEST PUSH1 0x0 PUSH20 0xFFFFFFFFFFFFFFFFFFFFFFFFFFFFFFFFFFFFFFFF AND DUP3 PUSH20 0xFFFFFFFFFFFFFFFFFFFFFFFFFFFFFFFFFFFFFFFF AND SUB PUSH2 0x2A36 JUMPI DUP1 PUSH1 0x2 PUSH1 0x0 DUP3 DUP3 SLOAD SUB SWAP3 POP POP DUP2 SWAP1 SSTORE POP PUSH2 0x2A83 JUMP JUMPDEST DUP1 PUSH1 0x0 DUP1 DUP5 PUSH20 0xFFFFFFFFFFFFFFFFFFFFFFFFFFFFFFFFFFFFFFFF AND PUSH20 0xFFFFFFFFFFFFFFFFFFFFFFFFFFFFFFFFFFFFFFFF AND DUP2 MSTORE PUSH1 0x20 ADD SWAP1 DUP2 MSTORE PUSH1 0x20 ADD PUSH1 0x0 KECCAK256 PUSH1 0x0 DUP3 DUP3 SLOAD ADD SWAP3 POP POP DUP2 SWAP1 SSTORE POP JUMPDEST DUP2 PUSH20 0xFFFFFFFFFFFFFFFFFFFFFFFFFFFFFFFFFFFFFFFF AND DUP4 PUSH20 0xFFFFFFFFFFFFFFFFFFFFFFFFFFFFFFFFFFFFFFFF AND PUSH32 0xDDF252AD1BE2C89B69C2B068FC378DAA952BA7F163C4A11628F55A4DF523B3EF DUP4 PUSH1 0x40 MLOAD PUSH2 0x2AE0 SWAP2 SWAP1 PUSH2 0x2FDD JUMP JUMPDEST PUSH1 0x40 MLOAD DUP1 SWAP2 SUB SWAP1 LOG3 POP POP POP JUMP JUMPDEST PUSH1 0x0 DUP1 PUSH2 0x2B04 PUSH8 0x98028E1D05F4A225 PUSH1 0xC0 SHL PUSH2 0x1670 JUMP JUMPDEST PUSH2 0x2B18 PUSH8 0x491F9CB31127D7F3 PUSH1 0xC0 SHL PUSH2 0x1670 JUMP JUMPDEST PUSH2 0x2B2C PUSH8 0xA27D89E49575CD30 PUSH1 0xC0 SHL PUSH2 0x1670 JUMP JUMPDEST PUSH2 0x2B40 PUSH8 0x322CDA63BDDE657 PUSH1 0xC0 SHL PUSH2 0x1670 JUMP JUMPDEST DUP3 PUSH20 0xFFFFFFFFFFFFFFFFFFFFFFFFFFFFFFFFFFFFFFFF AND DUP5 PUSH20 0xFFFFFFFFFFFFFFFFFFFFFFFFFFFFFFFFFFFFFFFF AND SUB PUSH2 0x2BAE JUMPI PUSH1 0x40 MLOAD PUSH32 0x8C379A000000000000000000000000000000000000000000000000000000000 DUP2 MSTORE PUSH1 0x4 ADD PUSH2 0x2BA5 SWAP1 PUSH2 0x3E79 JUMP JUMPDEST PUSH1 0x40 MLOAD DUP1 SWAP2 SUB SWAP1 REVERT JUMPDEST PUSH2 0x2BC2 PUSH8 0x9508C9814A1B6794 PUSH1 0xC0 SHL PUSH2 0x1670 JUMP JUMPDEST PUSH2 0x2BD6 PUSH8 0xD5FA7946AC433154 PUSH1 0xC0 SHL PUSH2 0x1670 JUMP JUMPDEST PUSH2 0x2BEA PUSH8 0x1D73680D7945FB09 PUSH1 0xC0 SHL PUSH2 0x1670 JUMP JUMPDEST PUSH2 0x2BFE PUSH8 0xB0944A50295E4B81 PUSH1 0xC0 SHL PUSH2 0x1670 JUMP JUMPDEST PUSH1 0x0 PUSH20 0xFFFFFFFFFFFFFFFFFFFFFFFFFFFFFFFFFFFFFFFF AND DUP5 PUSH20 0xFFFFFFFFFFFFFFFFFFFFFFFFFFFFFFFFFFFFFFFF AND EQ ISZERO DUP1 ISZERO PUSH2 0x2C68 JUMPI POP PUSH1 0x0 PUSH20 0xFFFFFFFFFFFFFFFFFFFFFFFFFFFFFFFFFFFFFFFF AND DUP4 PUSH20 0xFFFFFFFFFFFFFFFFFFFFFFFFFFFFFFFFFFFFFFFF AND EQ ISZERO JUMPDEST PUSH2 0x2CA7 JUMPI PUSH1 0x40 MLOAD PUSH32 0x8C379A000000000000000000000000000000000000000000000000000000000 DUP2 MSTORE PUSH1 0x4 ADD PUSH2 0x2C9E SWAP1 PUSH2 0x3EE5 JUMP JUMPDEST PUSH1 0x40 MLOAD DUP1 SWAP2 SUB SWAP1 REVERT JUMPDEST PUSH2 0x2CBB PUSH8 0xFFC6C97F54F370A5 PUSH1 0xC0 SHL PUSH2 0x1670 JUMP JUMPDEST PUSH2 0x2CCF PUSH8 0x57212C6F9AE45C0 PUSH1 0xC0 SHL PUSH2 0x1670 JUMP JUMPDEST DUP3 PUSH20 0xFFFFFFFFFFFFFFFFFFFFFFFFFFFFFFFFFFFFFFFF AND DUP5 PUSH20 0xFFFFFFFFFFFFFFFFFFFFFFFFFFFFFFFFFFFFFFFF AND LT DUP1 PUSH2 0x2D19 JUMPI POP PUSH2 0x2D18 PUSH8 0xBABA433C456A8EF PUSH1 0xC0 SHL PUSH2 0x2D52 JUMP JUMPDEST JUMPDEST DUP1 ISZERO PUSH2 0x2D35 JUMPI POP PUSH2 0x2D34 PUSH8 0x4EA8E2ED9C55AD9A PUSH1 0xC0 SHL PUSH2 0x2D59 JUMP JUMPDEST JUMPDEST PUSH2 0x2D40 JUMPI DUP3 DUP5 PUSH2 0x2D43 JUMP JUMPDEST DUP4 DUP4 JUMPDEST DUP1 SWAP3 POP DUP2 SWAP4 POP POP POP SWAP3 POP SWAP3 SWAP1 POP JUMP JUMPDEST PUSH1 0x0 SWAP2 SWAP1 POP JUMP JUMPDEST PUSH1 0x0 PUSH1 0x1 SWAP1 POP SWAP2 SWAP1 POP JUMP JUMPDEST PUSH1 0x0 PUSH2 0x2D7A PUSH8 0x84FEF24DFB92E7D7 PUSH1 0xC0 SHL PUSH2 0x1670 JUMP JUMPDEST PUSH2 0x2D8E PUSH8 0x9C823C520DE87926 PUSH1 0xC0 SHL PUSH2 0x1670 JUMP JUMPDEST PUSH2 0x2DA2 PUSH8 0x41CE3A5312E94C4F PUSH1 0xC0 SHL PUSH2 0x1670 JUMP JUMPDEST PUSH1 0x3 DUP3 GT ISZERO PUSH2 0x2EA7 JUMPI PUSH2 0x2DBF PUSH8 0x56953B04F1A8C8C2 PUSH1 0xC0 SHL PUSH2 0x1670 JUMP JUMPDEST PUSH2 0x2DD3 PUSH8 0xFB95AD0B7D1543D1 PUSH1 0xC0 SHL PUSH2 0x1670 JUMP JUMPDEST DUP2 SWAP1 POP PUSH2 0x2DEA PUSH8 0xFED7C7AEA9CC710 PUSH1 0xC0 SHL PUSH2 0x1670 JUMP JUMPDEST PUSH2 0x2DFE PUSH8 0x43A0DAFE8D64A517 PUSH1 0xC0 SHL PUSH2 0x1670 JUMP JUMPDEST PUSH1 0x0 PUSH1 0x1 PUSH1 0x2 DUP5 PUSH2 0x2E0F SWAP2 SWAP1 PUSH2 0x3AD1 JUMP JUMPDEST PUSH2 0x2E19 SWAP2 SWAP1 PUSH2 0x395D JUMP JUMPDEST SWAP1 POP PUSH2 0x2E2F PUSH8 0xC454EDA00DBCD5C8 PUSH1 0xC0 SHL PUSH2 0x1670 JUMP JUMPDEST PUSH2 0x2E43 PUSH8 0x81F542C0B9F84724 PUSH1 0xC0 SHL PUSH2 0x1670 JUMP JUMPDEST JUMPDEST DUP2 DUP2 LT ISZERO PUSH2 0x2EA1 JUMPI PUSH2 0x2E60 PUSH8 0x83D6DC0C4B468EEB PUSH1 0xC0 SHL PUSH2 0x1670 JUMP JUMPDEST DUP1 SWAP2 POP PUSH2 0x2E77 PUSH8 0x42424D93BE508475 PUSH1 0xC0 SHL PUSH2 0x1670 JUMP JUMPDEST PUSH1 0x2 DUP2 DUP3 DUP6 PUSH2 0x2E86 SWAP2 SWAP1 PUSH2 0x3AD1 JUMP JUMPDEST PUSH2 0x2E90 SWAP2 SWAP1 PUSH2 0x395D JUMP JUMPDEST PUSH2 0x2E9A SWAP2 SWAP1 PUSH2 0x3AD1 JUMP JUMPDEST SWAP1 POP PUSH2 0x2E44 JUMP JUMPDEST POP PUSH2 0x2F36 JUMP JUMPDEST PUSH2 0x2EBB PUSH8 0x6CE0D885B3389340 PUSH1 0xC0 SHL PUSH2 0x1670 JUMP JUMPDEST PUSH2 0x2ECF PUSH8 0x34EB2539E16149E1 PUSH1 0xC0 SHL PUSH2 0x1670 JUMP JUMPDEST PUSH1 0x0 DUP3 EQ PUSH2 0x2F08 JUMPI PUSH2 0x2EEB PUSH8 0x8EC0F184431412EF PUSH1 0xC0 SHL PUSH2 0x1670 JUMP JUMPDEST PUSH2 0x2EFF PUSH8 0x24E9755DD18D3CEF PUSH1 0xC0 SHL PUSH2 0x1670 JUMP JUMPDEST PUSH1 0x1 SWAP1 POP PUSH2 0x2F35 JUMP JUMPDEST PUSH2 0x2F1C PUSH8 0x155CFC702403175F PUSH1 0xC0 SHL PUSH2 0x1670 JUMP JUMPDEST PUSH2 0x2F30 PUSH8 0xBA2B9DBB5C3DB43 PUSH1 0xC0 SHL PUSH2 0x1670 JUMP JUMPDEST PUSH1 0x0 SWAP1 POP JUMPDEST JUMPDEST SWAP2 SWAP1 POP JUMP JUMPDEST PUSH1 0x0 DUP1 REVERT JUMPDEST PUSH1 0x0 DUP1 REVERT JUMPDEST PUSH1 0x0 DUP2 SWAP1 POP SWAP2 SWAP1 POP JUMP JUMPDEST PUSH2 0x2F58 DUP2 PUSH2 0x2F45 JUMP JUMPDEST DUP2 EQ PUSH2 0x2F63 JUMPI PUSH1 0x0 DUP1 REVERT JUMPDEST POP JUMP JUMPDEST PUSH1 0x0 DUP2 CALLDATALOAD SWAP1 POP PUSH2 0x2F75 DUP2 PUSH2 0x2F4F JUMP JUMPDEST SWAP3 SWAP2 POP POP JUMP JUMPDEST PUSH1 0x0 DUP1 PUSH1 0x0 PUSH1 0x60 DUP5 DUP7 SUB SLT ISZERO PUSH2 0x2F94 JUMPI PUSH2 0x2F93 PUSH2 0x2F3B JUMP JUMPDEST JUMPDEST PUSH1 0x0 PUSH2 0x2FA2 DUP7 DUP3 DUP8 ADD PUSH2 0x2F66 JUMP JUMPDEST SWAP4 POP POP PUSH1 0x20 PUSH2 0x2FB3 DUP7 DUP3 DUP8 ADD PUSH2 0x2F66 JUMP JUMPDEST SWAP3 POP POP PUSH1 0x40 PUSH2 0x2FC4 DUP7 DUP3 DUP8 ADD PUSH2 0x2F66 JUMP JUMPDEST SWAP2 POP POP SWAP3 POP SWAP3 POP SWAP3 JUMP JUMPDEST PUSH2 0x2FD7 DUP2 PUSH2 0x2F45 JUMP JUMPDEST DUP3 MSTORE POP POP JUMP JUMPDEST PUSH1 0x0 PUSH1 0x20 DUP3 ADD SWAP1 POP PUSH2 0x2FF2 PUSH1 0x0 DUP4 ADD DUP5 PUSH2 0x2FCE JUMP JUMPDEST SWAP3 SWAP2 POP POP JUMP JUMPDEST PUSH1 0x0 DUP2 MLOAD SWAP1 POP SWAP2 SWAP1 POP JUMP JUMPDEST PUSH1 0x0 DUP3 DUP3 MSTORE PUSH1 0x20 DUP3 ADD SWAP1 POP SWAP3 SWAP2 POP POP JUMP JUMPDEST PUSH1 0x0 JUMPDEST DUP4 DUP2 LT ISZERO PUSH2 0x3032 JUMPI DUP1 DUP3 ADD MLOAD DUP2 DUP5 ADD MSTORE PUSH1 0x20 DUP2 ADD SWAP1 POP PUSH2 0x3017 JUMP JUMPDEST PUSH1 0x0 DUP5 DUP5 ADD MSTORE POP POP POP POP JUMP JUMPDEST PUSH1 0x0 PUSH1 0x1F NOT PUSH1 0x1F DUP4 ADD AND SWAP1 POP SWAP2 SWAP1 POP JUMP JUMPDEST PUSH1 0x0 PUSH2 0x305A DUP3 PUSH2 0x2FF8 JUMP JUMPDEST PUSH2 0x3064 DUP2 DUP6 PUSH2 0x3003 JUMP JUMPDEST SWAP4 POP PUSH2 0x3074 DUP2 DUP6 PUSH1 0x20 DUP7 ADD PUSH2 0x3014 JUMP JUMPDEST PUSH2 0x307D DUP2 PUSH2 0x303E JUMP JUMPDEST DUP5 ADD SWAP2 POP POP SWAP3 SWAP2 POP POP JUMP JUMPDEST PUSH1 0x0 PUSH1 0x20 DUP3 ADD SWAP1 POP DUP2 DUP2 SUB PUSH1 0x0 DUP4 ADD MSTORE PUSH2 0x30A2 DUP2 DUP5 PUSH2 0x304F JUMP JUMPDEST SWAP1 POP SWAP3 SWAP2 POP POP JUMP JUMPDEST PUSH1 0x0 PUSH20 0xFFFFFFFFFFFFFFFFFFFFFFFFFFFFFFFFFFFFFFFF DUP3 AND SWAP1 POP SWAP2 SWAP1 POP JUMP JUMPDEST PUSH1 0x0 PUSH2 0x30D5 DUP3 PUSH2 0x30AA JUMP JUMPDEST SWAP1 POP SWAP2 SWAP1 POP JUMP JUMPDEST PUSH2 0x30E5 DUP2 PUSH2 0x30CA JUMP JUMPDEST DUP2 EQ PUSH2 0x30F0 JUMPI PUSH1 0x0 DUP1 REVERT JUMPDEST POP JUMP JUMPDEST PUSH1 0x0 DUP2 CALLDATALOAD SWAP1 POP PUSH2 0x3102 DUP2 PUSH2 0x30DC JUMP JUMPDEST SWAP3 SWAP2 POP POP JUMP JUMPDEST PUSH1 0x0 DUP1 PUSH1 0x40 DUP4 DUP6 SUB SLT ISZERO PUSH2 0x311F JUMPI PUSH2 0x311E PUSH2 0x2F3B JUMP JUMPDEST JUMPDEST PUSH1 0x0 PUSH2 0x312D DUP6 DUP3 DUP7 ADD PUSH2 0x30F3 JUMP JUMPDEST SWAP3 POP POP PUSH1 0x20 PUSH2 0x313E DUP6 DUP3 DUP7 ADD PUSH2 0x2F66 JUMP JUMPDEST SWAP2 POP POP SWAP3 POP SWAP3 SWAP1 POP JUMP JUMPDEST PUSH1 0x0 DUP2 ISZERO ISZERO SWAP1 POP SWAP2 SWAP1 POP JUMP JUMPDEST PUSH2 0x315D DUP2 PUSH2 0x3148 JUMP JUMPDEST DUP3 MSTORE POP POP JUMP JUMPDEST PUSH1 0x0 PUSH1 0x20 DUP3 ADD SWAP1 POP PUSH2 0x3178 PUSH1 0x0 DUP4 ADD DUP5 PUSH2 0x3154 JUMP JUMPDEST SWAP3 SWAP2 POP POP JUMP JUMPDEST PUSH1 0x0 DUP1 PUSH1 0x0 PUSH1 0x60 DUP5 DUP7 SUB SLT ISZERO PUSH2 0x3197 JUMPI PUSH2 0x3196 PUSH2 0x2F3B JUMP JUMPDEST JUMPDEST PUSH1 0x0 PUSH2 0x31A5 DUP7 DUP3 DUP8 ADD PUSH2 0x30F3 JUMP JUMPDEST SWAP4 POP POP PUSH1 0x20 PUSH2 0x31B6 DUP7 DUP3 DUP8 ADD PUSH2 0x30F3 JUMP JUMPDEST SWAP3 POP POP PUSH1 0x40 PUSH2 0x31C7 DUP7 DUP3 DUP8 ADD PUSH2 0x2F66 JUMP JUMPDEST SWAP2 POP POP SWAP3 POP SWAP3 POP SWAP3 JUMP JUMPDEST PUSH1 0x0 PUSH1 0xFF DUP3 AND SWAP1 POP SWAP2 SWAP1 POP JUMP JUMPDEST PUSH2 0x31E7 DUP2 PUSH2 0x31D1 JUMP JUMPDEST DUP3 MSTORE POP POP JUMP JUMPDEST PUSH1 0x0 PUSH1 0x20 DUP3 ADD SWAP1 POP PUSH2 0x3202 PUSH1 0x0 DUP4 ADD DUP5 PUSH2 0x31DE JUMP JUMPDEST SWAP3 SWAP2 POP POP JUMP JUMPDEST PUSH1 0x0 DUP1 REVERT JUMPDEST PUSH1 0x0 DUP1 REVERT JUMPDEST PUSH1 0x0 DUP1 REVERT JUMPDEST PUSH1 0x0 DUP1 DUP4 PUSH1 0x1F DUP5 ADD SLT PUSH2 0x322D JUMPI PUSH2 0x322C PUSH2 0x3208 JUMP JUMPDEST JUMPDEST DUP3 CALLDATALOAD SWAP1 POP PUSH8 0xFFFFFFFFFFFFFFFF DUP2 GT ISZERO PUSH2 0x324A JUMPI PUSH2 0x3249 PUSH2 0x320D JUMP JUMPDEST JUMPDEST PUSH1 0x20 DUP4 ADD SWAP2 POP DUP4 PUSH1 0x20 DUP3 MUL DUP4 ADD GT ISZERO PUSH2 0x3266 JUMPI PUSH2 0x3265 PUSH2 0x3212 JUMP JUMPDEST JUMPDEST SWAP3 POP SWAP3 SWAP1 POP JUMP JUMPDEST PUSH1 0x0 DUP1 PUSH1 0x0 DUP1 PUSH1 0x0 DUP1 PUSH1 0xA0 DUP8 DUP10 SUB SLT ISZERO PUSH2 0x328A JUMPI PUSH2 0x3289 PUSH2 0x2F3B JUMP JUMPDEST JUMPDEST PUSH1 0x0 PUSH2 0x3298 DUP10 DUP3 DUP11 ADD PUSH2 0x2F66 JUMP JUMPDEST SWAP7 POP POP PUSH1 0x20 PUSH2 0x32A9 DUP10 DUP3 DUP11 ADD PUSH2 0x2F66 JUMP JUMPDEST SWAP6 POP POP PUSH1 0x40 DUP8 ADD CALLDATALOAD PUSH8 0xFFFFFFFFFFFFFFFF DUP2 GT ISZERO PUSH2 0x32CA JUMPI PUSH2 0x32C9 PUSH2 0x2F40 JUMP JUMPDEST JUMPDEST PUSH2 0x32D6 DUP10 DUP3 DUP11 ADD PUSH2 0x3217 JUMP JUMPDEST SWAP5 POP SWAP5 POP POP PUSH1 0x60 PUSH2 0x32E9 DUP10 DUP3 DUP11 ADD PUSH2 0x30F3 JUMP JUMPDEST SWAP3 POP POP PUSH1 0x80 PUSH2 0x32FA DUP10 DUP3 DUP11 ADD PUSH2 0x2F66 JUMP JUMPDEST SWAP2 POP POP SWAP3 SWAP6 POP SWAP3 SWAP6 POP SWAP3 SWAP6 JUMP JUMPDEST PUSH1 0x0 DUP2 MLOAD SWAP1 POP SWAP2 SWAP1 POP JUMP JUMPDEST PUSH1 0x0 DUP3 DUP3 MSTORE PUSH1 0x20 DUP3 ADD SWAP1 POP SWAP3 SWAP2 POP POP JUMP JUMPDEST PUSH1 0x0 DUP2 SWAP1 POP PUSH1 0x20 DUP3 ADD SWAP1 POP SWAP2 SWAP1 POP JUMP JUMPDEST PUSH2 0x333C DUP2 PUSH2 0x2F45 JUMP JUMPDEST DUP3 MSTORE POP POP JUMP JUMPDEST PUSH1 0x0 PUSH2 0x334E DUP4 DUP4 PUSH2 0x3333 JUMP JUMPDEST PUSH1 0x20 DUP4 ADD SWAP1 POP SWAP3 SWAP2 POP POP JUMP JUMPDEST PUSH1 0x0 PUSH1 0x20 DUP3 ADD SWAP1 POP SWAP2 SWAP1 POP JUMP JUMPDEST PUSH1 0x0 PUSH2 0x3372 DUP3 PUSH2 0x3307 JUMP JUMPDEST PUSH2 0x337C DUP2 DUP6 PUSH2 0x3312 JUMP JUMPDEST SWAP4 POP PUSH2 0x3387 DUP4 PUSH2 0x3323 JUMP JUMPDEST DUP1 PUSH1 0x0 JUMPDEST DUP4 DUP2 LT ISZERO PUSH2 0x33B8 JUMPI DUP2 MLOAD PUSH2 0x339F DUP9 DUP3 PUSH2 0x3342 JUMP JUMPDEST SWAP8 POP PUSH2 0x33AA DUP4 PUSH2 0x335A JUMP JUMPDEST SWAP3 POP POP PUSH1 0x1 DUP2 ADD SWAP1 POP PUSH2 0x338B JUMP JUMPDEST POP DUP6 SWAP4 POP POP POP POP SWAP3 SWAP2 POP POP JUMP JUMPDEST PUSH1 0x0 PUSH1 0x20 DUP3 ADD SWAP1 POP DUP2 DUP2 SUB PUSH1 0x0 DUP4 ADD MSTORE PUSH2 0x33DF DUP2 DUP5 PUSH2 0x3367 JUMP JUMPDEST SWAP1 POP SWAP3 SWAP2 POP POP JUMP JUMPDEST PUSH1 0x0 PUSH1 0x20 DUP3 DUP5 SUB SLT ISZERO PUSH2 0x33FD JUMPI PUSH2 0x33FC PUSH2 0x2F3B JUMP JUMPDEST JUMPDEST PUSH1 0x0 PUSH2 0x340B DUP5 DUP3 DUP6 ADD PUSH2 0x30F3 JUMP JUMPDEST SWAP2 POP POP SWAP3 SWAP2 POP POP JUMP JUMPDEST PUSH2 0x341D DUP2 PUSH2 0x30CA JUMP JUMPDEST DUP3 MSTORE POP POP JUMP JUMPDEST PUSH1 0x0 PUSH1 0x20 DUP3 ADD SWAP1 POP PUSH2 0x3438 PUSH1 0x0 DUP4 ADD DUP5 PUSH2 0x3414 JUMP JUMPDEST SWAP3 SWAP2 POP POP JUMP JUMPDEST PUSH1 0x0 DUP1 PUSH1 0x40 DUP4 DUP6 SUB SLT ISZERO PUSH2 0x3455 JUMPI PUSH2 0x3454 PUSH2 0x2F3B JUMP JUMPDEST JUMPDEST PUSH1 0x0 PUSH2 0x3463 DUP6 DUP3 DUP7 ADD PUSH2 0x30F3 JUMP JUMPDEST SWAP3 POP POP PUSH1 0x20 PUSH2 0x3474 DUP6 DUP3 DUP7 ADD PUSH2 0x30F3 JUMP JUMPDEST SWAP2 POP POP SWAP3 POP SWAP3 SWAP1 POP JUMP JUMPDEST PUSH1 0x0 DUP1 PUSH1 0x0 DUP1 PUSH1 0x0 DUP1 PUSH1 0x0 PUSH1 0xE0 DUP9 DUP11 SUB SLT ISZERO PUSH2 0x349D JUMPI PUSH2 0x349C PUSH2 0x2F3B JUMP JUMPDEST JUMPDEST PUSH1 0x0 PUSH2 0x34AB DUP11 DUP3 DUP12 ADD PUSH2 0x30F3 JUMP JUMPDEST SWAP8 POP POP PUSH1 0x20 PUSH2 0x34BC DUP11 DUP3 DUP12 ADD PUSH2 0x30F3 JUMP JUMPDEST SWAP7 POP POP PUSH1 0x40 PUSH2 0x34CD DUP11 DUP3 DUP12 ADD PUSH2 0x2F66 JUMP JUMPDEST SWAP6 POP POP PUSH1 0x60 PUSH2 0x34DE DUP11 DUP3 DUP12 ADD PUSH2 0x2F66 JUMP JUMPDEST SWAP5 POP POP PUSH1 0x80 PUSH2 0x34EF DUP11 DUP3 DUP12 ADD PUSH2 0x2F66 JUMP JUMPDEST SWAP4 POP POP PUSH1 0xA0 PUSH2 0x3500 DUP11 DUP3 DUP12 ADD PUSH2 0x30F3 JUMP JUMPDEST SWAP3 POP POP PUSH1 0xC0 PUSH2 0x3511 DUP11 DUP3 DUP12 ADD PUSH2 0x2F66 JUMP JUMPDEST SWAP2 POP POP SWAP3 SWAP6 SWAP9 SWAP2 SWAP5 SWAP8 POP SWAP3 SWAP6 POP JUMP JUMPDEST PUSH1 0x0 PUSH1 0x40 DUP3 ADD SWAP1 POP PUSH2 0x3535 PUSH1 0x0 DUP4 ADD DUP6 PUSH2 0x2FCE JUMP JUMPDEST PUSH2 0x3542 PUSH1 0x20 DUP4 ADD DUP5 PUSH2 0x2FCE JUMP JUMPDEST SWAP4 SWAP3 POP POP POP JUMP JUMPDEST PUSH1 0x0 DUP1 PUSH1 0x0 DUP1 PUSH1 0x0 DUP1 PUSH1 0x0 DUP1 PUSH2 0x100 DUP10 DUP12 SUB SLT ISZERO PUSH2 0x356A JUMPI PUSH2 0x3569 PUSH2 0x2F3B JUMP JUMPDEST JUMPDEST PUSH1 0x0 PUSH2 0x3578 DUP12 DUP3 DUP13 ADD PUSH2 0x30F3 JUMP JUMPDEST SWAP9 POP POP PUSH1 0x20 PUSH2 0x3589 DUP12 DUP3 DUP13 ADD PUSH2 0x30F3 JUMP JUMPDEST SWAP8 POP POP PUSH1 0x40 PUSH2 0x359A DUP12 DUP3 DUP13 ADD PUSH2 0x2F66 JUMP JUMPDEST SWAP7 POP POP PUSH1 0x60 PUSH2 0x35AB DUP12 DUP3 DUP13 ADD PUSH2 0x2F66 JUMP JUMPDEST SWAP6 POP POP PUSH1 0x80 PUSH2 0x35BC DUP12 DUP3 DUP13 ADD PUSH2 0x2F66 JUMP JUMPDEST SWAP5 POP POP PUSH1 0xA0 PUSH2 0x35CD DUP12 DUP3 DUP13 ADD PUSH2 0x2F66 JUMP JUMPDEST SWAP4 POP POP PUSH1 0xC0 PUSH2 0x35DE DUP12 DUP3 DUP13 ADD PUSH2 0x30F3 JUMP JUMPDEST SWAP3 POP POP PUSH1 0xE0 PUSH2 0x35EF DUP12 DUP3 DUP13 ADD PUSH2 0x2F66 JUMP JUMPDEST SWAP2 POP POP SWAP3 SWAP6 SWAP9 POP SWAP3 SWAP6 SWAP9 SWAP1 SWAP4 SWAP7 POP JUMP JUMPDEST PUSH1 0x0 PUSH1 0x60 DUP3 ADD SWAP1 POP PUSH2 0x3614 PUSH1 0x0 DUP4 ADD DUP7 PUSH2 0x2FCE JUMP JUMPDEST PUSH2 0x3621 PUSH1 0x20 DUP4 ADD DUP6 PUSH2 0x2FCE JUMP JUMPDEST PUSH2 0x362E PUSH1 0x40 DUP4 ADD DUP5 PUSH2 0x2FCE JUMP JUMPDEST SWAP5 SWAP4 POP POP POP POP JUMP JUMPDEST PUSH32 0x4E487B7100000000000000000000000000000000000000000000000000000000 PUSH1 0x0 MSTORE PUSH1 0x22 PUSH1 0x4 MSTORE PUSH1 0x24 PUSH1 0x0 REVERT JUMPDEST PUSH1 0x0 PUSH1 0x2 DUP3 DIV SWAP1 POP PUSH1 0x1 DUP3 AND DUP1 PUSH2 0x367D JUMPI PUSH1 0x7F DUP3 AND SWAP2 POP JUMPDEST PUSH1 0x20 DUP3 LT DUP2 SUB PUSH2 0x3690 JUMPI PUSH2 0x368F PUSH2 0x3636 JUMP JUMPDEST JUMPDEST POP SWAP2 SWAP1 POP JUMP JUMPDEST PUSH32 0x446561646C696E65206578706972656400000000000000000000000000000000 PUSH1 0x0 DUP3 ADD MSTORE POP JUMP JUMPDEST PUSH1 0x0 PUSH2 0x36CC PUSH1 0x10 DUP4 PUSH2 0x3003 JUMP JUMPDEST SWAP2 POP PUSH2 0x36D7 DUP3 PUSH2 0x3696 JUMP JUMPDEST PUSH1 0x20 DUP3 ADD SWAP1 POP SWAP2 SWAP1 POP JUMP JUMPDEST PUSH1 0x0 PUSH1 0x20 DUP3 ADD SWAP1 POP DUP2 DUP2 SUB PUSH1 0x0 DUP4 ADD MSTORE PUSH2 0x36FB DUP2 PUSH2 0x36BF JUMP JUMPDEST SWAP1 POP SWAP2 SWAP1 POP JUMP JUMPDEST PUSH32 0x4F6E6C7920312D7374657020737761707320737570706F727465640000000000 PUSH1 0x0 DUP3 ADD MSTORE POP JUMP JUMPDEST PUSH1 0x0 PUSH2 0x3738 PUSH1 0x1B DUP4 PUSH2 0x3003 JUMP JUMPDEST SWAP2 POP PUSH2 0x3743 DUP3 PUSH2 0x3702 JUMP JUMPDEST PUSH1 0x20 DUP3 ADD SWAP1 POP SWAP2 SWAP1 POP JUMP JUMPDEST PUSH1 0x0 PUSH1 0x20 DUP3 ADD SWAP1 POP DUP2 DUP2 SUB PUSH1 0x0 DUP4 ADD MSTORE PUSH2 0x3767 DUP2 PUSH2 0x372B JUMP JUMPDEST SWAP1 POP SWAP2 SWAP1 POP JUMP JUMPDEST PUSH32 0x4E487B7100000000000000000000000000000000000000000000000000000000 PUSH1 0x0 MSTORE PUSH1 0x32 PUSH1 0x4 MSTORE PUSH1 0x24 PUSH1 0x0 REVERT JUMPDEST PUSH32 0x4E6F206C69717569646974790000000000000000000000000000000000000000 PUSH1 0x0 DUP3 ADD MSTORE POP JUMP JUMPDEST PUSH1 0x0 PUSH2 0x37D3 PUSH1 0xC DUP4 PUSH2 0x3003 JUMP JUMPDEST SWAP2 POP PUSH2 0x37DE DUP3 PUSH2 0x379D JUMP JUMPDEST PUSH1 0x20 DUP3 ADD SWAP1 POP SWAP2 SWAP1 POP JUMP JUMPDEST PUSH1 0x0 PUSH1 0x20 DUP3 ADD SWAP1 POP DUP2 DUP2 SUB PUSH1 0x0 DUP4 ADD MSTORE PUSH2 0x3802 DUP2 PUSH2 0x37C6 JUMP JUMPDEST SWAP1 POP SWAP2 SWAP1 POP JUMP JUMPDEST PUSH32 0x496E73756666696369656E74206F757470757420616D6F756E74000000000000 PUSH1 0x0 DUP3 ADD MSTORE POP JUMP JUMPDEST PUSH1 0x0 PUSH2 0x383F PUSH1 0x1A DUP4 PUSH2 0x3003 JUMP JUMPDEST SWAP2 POP PUSH2 0x384A DUP3 PUSH2 0x3809 JUMP JUMPDEST PUSH1 0x20 DUP3 ADD SWAP1 POP SWAP2 SWAP1 POP JUMP JUMPDEST PUSH1 0x0 PUSH1 0x20 DUP3 ADD SWAP1 POP DUP2 DUP2 SUB PUSH1 0x0 DUP4 ADD MSTORE PUSH2 0x386E DUP2 PUSH2 0x3832 JUMP JUMPDEST SWAP1 POP SWAP2 SWAP1 POP JUMP JUMPDEST PUSH1 0x0 PUSH1 0x60 DUP3 ADD SWAP1 POP PUSH2 0x388A PUSH1 0x0 DUP4 ADD DUP7 PUSH2 0x3414 JUMP JUMPDEST PUSH2 0x3897 PUSH1 0x20 DUP4 ADD DUP6 PUSH2 0x3414 JUMP JUMPDEST PUSH2 0x38A4 PUSH1 0x40 DUP4 ADD DUP5 PUSH2 0x2FCE JUMP JUMPDEST SWAP5 SWAP4 POP POP POP POP JUMP JUMPDEST PUSH2 0x38B5 DUP2 PUSH2 0x3148 JUMP JUMPDEST DUP2 EQ PUSH2 0x38C0 JUMPI PUSH1 0x0 DUP1 REVERT JUMPDEST POP JUMP JUMPDEST PUSH1 0x0 DUP2 MLOAD SWAP1 POP PUSH2 0x38D2 DUP2 PUSH2 0x38AC JUMP JUMPDEST SWAP3 SWAP2 POP POP JUMP JUMPDEST PUSH1 0x0 PUSH1 0x20 DUP3 DUP5 SUB SLT ISZERO PUSH2 0x38EE JUMPI PUSH2 0x38ED PUSH2 0x2F3B JUMP JUMPDEST JUMPDEST PUSH1 0x0 PUSH2 0x38FC DUP5 DUP3 DUP6 ADD PUSH2 0x38C3 JUMP JUMPDEST SWAP2 POP POP SWAP3 SWAP2 POP POP JUMP JUMPDEST PUSH1 0x0 PUSH1 0x40 DUP3 ADD SWAP1 POP PUSH2 0x391A PUSH1 0x0 DUP4 ADD DUP6 PUSH2 0x3414 JUMP JUMPDEST PUSH2 0x3927 PUSH1 0x20 DUP4 ADD DUP5 PUSH2 0x2FCE JUMP JUMPDEST SWAP4 SWAP3 POP POP POP JUMP JUMPDEST PUSH32 0x4E487B7100000000000000000000000000000000000000000000000000000000 PUSH1 0x0 MSTORE PUSH1 0x11 PUSH1 0x4 MSTORE PUSH1 0x24 PUSH1 0x0 REVERT JUMPDEST PUSH1 0x0 PUSH2 0x3968 DUP3 PUSH2 0x2F45 JUMP JUMPDEST SWAP2 POP PUSH2 0x3973 DUP4 PUSH2 0x2F45 JUMP JUMPDEST SWAP3 POP DUP3 DUP3 ADD SWAP1 POP DUP1 DUP3 GT ISZERO PUSH2 0x398B JUMPI PUSH2 0x398A PUSH2 0x392E JUMP JUMPDEST JUMPDEST SWAP3 SWAP2 POP POP JUMP JUMPDEST PUSH1 0x0 PUSH2 0x399C DUP3 PUSH2 0x2F45 JUMP JUMPDEST SWAP2 POP PUSH2 0x39A7 DUP4 PUSH2 0x2F45 JUMP JUMPDEST SWAP3 POP DUP3 DUP3 SUB SWAP1 POP DUP2 DUP2 GT ISZERO PUSH2 0x39BF JUMPI PUSH2 0x39BE PUSH2 0x392E JUMP JUMPDEST JUMPDEST SWAP3 SWAP2 POP POP JUMP JUMPDEST PUSH32 0x4E487B7100000000000000000000000000000000000000000000000000000000 PUSH1 0x0 MSTORE PUSH1 0x41 PUSH1 0x4 MSTORE PUSH1 0x24 PUSH1 0x0 REVERT JUMPDEST PUSH32 0x4E6F206C697175696469747920666F7220746F6B656E41000000000000000000 PUSH1 0x0 DUP3 ADD MSTORE POP JUMP JUMPDEST PUSH1 0x0 PUSH2 0x3A2A PUSH1 0x17 DUP4 PUSH2 0x3003 JUMP JUMPDEST SWAP2 POP PUSH2 0x3A35 DUP3 PUSH2 0x39F4 JUMP JUMPDEST PUSH1 0x20 DUP3 ADD SWAP1 POP SWAP2 SWAP1 POP JUMP JUMPDEST PUSH1 0x0 PUSH1 0x20 DUP3 ADD SWAP1 POP DUP2 DUP2 SUB PUSH1 0x0 DUP4 ADD MSTORE PUSH2 0x3A59 DUP2 PUSH2 0x3A1D JUMP JUMPDEST SWAP1 POP SWAP2 SWAP1 POP JUMP JUMPDEST PUSH1 0x0 PUSH2 0x3A6B DUP3 PUSH2 0x2F45 JUMP JUMPDEST SWAP2 POP PUSH2 0x3A76 DUP4 PUSH2 0x2F45 JUMP JUMPDEST SWAP3 POP DUP3 DUP3 MUL PUSH2 0x3A84 DUP2 PUSH2 0x2F45 JUMP JUMPDEST SWAP2 POP DUP3 DUP3 DIV DUP5 EQ DUP4 ISZERO OR PUSH2 0x3A9B JUMPI PUSH2 0x3A9A PUSH2 0x392E JUMP JUMPDEST JUMPDEST POP SWAP3 SWAP2 POP POP JUMP JUMPDEST PUSH32 0x4E487B7100000000000000000000000000000000000000000000000000000000 PUSH1 0x0 MSTORE PUSH1 0x12 PUSH1 0x4 MSTORE PUSH1 0x24 PUSH1 0x0 REVERT JUMPDEST PUSH1 0x0 PUSH2 0x3ADC DUP3 PUSH2 0x2F45 JUMP JUMPDEST SWAP2 POP PUSH2 0x3AE7 DUP4 PUSH2 0x2F45 JUMP JUMPDEST SWAP3 POP DUP3 PUSH2 0x3AF7 JUMPI PUSH2 0x3AF6 PUSH2 0x3AA2 JUMP JUMPDEST JUMPDEST DUP3 DUP3 DIV SWAP1 POP SWAP3 SWAP2 POP POP JUMP JUMPDEST PUSH32 0x4D696E204120616D6F756E74206E6F74206D6574000000000000000000000000 PUSH1 0x0 DUP3 ADD MSTORE POP JUMP JUMPDEST PUSH1 0x0 PUSH2 0x3B38 PUSH1 0x14 DUP4 PUSH2 0x3003 JUMP JUMPDEST SWAP2 POP PUSH2 0x3B43 DUP3 PUSH2 0x3B02 JUMP JUMPDEST PUSH1 0x20 DUP3 ADD SWAP1 POP SWAP2 SWAP1 POP JUMP JUMPDEST PUSH1 0x0 PUSH1 0x20 DUP3 ADD SWAP1 POP DUP2 DUP2 SUB PUSH1 0x0 DUP4 ADD MSTORE PUSH2 0x3B67 DUP2 PUSH2 0x3B2B JUMP JUMPDEST SWAP1 POP SWAP2 SWAP1 POP JUMP JUMPDEST PUSH32 0x4D696E204220616D6F756E74206E6F74206D6574000000000000000000000000 PUSH1 0x0 DUP3 ADD MSTORE POP JUMP JUMPDEST PUSH1 0x0 PUSH2 0x3BA4 PUSH1 0x14 DUP4 PUSH2 0x3003 JUMP JUMPDEST SWAP2 POP PUSH2 0x3BAF DUP3 PUSH2 0x3B6E JUMP JUMPDEST PUSH1 0x20 DUP3 ADD SWAP1 POP SWAP2 SWAP1 POP JUMP JUMPDEST PUSH1 0x0 PUSH1 0x20 DUP3 ADD SWAP1 POP DUP2 DUP2 SUB PUSH1 0x0 DUP4 ADD MSTORE PUSH2 0x3BD3 DUP2 PUSH2 0x3B97 JUMP JUMPDEST SWAP1 POP SWAP2 SWAP1 POP JUMP JUMPDEST PUSH32 0x416D6F756E74206D757374206265203E20300000000000000000000000000000 PUSH1 0x0 DUP3 ADD MSTORE POP JUMP JUMPDEST PUSH1 0x0 PUSH2 0x3C10 PUSH1 0x12 DUP4 PUSH2 0x3003 JUMP JUMPDEST SWAP2 POP PUSH2 0x3C1B DUP3 PUSH2 0x3BDA JUMP JUMPDEST PUSH1 0x20 DUP3 ADD SWAP1 POP SWAP2 SWAP1 POP JUMP JUMPDEST PUSH1 0x0 PUSH1 0x20 DUP3 ADD SWAP1 POP DUP2 DUP2 SUB PUSH1 0x0 DUP4 ADD MSTORE PUSH2 0x3C3F DUP2 PUSH2 0x3C03 JUMP JUMPDEST SWAP1 POP SWAP2 SWAP1 POP JUMP JUMPDEST PUSH32 0x496E76616C696420726573657276657300000000000000000000000000000000 PUSH1 0x0 DUP3 ADD MSTORE POP JUMP JUMPDEST PUSH1 0x0 PUSH2 0x3C7C PUSH1 0x10 DUP4 PUSH2 0x3003 JUMP JUMPDEST SWAP2 POP PUSH2 0x3C87 DUP3 PUSH2 0x3C46 JUMP JUMPDEST PUSH1 0x20 DUP3 ADD SWAP1 POP SWAP2 SWAP1 POP JUMP JUMPDEST PUSH1 0x0 PUSH1 0x20 DUP3 ADD SWAP1 POP DUP2 DUP2 SUB PUSH1 0x0 DUP4 ADD MSTORE PUSH2 0x3CAB DUP2 PUSH2 0x3C6F JUMP JUMPDEST SWAP1 POP SWAP2 SWAP1 POP JUMP JUMPDEST PUSH1 0x0 PUSH1 0x60 DUP3 ADD SWAP1 POP PUSH2 0x3CC7 PUSH1 0x0 DUP4 ADD DUP7 PUSH2 0x3414 JUMP JUMPDEST PUSH2 0x3CD4 PUSH1 0x20 DUP4 ADD DUP6 PUSH2 0x2FCE JUMP JUMPDEST PUSH2 0x3CE1 PUSH1 0x40 DUP4 ADD DUP5 PUSH2 0x2FCE JUMP JUMPDEST SWAP5 SWAP4 POP POP POP POP JUMP JUMPDEST PUSH32 0x496E73756666696369656E7420616D6F756E7442000000000000000000000000 PUSH1 0x0 DUP3 ADD MSTORE POP JUMP JUMPDEST PUSH1 0x0 PUSH2 0x3D1F PUSH1 0x14 DUP4 PUSH2 0x3003 JUMP JUMPDEST SWAP2 POP PUSH2 0x3D2A DUP3 PUSH2 0x3CE9 JUMP JUMPDEST PUSH1 0x20 DUP3 ADD SWAP1 POP SWAP2 SWAP1 POP JUMP JUMPDEST PUSH1 0x0 PUSH1 0x20 DUP3 ADD SWAP1 POP DUP2 DUP2 SUB PUSH1 0x0 DUP4 ADD MSTORE PUSH2 0x3D4E DUP2 PUSH2 0x3D12 JUMP JUMPDEST SWAP1 POP SWAP2 SWAP1 POP JUMP JUMPDEST PUSH32 0x496E73756666696369656E7420616D6F756E7441000000000000000000000000 PUSH1 0x0 DUP3 ADD MSTORE POP JUMP JUMPDEST PUSH1 0x0 PUSH2 0x3D8B PUSH1 0x14 DUP4 PUSH2 0x3003 JUMP JUMPDEST SWAP2 POP PUSH2 0x3D96 DUP3 PUSH2 0x3D55 JUMP JUMPDEST PUSH1 0x20 DUP3 ADD SWAP1 POP SWAP2 SWAP1 POP JUMP JUMPDEST PUSH1 0x0 PUSH1 0x20 DUP3 ADD SWAP1 POP DUP2 DUP2 SUB PUSH1 0x0 DUP4 ADD MSTORE PUSH2 0x3DBA DUP2 PUSH2 0x3D7E JUMP JUMPDEST SWAP1 POP SWAP2 SWAP1 POP JUMP JUMPDEST PUSH32 0x496E73756666696369656E74206C6971756964697479206D696E746564000000 PUSH1 0x0 DUP3 ADD MSTORE POP JUMP JUMPDEST PUSH1 0x0 PUSH2 0x3DF7 PUSH1 0x1D DUP4 PUSH2 0x3003 JUMP JUMPDEST SWAP2 POP PUSH2 0x3E02 DUP3 PUSH2 0x3DC1 JUMP JUMPDEST PUSH1 0x20 DUP3 ADD SWAP1 POP SWAP2 SWAP1 POP JUMP JUMPDEST PUSH1 0x0 PUSH1 0x20 DUP3 ADD SWAP1 POP DUP2 DUP2 SUB PUSH1 0x0 DUP4 ADD MSTORE PUSH2 0x3E26 DUP2 PUSH2 0x3DEA JUMP JUMPDEST SWAP1 POP SWAP2 SWAP1 POP JUMP JUMPDEST PUSH32 0x4964656E746963616C20746F6B656E2061646472657373657300000000000000 PUSH1 0x0 DUP3 ADD MSTORE POP JUMP JUMPDEST PUSH1 0x0 PUSH2 0x3E63 PUSH1 0x19 DUP4 PUSH2 0x3003 JUMP JUMPDEST SWAP2 POP PUSH2 0x3E6E DUP3 PUSH2 0x3E2D JUMP JUMPDEST PUSH1 0x20 DUP3 ADD SWAP1 POP SWAP2 SWAP1 POP JUMP JUMPDEST PUSH1 0x0 PUSH1 0x20 DUP3 ADD SWAP1 POP DUP2 DUP2 SUB PUSH1 0x0 DUP4 ADD MSTORE PUSH2 0x3E92 DUP2 PUSH2 0x3E56 JUMP JUMPDEST SWAP1 POP SWAP2 SWAP1 POP JUMP JUMPDEST PUSH32 0x5A65726F2061646472657373206E6F7420616C6C6F7765640000000000000000 PUSH1 0x0 DUP3 ADD MSTORE POP JUMP JUMPDEST PUSH1 0x0 PUSH2 0x3ECF PUSH1 0x18 DUP4 PUSH2 0x3003 JUMP JUMPDEST SWAP2 POP PUSH2 0x3EDA DUP3 PUSH2 0x3E99 JUMP JUMPDEST PUSH1 0x20 DUP3 ADD SWAP1 POP SWAP2 SWAP1 POP JUMP JUMPDEST PUSH1 0x0 PUSH1 0x20 DUP3 ADD SWAP1 POP DUP2 DUP2 SUB PUSH1 0x0 DUP4 ADD MSTORE PUSH2 0x3EFE DUP2 PUSH2 0x3EC2 JUMP JUMPDEST SWAP1 POP SWAP2 SWAP1 POP JUMP INVALID LOG2 PUSH5 0x6970667358 0x22 SLT KECCAK256 PUSH20 0xCE9D1EDC6D7FB23E308AF7DB3243072497F3F296 PUSH6 0x574D6274647D 0x28 0xD1 CALLVALUE 0xBD PUSH5 0x736F6C6343 STOP ADDMOD SHR STOP CALLER "},"methodIdentifiers":{"addLiquidity(address,address,uint256,uint256,uint256,uint256,address,uint256)":"e8e33700","allowance(address,address)":"dd62ed3e","approve(address,uint256)":"095ea7b3","balanceOf(address)":"70a08231","decimals()":"313ce567","getAmountOut(uint256,uint256,uint256)":"054d50d4","getPrice(address,address)":"ac41865a","getReserves(address,address)":"d52bb6f4","name()":"06fdde03","owner()":"8da5cb5b","removeLiquidity(address,address,uint256,uint256,uint256,address,uint256)":"baa2abde","renounceOwnership()":"715018a6","swapExactTokensForTokens(uint256,uint256,address[],address,uint256)":"38ed1739","symbol()":"95d89b41","totalSupply()":"18160ddd","transfer(address,uint256)":"a9059cbb","transferFrom(address,address,uint256)":"23b872dd","transferOwnership(address)":"f2fde38b"}}}}}